:020000040800F2
:1000000000000220C1210008E91D0008F11D0008C0
:10001000F91D0008011E0008091E0008000000006C
:10002000000000000000000000000000111E000899
:100030001F1E0008000000002D1E00083B1E0008C7
:1000400011220008112200081122000811220008C4
:1000500011220008112200081122000811220008B4
:1000600011220008112200081122000811220008A4
:100070001122000811220008112200081122000894
:100080001122000811220008112200081122000884
:100090001122000811220008112200081122000874
:1000A0001122000811220008112200081122000864
:1000B0001122000811220008112200081122000854
:1000C0001122000811220008112200081122000844
:1000D00011220008491E0008112200081122000800
:1000E0001122000811220008112200081122000824
:1000F0001122000811220008112200081122000814
:100100001122000811220008112200081122000803
:1001100011220008112200081122000811220008F3
:1001200011220008112200081122000811220008E3
:1001300011220008112200081122000811220008D3
:1001400011220008112200081122000811220008C3
:1001500011220008112200081122000811220008B3
:1001600011220008112200081122000811220008A3
:1001700011220008112200081122000800000000CE
:08018000112200081122000801
:1001900010B5054C237833B9044B13B10448AFF3C1
:1001A00000800123237010BDD80100200000000052
:1001B000A48E000808B5034B1BB103490348AFF3F5
:1001C000008008BD00000000DC010020A48E0008B3
:1001D00001F0FF01102A2BDB10F0070F08D010F8F8
:1001E000013B013A8B422DD010F0070F42B3F6D1FC
:1001F000F0B441EA012141EA014122F007047FF015
:1002000000070023F0E80256083C85EA010586EA6B
:10021000010685FA47F5A3FA87F586FA47F6A5FAA7
:1002200087F68EB9EED1F0BC01F0FF0102F00702B3
:1002300032B110F8013B013A83EA010313B1F8D15E
:100240000020704701387047002D06BF354603383F
:10025000073815F0010F07D1013015F4807F02BF78
:10026000013015F4C03F0130F0BC0138704700BFC9
:10027000034613F8012B002AFBD1181A01387047E6
:1002800081F0004102E000BF83F0004330B54FEA47
:1002900041044FEA430594EA050F08BF90EA020FB4
:1002A0001FBF54EA000C55EA020C7FEA645C7FEA47
:1002B000655C00F0E2804FEA5454D4EB5555B8BF6A
:1002C0006D420CDD2C4480EA020281EA030382EADB
:1002D000000083EA010180EA020281EA0303362D6D
:1002E00088BF30BD11F0004F4FEA01314FF4801C40
:1002F0004CEA113102D0404261EB410113F0004F52
:100300004FEA03334CEA133302D0524263EB430308
:1003100094EA050F00F0A780A4F10104D5F1200EA6
:100320000DDB02FA0EFC22FA05F2801841F1000101
:1003300003FA0EF2801843FA05F359410EE0A5F1D5
:1003400020050EF1200E012A03FA0EFC28BF4CF006
:10035000020C43FA05F3C01851EBE37101F00045BC
:1003600007D54FF0000EDCF1000C7EEB00006EEBC9
:100370000101B1F5801F1BD3B1F5001F0CD3490853
:100380005FEA30004FEA3C0C04F101044FEA4452AA
:1003900012F5800F80F09A80BCF1004F08BF5FEA31
:1003A000500C50F1000041EB045141EA050130BD11
:1003B0005FEA4C0C404141EB0101013C28BFB1F523
:1003C000801FE9D291F0000F04BF01460020B1FA6E
:1003D00081F308BF2033A3F10B03B3F120020CDA41
:1003E0000C3208DD02F1140CC2F10C0201FA0CF01F
:1003F00021FA02F10CE002F11402D8BFC2F1200C84
:1004000001FA02F120FA0CFCDCBF41EA0C01904039
:10041000E41AA2BF01EB0451294330BD6FEA040482
:100420001F3C1CDA0C340EDC04F11404C4F120026D
:1004300020FA04F001FA02F340EA030021FA04F37F
:1004400045EA030130BDC4F10C04C4F1200220FAD6
:1004500002F001FA04F340EA0300294630BD21FA14
:1004600004F0294630BD94F0000F83F4801306BFDA
:1004700081F480110134013D4EE77FEA645C18BFCE
:100480007FEA655C29D094EA050F08BF90EA020F65
:1004900005D054EA000C04BF1946104630BD91EA5D
:1004A000030F1EBF0021002030BD5FEA545C05D160
:1004B0004000494128BF41F0004130BD14F580049F
:1004C0003CBF01F5801130BD01F0004545F0FE4113
:1004D00041F470014FF0000030BD7FEA645C1ABF48
:1004E000194610467FEA655C1CBF0B46024650EA7F
:1004F000013406BF52EA033591EA030F41F40021AB
:1005000030BD00BF90F0000F04BF0021704730B530
:100510004FF4806404F132044FF000054FF0000105
:1005200050E700BF90F0000F04BF0021704730B5C6
:100530004FF4806404F1320410F0004548BF40429B
:100540004FF000013EE700BF42004FEAE2014FEAF0
:1005500031014FEA02701FBF12F07F4393F07F4FCB
:1005600081F06051704732F07F4208BF704793F0CE
:100570007F4F04BF41F40021704730B54FF46074E1
:1005800001F0004521F000411CE700BF50EA0102E4
:1005900008BF704730B54FF000050AE050EA01028D
:1005A00008BF704730B511F0004502D5404261EBFD
:1005B00041014FF4806404F132045FEA915C3FF43E
:1005C000D8AE4FF003025FEADC0C18BF03325FEADB
:1005D000DC0C18BF033202EBDC02C2F1200300FA8C
:1005E00003FC20FA02F001FA03FE40EA0E0021FAB1
:1005F00002F11444BDE600BF70B54FF0FF0C4CF49F
:10060000E06C1CEA11541DBF1CEA135594EA0C0F50
:1006100095EA0C0F00F0DEF82C4481EA030621EA8B
:100620004C5123EA4C5350EA013518BF52EA0335C6
:1006300041F4801143F4801338D0A0FB02CE4FF078
:100640000005E1FB02E506F00042E0FB03E54FF0A8
:100650000006E1FB03569CF0000F18BF4EF0010EA0
:10066000A4F1FF04B6F5007F64F5407404D25FEA9C
:100670004E0E6D4146EB060642EAC62141EA55514F
:100680004FEAC52040EA5E504FEACE2EB4F1FD0C91
:1006900088BFBCF5E06F1ED8BEF1004F08BF5FEA0F
:1006A000500E50F1000041EB045170BD06F00046C1
:1006B00046EA010140EA020081EA0301B4EB5C046E
:1006C000C2BFD4EB0C0541EA045170BD41F4801166
:1006D0004FF0000E013C00F3AB8014F1360FDEBF8B
:1006E000002001F0004170BDC4F10004203C35DA67
:1006F0000C341BDC04F11404C4F1200500FA05F3EA
:1007000020FA04F001FA05F240EA020001F000428A
:1007100021F0004110EBD37021FA04F642EB060100
:100720005EEA430E08BF20EAD37070BDC4F10C042A
:10073000C4F1200500FA04F320FA05F001FA04F2EE
:1007400040EA020001F0004110EBD37041F10001DA
:100750005EEA430E08BF20EAD37070BDC4F12005E5
:1007600000FA05F24EEA020E20FA04F301FA05F24D
:1007700043EA020321FA04F001F0004121FA04F2F5
:1007800020EA020000EBD3705EEA430E08BF20EAC5
:10079000D37070BD94F0000F0FD101F000464000FF
:1007A00041EB010111F4801F08BF013CF7D041EA81
:1007B000060195F0000F18BF704703F00046520085
:1007C00043EB030313F4801F08BF013DF7D043EA56
:1007D0000603704794EA0C0F0CEA135518BF95EA0C
:1007E0000C0F0CD050EA410618BF52EA4306D1D193
:1007F00081EA030101F000414FF0000070BD50EAB2
:10080000410606BF1046194652EA430619D094EA3B
:100810000C0F02D150EA013613D195EA0C0F05D125
:1008200052EA03361CBF104619460AD181EA030179
:1008300001F0004141F0FE4141F470014FF0000031
:1008400070BD41F0FE4141F4780170BD70B54FF0CC
:10085000FF0C4CF4E06C1CEA11541DBF1CEA13554C
:1008600094EA0C0F95EA0C0F00F0A7F8A4EB05042E
:1008700081EA030E52EA03354FEA013100F0888025
:100880004FEA03334FF0805545EA131343EA1263EE
:100890004FEA022245EA111545EA10654FEA0026A3
:1008A0000EF000419D4208BF964244F1FD0404F55C
:1008B000407402D25B084FEA3202B61A65EB0305B8
:1008C0005B084FEA32024FF480104FF4002CB6EB75
:1008D000020E75EB030E22BFB61A754640EA0C00F5
:1008E0005B084FEA3202B6EB020E75EB030E22BF35
:1008F000B61A754640EA5C005B084FEA3202B6EB76
:10090000020E75EB030E22BFB61A754640EA9C0034
:100910005B084FEA3202B6EB020E75EB030E22BF04
:10092000B61A754640EADC0055EA060E18D04FEAC2
:10093000051545EA16754FEA06164FEAC30343EA62
:1009400052734FEAC2025FEA1C1CC0D111F4801F2F
:100950000BD141EA00014FF000004FF0004CB6E728
:1009600011F4801F04BF01430020B4F1FD0C88BFC7
:10097000BCF5E06F3FF6AFAEB5EB030C04BFB6EBD2
:10098000020C5FEA500C50F1000041EB045170BDC5
:100990000EF0004E4EEA113114EB5C04C2BFD4EBF2
:1009A0000C0541EA045170BD41F480114FF0000E76
:1009B000013C90E645EA060E8DE60CEA135594EAF2
:1009C0000C0F08BF95EA0C0F3FF43BAF94EA0C0FF5
:1009D0000AD150EA01347FF434AF95EA0C0F7FF46A
:1009E00025AF104619462CE795EA0C0F06D152EABE
:1009F00003353FF4FDAE1046194622E750EA4106A2
:100A000018BF52EA43067FF4C5AE50EA41047FF4B2
:100A10000DAF52EA43057FF4EBAE12E74FF0FF3C17
:100A200006E000BF4FF0010C02E000BF4FF0010CE8
:100A30004DF804CD4FEA410C7FEA6C5C4FEA430C61
:100A400018BF7FEA6C5C1BD001B050EA410C0CBFB0
:100A500052EA430C91EA030F02BF90EA020F002012
:100A6000704710F1000F91EA030F58BF994208BF79
:100A700090422CBFD8176FEAE37040F00100704736
:100A80004FEA410C7FEA6C5C02D150EA013C07D18D
:100A90004FEA430C7FEA6C5CD6D152EA033CD3D0D8
:100AA0005DF8040B704700BF8446104662468C46D2
:100AB0001946634600E000BF01B5FFF7B7FF002805
:100AC00048BF10F1000F01BD4DF808EDFFF7F4FF2E
:100AD0000CBF012000205DF808FB00BF4DF808EDB9
:100AE000FFF7EAFF34BF012000205DF808FB00BFDC
:100AF0004DF808EDFFF7E0FF94BF012000205DF8FE
:100B000008FB00BF4DF808EDFFF7CEFF94BF0120B2
:100B100000205DF808FB00BF4DF808EDFFF7C4FFAB
:100B200034BF012000205DF808FB00BF4FEA410CF4
:100B30007FEA6C5C02D150EA013C0AD14FEA430CD7
:100B40007FEA6C5C02D152EA033C02D14FF0000014
:100B500070474FF0010070474FEA410212F5001252
:100B600015D211D56FF47873B3EB625212D94FEAF4
:100B7000C12343F0004343EA505311F0004F23FADE
:100B800002F018BF404270474FF00000704750EA33
:100B9000013005D111F0004008BF6FF000407047F0
:100BA0004FF00000704700BF4A0011D212F500124A
:100BB00011D20DD56FF47873B3EB62520ED44FEAB5
:100BC000C12343F0004343EA505323FA02F0704735
:100BD0004FF00000704750EA013002D14FF0FF3073
:100BE00070474FF0000070474FEA4102B2F1E04316
:100BF00024BFB3F5001CDCF1FE5C0DD901F0004C04
:100C00004FEAC0024CEA5070B2F1004F40EB830053
:100C100008BF20F00100704711F0804F21D113F17F
:100C20003872BCBF01F00040704741F480114FEAB8
:100C30005252C2F11802C2F1200C10FA0CF320FA41
:100C400002F018BF40F001004FEAC1234FEAD3235E
:100C500003FA0CFC40EA0C0023FA02F34FEA4303C8
:100C6000CCE77FEA625307D150EA01331EBF4FF051
:100C7000FE4040F44000704701F0004040F0FE406C
:100C800040F40000704700BF53B94AB9002908BFBB
:100C900000281CBF4FF0FF314FF0FF3000F0A0B92B
:100CA000ADF1080C6DE904CE00F03CF8DDF804E08D
:100CB000DDE9022304B0704738B500220023044662
:100CC0000D46FFF70BFF28B920462946BDE83840FE
:100CD00000F00AB8204605F1004100F005F8404256
:100CE00061EB410138BD00BFD0B50C4B0022064678
:100CF0000F46FFF781FCFFF757FF0446FFF702FCA2
:100D0000074B0022FFF778FC02460B463046394677
:100D1000FFF7BAFAFFF748FF2146D0BD0000F03DCB
:100D20000000F0412DE9F047089D0C46002B4ED104
:100D300094468C458646B2FA82F262D94AB1C2F133
:100D40002003914020FA03F30CFA02FC194300FA45
:100D500002FE4FEA1C471FFA8CF6B1FBF7F44FEA8C
:100D60001E4307FB141143EA014304FB06F19942B9
:100D70000AD91CEB030304F1FF3080F01281994281
:100D800040F20F81023C6344591A1FFA8EF3B1FB03
:100D9000F7F007FB101143EA014300FB06F69E4201
:100DA0000AD91CEB030300F1FF3180F0FC809E4266
:100DB00040F2F980634402389B1B40EA0440002162
:100DC0001DB1D3400022C5E90032BDE8F0878B4257
:100DD00005D90DB1C5E9000100210846F5E7B3FAD0
:100DE00083F1002946D1A34202D39042C0F0F080A3
:100DF000861A64EB03030120002DE6D0C5E90063E9
:100E0000E3E7002A40F09080A1EB0C044FEA1C4875
:100E10001FFA8CF70121B4FBF8F64FEA1E4308FBDA
:100E2000164443EA044307FB06F0984208D91CEB3A
:100E3000030306F1FF3402D2984200F2CD80264629
:100E40001C1A1FFA8EF3B4FBF8F008FB104443EAB7
:100E5000044300FB07F79F4208D91CEB030300F192
:100E6000FF3402D29F4200F2B0802046DB1B40EAF2
:100E70000640A5E7C1F120068B4022FA06F71F4382
:100E800020FA06FC04FA01F343EA0C03F44000FAEA
:100E900001F8380C4FEA1349B4FBF0FE1FFA87FC47
:100EA00000FB1E4449EA04440EFB0CF9A14502FA7A
:100EB00001F20AD93C190EF1FF3A80F08480A14575
:100EC00040F28180AEF1020E3C44A4EB09041FFA0B
:100ED00083F9B4FBF0F300FB134449EA044403FB39
:100EE0000CFCA44507D93C1903F1FF3067D2A44597
:100EF00065D9023B3C4443EA0E40A0FB0293A4EBBD
:100F00000C049C42CE469C4651D34ED055B1B8EB12
:100F10000E0364EB0C0404FA06F6CB401E43CC40EF
:100F2000C5E90064002150E7C2F1200320FA03F173
:100F30000CFA02FC24FA03F394400C434FEA1C48D9
:100F400000FA02FE1FFA8CF7B3FBF8F008FB103131
:100F5000230C43EA014300FB07F1994208D91CEB3B
:100F6000030300F1FF362CD299422AD90238634498
:100F70005B1AA4B2B3FBF8F108FB113344EA034453
:100F800001FB07F3A34208D91CEB040401F1FF366F
:100F900013D2A34211D902396444E41A41EA004150
:100FA00039E70446F0E6084606E7C845AED2B9EB95
:100FB000020E63EB070C0138A8E73146EDE7034664
:100FC00099E73046D4E7D6467FE7634402384DE7D9
:100FD0000646234608460FE7023E634430E700BF5B
:100FE000704700BF80B582B000AF0346FB71F91DAA
:100FF0004FF6FF730122034802F002FB00BF0837DF
:10100000BD4680BD3005002080B584B000AF78605B
:101010000B467B800023FB8109E0FB897A6813443F
:101020001B781846FFF7DEFFFB890133FB81FA8945
:101030007B889A42F1D300BF00BF1037BD4680BD08
:1010400080B582B000AF78600B467B807B88194604
:101050007868FFF7D9FF00BF0837BD4680BD0000A4
:1010600080B485B000AF7860084611461A46034642
:10107000FB700B46BB7013467B700023FB737B68D1
:101080003E221A707B680133FA781A707B6802334B
:10109000BA781A707B6803337A781A707B680433E5
:1010A00000221A700023FB730EE07B68043319786A
:1010B000FB7B7A6813441A787B6804330A44D2B203
:1010C0001A70FB7B0133FB73FB7B032BEDD97B7821
:1010D000002B34D07B7805331A467B6813440022FA
:1010E0001A700023FB7320E0FB7BBA691A44FB7B78
:1010F000053319467B680B4412781A707B780533E8
:101100001A467B6813441978FB7B05331A467B68C3
:1011100013441A787B78053318467B6803440A44E5
:10112000D2B21A70FB7B0133FB73FA7B7B789A4255
:10113000DAD3FB7B0633DAB2054B1A7002E0044BBC
:1011400005221A7000BF1437BD465DF8047B704756
:10115000E404002080B584B002AF0023FB710023BB
:101160007B710023BB71494B1B781A464FF47A738D
:101170004749484802F0CFFA454B1B783E2B5BD1DC
:10118000434B1A78424B5B781344DAB2404B9B785E
:101190001344DAB23E4BDB7813447B713C4B1B7932
:1011A0007A799A4248D13A4B5A79394B9B79134410
:1011B000DAB2374BDB791344DAB2354B1B7A13447E
:1011C000DAB2334B5B7A1344DAB2314B9B7A134475
:1011D000DAB22F4BDB7A13447B712D4B1B7B7A7970
:1011E0009A4229D12A4B5B795AB22B4B1A70284B61
:1011F0009B791A46264BDB791B029BB213449BB2A8
:101200001AB2264B1A80224B1B7A1A46204B5B7A65
:101210001B029BB213449BB21AB2214B1A801C4B87
:101220009B7A1A461A4BDB7A1B029BB213449AB282
:101230001C4B1A800123FB710023BB7106E0BB79B4
:10124000134A0021D154BB790133BB710F4B1B787A
:10125000BA799A42F3D30D4B00221A700E4B93F9D0
:10126000003019460D4BB3F900301A460C4BB3F958
:10127000003018460B4B1B88009303460A4804F0C5
:10128000C1F9FB7918460837BD4680BDE50400204A
:101290001C04002030050020F4010020F60100208D
:1012A000F8010020FA010020C08E000880B588B047
:1012B00002AF0346FB710B46BB711346BB80002394
:1012C000FB750023BB8200237B8200233B8200232B
:1012D000FB81FB79A02B19D1BB88BB820223FB7554
:1012E000F87DBA79F97907F114030093034634487D
:1012F000FFF7B6FE334B0D221A70334B1B7819469D
:101300002F48FFF79DFEFFF725FF55E0FB79A12B46
:1013100019D1BB887B820223FB75F87DBA79F979F4
:1013200007F11203009303462548FFF799FE254B6A
:101330000D221A70244B1B7819462148FFF780FEB6
:10134000FFF708FF38E0FB79A22B19D1BB883B825D
:101350000423FB75F87DBA79F97907F1100300933E
:1013600003461748FFF77CFE164B0D221A70164BEA
:101370001B7819461248FFF763FEFFF7EBFE1BE0F0
:10138000FB79A32B18D1BB88FB810823FB75F87D63
:10139000BA79F97907F10E03009303460848FFF77D
:1013A0005FFE084B0D221A70074B1B781946044844
:1013B000FFF746FEFFF7CEFE00BF1837BD4680BDE3
:1013C00054030020E5040020E404002080B58CB024
:1013D00000AF07F11C0300221A605A609A60DA60BD
:1013E0001A610023BB61354B1B6B344A43F0040385
:1013F0001363324B1B6B03F00403BB61BB69002317
:101400007B612E4B1B6B2D4A43F0800313632B4BE8
:101410001B6B03F080037B617B6900233B61274BDF
:101420001B6B264A43F010031363244B1B6B03F022
:1014300010033B613B690023FB60204B1B6B1F4A81
:1014400043F0020313631D4B1B6B03F00203FB60AD
:10145000FB680023BB60194B1B6B184A43F0010368
:101460001363164B1B6B03F00103BB60BB680023C7
:101470007B60124B1B6B114A43F0080313630F4B45
:101480001B6B03F008037B607B6800224FF4005164
:101490000B4801F095FA4FF40053FB6101233B62C6
:1014A00000237B620223BB6207F11C031946044838
:1014B00001F0EAF800BF3037BD4680BD0038024079
:1014C0000010024080B500AF124B134A1A60114B56
:1014D000124A5A600F4B00229A600E4B0022DA60CB
:1014E0000C4B4FF480421A610A4B00225A61094B9F
:1014F00000229A61074B0022DA61064B00221A6231
:10150000044801F091FA0346002B01D000F03EFCA4
:1015100000BF80BDFC01002000540040801A06007E
:1015200080B500AF124B134A1A60114B124A5A6031
:101530000F4B00229A600E4B0022DA600C4B4FF4E6
:1015400080421A610A4B00225A61094B00229A61BB
:10155000074B0022DA61064B00221A62044801F0B0
:1015600063FA0346002B01D000F010FC00BF80BDE1
:101570005002002000580040801A060080B500AFDD
:10158000124B134A1A60114B124A5A600F4B002239
:101590009A600E4B0022DA600C4B4FF480421A61C5
:1015A0000A4B00225A61094B00229A61074B002224
:1015B000DA61064B00221A62044801F035FA03464C
:1015C000002B01D000F0E2FB00BF80BDA402002090
:1015D000005C0040801A060080B58EB000AF7860D5
:1015E00007F1240300221A605A609A60DA601A61D7
:1015F0007B681B685B4A93422CD100233B625A4BA9
:101600001B6B594A43F002031363574B1B6B03F0E8
:1016100002033B623B6AC0237B621223BB6200234E
:10162000FB6203233B6304237B6307F12403194616
:101630004E4801F029F80023FB614B4B1B6C4A4AD2
:1016400043F400131364484B1B6C03F40013FB6159
:10165000FB6983E07B681B68454A93422DD10023D8
:10166000BB61414B1B6B404A43F0020313633E4B8B
:101670001B6B03F00203BB61BB694FF440637B62E9
:101680001223BB620023FB6203233B6304237B63BF
:1016900007F124031946354800F0F6FF00237B616B
:1016A000314B1B6C304A43F4800313642E4B1B6C8C
:1016B00003F480037B617B6950E07B681B682D4AE3
:1016C00093424BD100233B61274B1B6B264A43F0CF
:1016D00004031363244B1B6B03F004033B613B695E
:1016E0000023FB60204B1B6B1F4A43F00103136375
:1016F0001D4B1B6B03F00103FB60FB684FF4007391
:101700007B621223BB620023FB6203233B6304233F
:101710007B6307F124031946174800F0B5FF4FF427
:1017200080737B621223BB620023FB6203233B6353
:1017300004237B6307F124031946104800F0A4FF3B
:101740000023BB60084B1B6C074A43F4000313647F
:10175000054B1B6C03F40003BB60BB6800BF38374C
:10176000BD4680BD005400400038024000040240E5
:1017700000580040005C00400008024000000240A9
:1017800080B582B000AF7860391D4FF6FF7301223B
:10179000034801F035FF7B6818460837BD4680BD19
:1017A000E804002000000000B0B582B000AF87ED73
:1017B000010AC7ED000A97ED017AD7ED007A77EEBE
:1017C000677A414BC3ED007A404B93ED007A3E4B74
:1017D000D3ED007A77EE277A3C4BC3ED007A3B4B92
:1017E000D3ED007A9FED3A7AF4EEC77AF1EE10FA73
:1017F00003DD364B374A1A600CE0344BD3ED007AE8
:101800009FED357AF4EEC77AF1EE10FA02D52F4B40
:10181000324A1A602C4B1B681846FEF795FE26A329
:10182000D3E90023FEF7E8FE02460B4614461D46A8
:10183000264B1B681846FEF787FE21A3D3E9002339
:10184000FEF7DAFE02460B4620462946FEF71EFD4D
:1018500002460B4614461D461B4B93ED007A204B67
:10186000D3ED007A77EE677A17EE900AFEF76CFEFA
:1018700013A3D3E90023FEF7BFFE02460B46204622
:101880002946FEF703FD02460B4610461946FFF7B0
:10189000ABF90346134A13600B4B1B68104A1360E5
:1018A000104B1B6807EE903AB0EE670A0837BD464A
:1018B000B0BD00BFAFF300809A9999999999A93F5B
:1018C0007B14AE47E17A843F340300203C030020C0
:1018D00000803B4500803B4500803BC500803BC508
:1018E000440300204C030020B0B582B000AF87ED68
:1018F000010AC7ED000A97ED017AD7ED007A77EE7D
:10190000677A414BC3ED007A404B93ED007A3E4B32
:10191000D3ED007A77EE277A3C4BC3ED007A3B4B50
:10192000D3ED007A9FED3A7AF4EEC77AF1EE10FA31
:1019300003DD364B374A1A600CE0344BD3ED007AA6
:101940009FED357AF4EEC77AF1EE10FA02D52F4BFF
:10195000324A1A602C4B1B681846FEF7F5FD26A389
:10196000D3E90023FEF748FE02460B4614461D4607
:10197000264B1B681846FEF7E7FD21A3D3E9002399
:10198000FEF73AFE02460B4620462946FEF77EFC4D
:1019900002460B4614461D461B4B93ED007A204B26
:1019A000D3ED007A77EE677A17EE900AFEF7CCFD5A
:1019B00013A3D3E90023FEF71FFE02460B46204681
:1019C0002946FEF763FC02460B4610461946FFF710
:1019D0000BF90346134A13600B4B1B68104A136044
:1019E000104B1B6807EE903AB0EE670A0837BD4609
:1019F000B0BD00BFAFF300809A9999999999A93F1A
:101A00007B14AE47E17A843F380300204003002076
:101A100000803B4500803B4500803BC500803BC5C6
:101A2000480300204C03002080B584B000AF00F0D4
:101A3000F1FB00F019F9FFF7C9FCFFF743FDFFF7D1
:101A40006FFDFFF79BFD00F0E1FA00F009FB322289
:101A50007A497B4801F0F6FE7A4B1B78002BFBD0CD
:101A60000023FB6000237B8100233B8100237B60FC
:101A700039E0724A7B6813441B782F2B28D96F4AB0
:101A80007B6813441B78392B22D8FB68002B0FD1BD
:101A90007B891A46920013445B009BB267497A68BF
:101AA0000A44127813449BB2303B9BB27B8117E00F
:101AB0003B891A46920013445B009BB25F497A68E7
:101AC0000A44127813449BB2303B9BB23B8107E03F
:101AD0005A4A7B6813441B782C2B01D10123FB60ED
:101AE0007B6801337B60584B1B88023B7A689A42C3
:101AF000BFDBB7F90A3007EE903AF8EEE77ADFED90
:101B0000530AB0EE670AFFF74FFEF0EE407AFDEEA3
:101B1000E77A17EE903A1AB24D4B1A80B7F90830AF
:101B200007EE903AF8EEE77ADFED4A0AB0EE670A80
:101B3000FFF7DAFEF0EE407AFDEEE77A17EE903A24
:101B40001AB2454B1A80454BB3F900309AB2404B5C
:101B5000B3F900309BB2D31A9BB21AB23F4B1A8032
:101B60003F4BB3F900309AB23B4BB3F900309BB214
:101B7000D31A9BB21AB23A4B1A80384BB3F90030E1
:101B8000272B03DC354B28221A8007E0334BB3F9AF
:101B90000030642B02DD314B64221A80304BB3F9E4
:101BA0000030222B03DC2E4B23221A8007E02C4B23
:101BB000B3F90030912B02DD294B91221A80274B7B
:101BC000B3F900301946264BB3F900301A462548C0
:101BD00003F018FD214BB3F900309BB21A46920076
:101BE00013441A4691001A460B4613449B009BB2BD
:101BF0007B811B4BB3F900309BB21A469200134411
:101C00001A4691001A460B4613449B009BB23B8137
:101C1000B7F90A301A460121A320FFF747FB01203C
:101C200000F06AFBB7F908301A460221A320FFF73B
:101C30003DFB044B00221A700EE700BFF8020020A3
:101C4000E80400202C0300202A0300200000704339
:101C50002E0300200000A0433003002000000020DD
:101C600002000020148F000880B594B000AF07F187
:101C7000200330220021184603F039FD07F10C0340
:101C800000221A605A609A60DA601A610023BB6011
:101C9000284B1B6C274A43F080531364254B1B6C65
:101CA00003F08053BB60BB6800237B60224B1B6842
:101CB000214A43F4804313601F4B1B6803F48043A5
:101CC0007B607B6801233B624FF480337B6202239D
:101CD000BB634FF48003FB6319233B644FF4A87389
:101CE0007B640223BB640423FB6407F120031846D2
:101CF00000F0DEFF0346002B01D000F047F80F2371
:101D0000FB6002233B6100237B614FF4A053BB6166
:101D10004FF48053FB6107F10C030521184601F0D5
:101D20003FFA0346002B01D000F030F800BF5037D7
:101D3000BD4680BD003802400070004080B582B0D2
:101D400000AF78600B467B807B680B4A93420FD1D3
:101D50004FF40051094800F04CFE094B01221A7063
:101D6000084A7B88138032220749034801F06AFD44
:101D700000BF0837BD4680BDE804002000100240C7
:101D80002C0300202A030020F802002080B400AFBA
:101D900072B600BF00BFFDE780B483B000AF002380
:101DA0007B60104B5B6C0F4A43F4804353640D4BD4
:101DB0005B6C03F480437B607B6800233B60094BD2
:101DC0001B6C084A43F080531364064B1B6C03F0F2
:101DD00080533B603B6800BF0C37BD465DF8047B19
:101DE000704700BF0038024080B400AF00BFFDE77D
:101DF00080B400AF00BFFDE780B400AF00BFFDE7D7
:101E000080B400AF00BFFDE780B400AF00BFFDE7C6
:101E100080B400AF00BFBD465DF8047B704780B45E
:101E200000AF00BFBD465DF8047B704780B400AFD3
:101E300000BFBD465DF8047B704780B500AF00F081
:101E40003BFA00BF80BD000080B500AF024801F042
:101E500057FD00BF80BD00BFE804002080B400AF84
:101E600001231846BD465DF8047B704780B582B0FB
:101E700000AF7860396003F08DFC034616221A60CB
:101E80004FF0FF3318460837BD4680BD80B582B09D
:101E900000AF78604FF0FF317868FFF7E7FF00BFD1
:101EA000FDE780B586B000AFF860B9607A600023C6
:101EB0007B610AE0AFF300800146BB685A1CBA6040
:101EC000CAB21A707B6901337B617A697B689A4276
:101ED000F0DB7B6818461837BD4680BD80B586B0FC
:101EE00000AFF860B9607A6000237B6109E0BB68ED
:101EF0005A1CBA601B781846FFF742FC7B69013315
:101F00007B617A697B689A42F1DB7B6818461837F7
:101F1000BD4680BD80B483B000AF78604FF0FF3322
:101F200018460C37BD465DF8047B704780B483B01B
:101F300000AF786039603B684FF400525A6000236C
:101F400018460C37BD465DF8047B704780B483B0FB
:101F500000AF7860012318460C37BD465DF8047B5E
:101F6000704780B485B000AFF860B9607A60002334
:101F700018461437BD465DF8047B704780B586B0BF
:101F800000AF7860144A154BD31A7B617B693B61C3
:101F9000134B1B68002B02D1114B124A1A60104BD5
:101FA0001A687B6813443A699A4207D203F0F2FB3D
:101FB00003460C221A604FF0FF3309E0084B1B6800
:101FC000FB60074B1A687B681344054A1360FB6883
:101FD00018461837BD4680BD0000022000040000EE
:101FE00050030020C806002080B400AF064BD3F891
:101FF0008830054A43F47003C2F8883000BFBD46FC
:102000005DF8047B704700BF00ED00E080B500AFD5
:10201000114B124A1A60104B4FF4E1325A600E4BCA
:1020200000229A600C4B0022DA600B4B00221A61EE
:10203000094B0C225A61084B00229A61064B002280
:10204000DA61054801F08CFA0346002B01D0FFF756
:102050009DFE00BF80BD00BFE804002000100140CD
:1020600080B500AF114B124A1A60104B4FF4E132A9
:102070005A600E4B00229A600C4B0022DA600B4B28
:1020800000221A61094B0C225A61084B00229A6106
:10209000064B0022DA61054801F062FA0346002B84
:1020A00001D0FFF773FE00BF80BD00BF30050020E8
:1020B0000044004080B58CB000AF786007F11C038D
:1020C00000221A605A609A60DA601A617B681B68A5
:1020D000364A934235D10023BB61354B5B6C344AA1
:1020E00043F010035364324B5B6C03F01003BB618D
:1020F000BB6900237B612E4B1B6B2D4A43F0010310
:1021000013632B4B1B6B03F001037B617B694FF463
:10211000C063FB6102233B6200237B620323BB623B
:102120000723FB6207F11C031946224800F0ACFAB2
:1021300000220021252000F0DEF9252000F0F7F92B
:1021400030E07B681B681C4A93422BD100233B6123
:10215000174B1B6C164A43F400331364144B1B6C6F
:1021600003F400333B613B690023FB60104B1B6BA6
:102170000F4A43F0080313630D4B1B6B03F0080376
:10218000FB60FB686023FB6102233B6200237B62F0
:102190000323BB620723FB6207F11C0319460748B0
:1021A00000F072FA00BF3037BD4680BD001001401C
:1021B000003802400000024000440040000C024091
:1021C000DFF834D0FFF710FF0C480D490D4A00230B
:1021D00002E0D458C4500433C4188C42F9D30A4ADC
:1021E0000A4C002301E013600432A242FBD303F047
:1021F000D7FAFFF719FC704700000220000000200A
:10220000D801002088930008D8010020C8060020CB
:10221000FEE7000080B500AF0E4B1B680D4A43F48B
:10222000007313600B4B1B680A4A43F4806313600E
:10223000084B1B68074A43F480731360032000F0C7
:102240004FF90F2000F008F8FFF7A6FD002318460D
:1022500080BD00BF003C024080B582B000AF786016
:10226000124B1A68124B1B7819464FF47A73B3FB62
:10227000F1F3B2FBF3F3184600F067F90346002BC5
:1022800001D001230EE07B680F2B0AD80022796869
:102290004FF0FF3000F02FF9064A7B6813600023EF
:1022A00000E0012318460837BD4680BD0400002029
:1022B0000C0000200800002080B400AF064B1B7803
:1022C0001A46064B1B681344044A136000BFBD4600
:1022D0005DF8047B704700BF0C00002078050020EB
:1022E00080B400AF034B1B681846BD465DF8047B05
:1022F000704700BF7805002080B584B000AF7860DB
:10230000FFF7EEFFB8607B68FB60FB68B3F1FF3F4F
:1023100005D00A4B1B781A46FB681344FB6000BFCC
:10232000FFF7DEFF0246BB68D31AFA689A42F7D875
:1023300000BF00BF1037BD4680BD00BF0C000020AD
:1023400080B485B000AF78607B6803F00703FB6062
:102350000C4BDB68BB60BA684FF6FF031340BB60F1
:10236000FB681A02BB68134343F0BF6343F40033B6
:10237000BB60044ABB68D36000BF1437BD465DF83C
:10238000047B704700ED00E080B400AF044BDB68D5
:102390001B0A03F007031846BD465DF8047B70472F
:1023A00000ED00E080B483B000AF0346FB7197F905
:1023B0000730002B0BDBFB7903F01F02074997F96D
:1023C00007305B09012000FA02F241F8232000BF28
:1023D0000C37BD465DF8047B704700BF00E100E0AC
:1023E00080B483B000AF03463960FB7197F90730C2
:1023F000002B0ADB3B68DAB20C4997F9073012016F
:10240000D2B20B4483F800230AE03B68DAB20849F1
:10241000FB7903F00F03043B1201D2B20B441A768E
:1024200000BF0C37BD465DF8047B704700E100E05B
:1024300000ED00E080B489B000AFF860B9607A6068
:10244000FB6803F00703FB61FB69C3F10703042B7F
:1024500028BF0423BB61FB690433062B02D9FB6947
:10246000033B00E000237B614FF0FF32BB6902FABF
:1024700003F3DA43BB681A407B699A404FF0FF319F
:102480007B6901FA03F3D9437B680B401343184679
:102490002437BD465DF8047B7047000080B582B0EC
:1024A00000AF78607B68013BB3F1807F01D30123EB
:1024B0000FE00A4A7B68013B53600F214FF0FF3069
:1024C000FFF78EFF054B00229A60044B07221A602B
:1024D000002318460837BD4680BD00BF10E000E06D
:1024E00080B582B000AF78607868FFF729FF00BF41
:1024F0000837BD4680BD80B586B000AF0346B960E1
:102500007A60FB7300237B61FFF73EFF78617A6896
:10251000B9687869FFF78EFF024697F90F301146C8
:102520001846FFF75DFF00BF1837BD4680BD80B578
:1025300082B000AF0346FB7197F907301846FFF7EA
:1025400031FF00BF0837BD4680BD80B582B000AF07
:1025500078607868FFF7A2FF034618460837BD4643
:1025600080BD80B584B000AF78607B689B6DFB60F8
:10257000FFF7B6FEB8607B6893F83530DBB2022B0C
:1025800008D07B6880225A657B68002283F834205B
:10259000012352E07B681B681A687B681B6822F085
:1025A00016021A607B681B685A697B681B6822F0F8
:1025B00080025A617B681B6C002B03D17B689B6C8B
:1025C000002B07D07B681B681A687B681B6822F0A9
:1025D00008021A607B681B681A687B681B6822F017
:1025E00001021A6013E0FFF77BFE0246BB68D31AB4
:1025F000052B0CD97B6820225A657B68032283F85F
:1026000035207B68002283F83420032315E07B68A3
:102610001B681B6803F00103002BE4D17B68DB6DB2
:102620003F229A40FB689A607B68012283F835203C
:102630007B68002283F83420002318461037BD46FB
:1026400080BD80B483B000AF78607B6893F835308C
:10265000DBB2022B04D07B6880225A6501230CE098
:102660007B68052283F835207B681B681A687B68C5
:102670001B6822F001021A60002318460C37BD4681
:102680005DF8047B7047000080B489B000AF7860CB
:10269000396000237B6100233B610023BB61002381
:1026A000FB616BE10122FB6902FA03F37B613B688A
:1026B0001B687A6913403B613A697B699A4240F032
:1026C0005A813B685B6803F00303012B05D03B682C
:1026D0005B6803F00303022B30D17B689B68BB610E
:1026E000FB695B00032202FA03F3DB43BA69134080
:1026F000BB613B68DA68FB695B0002FA03F3BA6905
:102700001343BB617B68BA699A607B685B68BB6195
:102710000122FB6902FA03F3DB43BA691340BB6190
:102720003B685B681B0903F00102FB6902FA03F3D3
:10273000BA691343BB617B68BA695A603B685B68DE
:1027400003F00303032B17D07B68DB68BB61FB69D5
:102750005B00032202FA03F3DB43BA691340BB6157
:102760003B689A68FB695B0002FA03F3BA6913439A
:10277000BB617B68BA69DA603B685B6803F003039E
:10278000022B23D1FB69DA087B68083253F8223028
:10279000BB61FB6903F007039B000F2202FA03F3FE
:1027A000DB43BA691340BB613B681A69FB6903F0FC
:1027B00007039B0002FA03F3BA691343BB61FB6989
:1027C000DA087B680832B96943F822107B681B6815
:1027D000BB61FB695B00032202FA03F3DB43BA69C6
:1027E0001340BB613B685B6803F00302FB695B005D
:1027F00002FA03F3BA691343BB617B68BA691A60D2
:102800003B685B6803F44033002B00F0B480002386
:10281000FB60604B5B6C5F4A43F4804353645D4BE9
:102820005B6C03F48043FB60FB685B4AFB699B08BD
:10283000023352F82330BB61FB6903F003039B00B2
:102840000F2202FA03F3DB43BA691340BB617B68D2
:10285000524A93422BD07B68514A934225D07B68E1
:10286000504A93421FD07B684F4A934219D07B68ED
:102870004E4A934213D07B684D4A93420DD07B68F9
:102880004C4A934207D07B684B4A934201D10723BD
:102890000EE008230CE006230AE0052308E00423E9
:1028A00006E0032304E0022302E0012300E000230A
:1028B000FA6902F0030292009340BA691343BB61C4
:1028C0003549FB699B080233BA6941F823203B4B29
:1028D0009B68BB613B69DB43BA691340BB613B68E2
:1028E0005B6803F48013002B03D0BA693B69134380
:1028F000BB61324ABB699360304BDB68BB613B69AB
:10290000DB43BA691340BB613B685B6803F40013A7
:10291000002B03D0BA693B691343BB61274ABB69EB
:10292000D360264B5B68BB613B69DB43BA691340EC
:10293000BB613B685B6803F40033002B03D0BA69CA
:102940003B691343BB611D4ABB6953601B4B1B684A
:10295000BB613B69DB43BA691340BB613B685B68A1
:1029600003F48033002B03D0BA693B691343BB6186
:10297000124ABB691360FB690133FB61FB690F2BD2
:102980007FF690AE00BF00BF2437BD465DF8047BE4
:10299000704700BF0038024000380140000002408C
:1029A0000004024000080240000C024000100240F7
:1029B0000014024000180240001C0240003C01408C
:1029C00080B483B000AF78600B467B8013467B7089
:1029D0007B78002B03D07A887B689A6103E07B8840
:1029E0001A047B689A6100BF0C37BD465DF8047B12
:1029F000704780B485B000AF78600B467B807B6801
:102A00005B69FB607A88FB6813401A04FB68D94352
:102A10007B880B401A437B689A6100BF1437BD4620
:102A20005DF8047B7047000080B584B000AF78602B
:102A30007B68002B01D101232BE17B6893F83D30AB
:102A4000DBB2002B06D17B68002283F83C2078683B
:102A5000FEF7C2FD7B68242283F83D207B681B685B
:102A60001A687B681B6822F001021A607B681B6889
:102A70001A687B681B6842F400421A607B681B6816
:102A80001A687B681B6822F400421A6000F040FD5F
:102A9000F8607B685B68814A934207D8FB68804A8C
:102AA000934294BF01230023DBB206E0FB687D4A1A
:102AB000934294BF01230023DBB2002B01D00123FA
:102AC000E7E0FB68784AA2FB03239B0CBB607B68B2
:102AD0001B685B6823F03F017B681B68BA680A4388
:102AE0005A607B681B681B6A23F03F017B685B6848
:102AF0006A4A934202D8BB68013309E0BB684FF4CD
:102B0000967202FB03F3694AA2FB03239B0901337C
:102B10007A6812680B4313627B681B68DB6923F4D5
:102B20004F4222F0FF027B685B685C498B4219D8F8
:102B3000FB68591E7B685B685B00B1FBF3F3591CB3
:102B400040F6FC730B40002B0AD0FB68591E7B68D3
:102B50005B685B00B1FBF3F30133C3F30B0351E09C
:102B600004234FE07B689B68002B11D1FB68581E43
:102B70007B6859680B465B000B44B0FBF3F30133F1
:102B8000C3F30B03002B0CBF01230023DBB212E0C5
:102B9000FB68581E7B6859680B469B000B449900E4
:102BA0000B44B0FBF3F30133C3F30B03002B0CBF57
:102BB00001230023DBB2002B01D0012322E07B683C
:102BC0009B68002B0ED1FB68581E7B6859680B462A
:102BD0005B000B44B0FBF3F30133C3F30B0343F48B
:102BE00000430FE0FB68581E7B6859680B469B004A
:102BF0000B4499000B44B0FBF3F30133C3F30B0315
:102C000043F44043796809681343CB617B681B68D0
:102C10001B6823F0C0017B68DA697B681B6A1A4372
:102C20007B681B680A431A607B681B689B6823F4F7
:102C3000034323F0FF037A6811697A68D26811436D
:102C40007A6812680B4393607B681B68DB6823F02B
:102C5000FF017B685A697B689B691A437B681B6824
:102C60000A43DA607B681B681A687B681B6842F05D
:102C700001021A607B6800221A647B68202283F8B4
:102C80003D207B6800221A637B68002283F83E2087
:102C9000002318461037BD4680BD00BFA086010046
:102CA0007F841E00FF083D0083DE1B43D34D62106E
:102CB00080B586B000AF78607B68002B01D101231E
:102CC00067E27B681B6803F00103002B75D0884B1B
:102CD0009B6803F00C03042B0CD0854B9B6803F01E
:102CE0000C03082B12D1824B5B6803F48003B3F50D
:102CF000800F0BD17E4B1B6803F40033002B5BD09D
:102D00007B685B68002B57D1012342E27B685B68DC
:102D1000B3F5803F06D1764B1B68754A43F4803388
:102D200013601DE07B685B68B3F5A02F0CD1704B7E
:102D30001B686F4A43F4802313606D4B1B686C4A19
:102D400043F4803313600BE0694B1B68684A23F43B
:102D500080331360664B1B68654A23F4802313603D
:102D60007B685B68002B13D0FFF7BAFA386108E084
:102D7000FFF7B6FA02463B69D31A642B01D9032345
:102D800007E25B4B1B6803F40033002BF0D014E028
:102D9000FFF7A6FA386108E0FFF7A2FA02463B699E
:102DA000D31A642B01D90323F3E1514B1B6803F4BD
:102DB0000033002BF0D100E000BF7B681B6803F0FC
:102DC0000203002B63D04A4B9B6803F00C03002BDB
:102DD0000BD0474B9B6803F00C03082B1CD1444BD2
:102DE0005B6803F48003002B16D1414B1B6803F092
:102DF0000203002B05D07B68DB68012B01D0012387
:102E0000C7E13B4B1B6823F0F8027B681B69DB00C2
:102E1000374913430B603AE07B68DB68002B20D016
:102E2000344B01221A60FFF75BFA386108E0FFF7C4
:102E300057FA02463B69D31A022B01D90323A8E1B2
:102E40002B4B1B6803F00203002BF0D0284B1B68B0
:102E500023F0F8027B681B69DB00254913430B60F4
:102E600015E0244B00221A60FFF73AFA386108E0B7
:102E7000FFF736FA02463B69D31A022B01D9032326
:102E800087E11B4B1B6803F00203002BF0D17B682A
:102E90001B6803F00803002B36D07B685B69002BAE
:102EA00016D0154B01221A60FFF71AFA386108E0B4
:102EB000FFF716FA02463B69D31A022B01D9032306
:102EC00067E10B4B5B6F03F00203002BF0D01BE0BC
:102ED000094B00221A60FFF703FA38610EE0FFF792
:102EE000FFF902463B69D31A022B07D9032350E1AD
:102EF0000038024000004742800E4742884B5B6F1B
:102F000003F00203002BEAD17B681B6803F0040383
:102F1000002B00F097800023FB75814B1B6C03F0A6
:102F20008053002B0FD10023BB607D4B1B6C7C4A70
:102F300043F0805313647A4B1B6C03F08053BB60E7
:102F4000BB680123FB75774B1B6803F48073002B70
:102F500018D1744B1B68734A43F480731360FFF7F6
:102F6000BFF9386108E0FFF7BBF902463B69D31AA5
:102F7000022B01D903230CE16A4B1B6803F4807315
:102F8000002BF0D07B689B68012B06D1644B1B6F34
:102F9000634A43F0010313671CE07B689B68052BC1
:102FA0000CD15F4B1B6F5E4A43F0040313675C4B0D
:102FB0001B6F5B4A43F0010313670BE0584B1B6F19
:102FC000574A23F001031367554B1B6F544A23F0F4
:102FD000040313677B689B68002B15D0FFF780F90B
:102FE00038610AE0FFF77CF902463B69D31A41F2E7
:102FF0008832934201D90323CBE0494B1B6F03F086
:103000000203002BEED014E0FFF76AF938610AE002
:10301000FFF766F902463B69D31A41F288329342C0
:1030200001D90323B5E03E4B1B6F03F00203002BD5
:10303000EED1FB7D012B05D1394B1B6C384A23F0B7
:10304000805313647B689B69002B00F0A180344B94
:103050009B6803F00C03082B5CD07B689B69022BF8
:1030600041D1314B00221A60FFF73AF9386108E08C
:10307000FFF736F902463B69D31A022B01D9032325
:1030800087E0274B1B6803F00073002BF0D17B68AF
:10309000DA697B681B6A1A437B685B6A9B011A4387
:1030A0007B689B6A5B08013B1B041A437B68DB6AF5
:1030B0001B061B4913434B601B4B01221A60FFF791
:1030C0000FF9386108E0FFF70BF902463B69D31AA4
:1030D000022B01D903235CE0114B1B6803F0007342
:1030E000002BF0D054E0104B00221A60FFF7F8F8E4
:1030F000386108E0FFF7F4F802463B69D31A022B67
:1031000001D9032345E0064B1B6803F00073002B35
:10311000F0D13DE07B689B69012B07D1012338E0AA
:103120000038024000700040600047421B4B5B6863
:10313000FB607B689B69012B28D0FB6803F480024D
:103140007B68DB699A4221D1FB6803F03F027B6810
:103150001B6A9A421AD1FA6847F6C07313407A681C
:10316000526A9201934211D1FB6803F440327B68AA
:103170009B6A5B08013B1B049A4207D1FB6803F082
:1031800070627B68DB6A1B069A4201D0012300E073
:10319000002318461837BD4680BD00BF00380240E6
:1031A00080B584B000AF786039607B68002B01D1B6
:1031B0000123CCE0684B1B6803F007033A689A428E
:1031C0000CD9654B3A68D2B21A70634B1B6803F096
:1031D00007033A689A4201D00123B8E07B681B6874
:1031E00003F00203002B20D07B681B6803F004036C
:1031F000002B05D0594B9B68584A43F4E053936029
:103200007B681B6803F00803002B05D0534B9B68B9
:10321000524A43F460439360504B9B6823F0F002A2
:103220007B689B684D4913438B607B681B6803F088
:103230000103002B44D07B685B68012B07D1474B0F
:103240001B6803F40033002B19D101237FE07B6856
:103250005B68022B03D07B685B68032B07D13F4B75
:103260001B6803F00073002B09D101236FE03B4B77
:103270001B6803F00203002B01D1012367E0374BE9
:103280009B6823F003027B685B68344913438B60BF
:10329000FFF726F8F8600AE0FFF722F80246FB681D
:1032A000D31A41F28832934201D903234FE02B4BCA
:1032B0009B6803F00C027B685B689B009A42EBD131
:1032C000254B1B6803F007033A689A420CD2224B45
:1032D0003A68D2B21A70204B1B6803F007033A68B1
:1032E0009A4201D0012332E07B681B6803F004039B
:1032F000002B08D0194B9B6823F4E0527B68DB68F5
:10330000164913438B607B681B6803F00803002B8E
:1033100009D0124B9B6823F460427B681B69DB0079
:103320000E4913438B6000F021F802460B4B9B685B
:103330001B0903F00F030A49CB5C22FA03F3094A85
:103340001360094B1B681846FEF786FF00231846DA
:103350001037BD4680BD00BF003C0240003802402F
:10336000308F000804000020080000202DE9B04F35
:1033700090B000AF00237B630023FB6300233B631B
:103380000023BB63594B9B6803F00C03082B0DD043
:10339000082B00F2A180002B02D0042B03D09BE06D
:1033A000534BBB639BE0534BBB6398E04F4B5B6855
:1033B00003F03F037B634D4B5B6803F48003002BFA
:1033C00028D04A4B5B689B0900223B627A623B6AC9
:1033D000C3F308000021474B03FB01F2002300FB6D
:1033E00003F31344434AA0FB0212FA620A46BA628C
:1033F000FA6A1344FB627B6B0022BB61FA61D7E976
:103400000623D7E90A01FDF73FFC02460B461346A7
:10341000FB6353E0354B5B689B0900223B617A619B
:103420003B69C3F3080A4FF0000B52465B464FF06E
:1034300000004FF00001590141EAD26150010246FB
:103440000B46B2EB0A0863EB0B094FF000024FF09A
:1034500000034FEA891343EA98634FEA8812B2EBFC
:10346000080463EB09054FF000024FF00003EB0086
:1034700043EA5473E20014461D4614EB0A033B6012
:1034800045EB0B037B604FF000024FF00003D7E9E0
:10349000004529468B02214643EA915321468A0280
:1034A000104619467B6B0022BB60FA60D7E9022305
:1034B000FDF7EAFB02460B461346FB630B4B5B68CA
:1034C0001B0C03F0030301335B003B63FA6B3B6BA4
:1034D000B2FBF3F3BB6302E0054BBB6300BFBB6B06
:1034E00018464037BD46BDE8B08F00BF00380240E7
:1034F0000024F40040787D0180B400AF034B1B68CA
:103500001846BD465DF8047B704700BF04000020EC
:1035100080B500AFFFF7F0FF0246054B9B689B0AA2
:1035200003F007030349CB5C22FA03F3184680BD7E
:1035300000380240408F000880B500AFFFF7DCFF85
:103540000246054B9B685B0B03F007030349CB5C0A
:1035500022FA03F3184680BD00380240408F00086D
:1035600080B582B000AF78607B68002B01D1012369
:1035700042E07B6893F84130DBB2002B06D17B68D8
:10358000002283F840207868FEF794FD7B682422AF
:1035900083F841207B681B68DA687B681B6822F42B
:1035A0000052DA60786800F08BFE7B681B681A694D
:1035B0007B681B6822F490421A617B681B685A6919
:1035C0007B681B6822F02A025A617B681B68DA68F4
:1035D0007B681B6842F40052DA607B6800225A6400
:1035E0007B68202283F841207B68202283F84220D8
:1035F0007B6800225A63002318460837BD4680BD09
:1036000080B58AB002AFF860B9603B601346FB80BA
:1036100000237B61FB6893F84130DBB2202B75D12E
:10362000BB68002B02D0FB88002B01D101236EE088
:10363000FB6800225A64FB68212283F84120FEF7D0
:103640004FFE7861FB68FA889A84FB68FA88DA840E
:10365000FB689B68B3F5805F08D1FB681B69002B92
:1036600004D10023FB61BB68BB6103E0BB68FB6165
:103670000023BB612EE03B6800937B690022802120
:10368000F86800F0EDFB0346002B05D0FB68202214
:1036900083F8412003233AE0FB69002B0BD1BB697F
:1036A0001B881A46FB681B68C2F308025A60BB6994
:1036B0000233BB6107E0FB691A78FB681B685A603C
:1036C000FB690133FB61FB68DB8C9BB2013B9AB267
:1036D000FB68DA84FB68DB8C9BB2002BCBD13B68A8
:1036E00000937B6900224021F86800F0B9FB034693
:1036F000002B05D0FB68202283F84120032306E03D
:10370000FB68202283F84120002300E002231846B2
:103710002037BD4680BD80B58AB002AFF860B96081
:103720003B601346FB8000237B61FB6893F84230CB
:10373000DBB2202B40F08180BB68002B02D0FB88DD
:10374000002B01D1012379E0FB6800225A64FB6859
:10375000222283F84220FB6800221A63FEF7C0FD94
:103760007861FB68FA889A85FB68FA88DA85FB68D5
:103770009B68B3F5805F08D1FB681B69002B04D1FF
:103780000023FB61BB68BB6103E0BB68FB610023F6
:10379000BB6147E03B6800937B6900222021F86809
:1037A00000F05EFB0346002B05D0FB68202283F867
:1037B0004220032342E0FB69002B0CD1FB681B680D
:1037C0005B689BB2C3F308039AB2BB691A80BB69FA
:1037D0000233BB611FE0FB689B68B3F5805F07D0D5
:1037E000FB689B68002B0AD1FB681B69002B06D184
:1037F000FB681B685B68DAB2FB691A7008E0FB685B
:103800001B685B68DBB203F07F03DAB2FB691A70F6
:10381000FB690133FB61FB68DB8D9BB2013B9AB214
:10382000FB68DA85FB68DB8D9BB2002BB2D1FB68AD
:10383000202283F84220002300E00223184620378C
:10384000BD4680BD80B58CB000AFF860B96013464E
:10385000FB80FB6893F84230DBB2202B4AD1BB6877
:10386000002B02D0FB88002B01D1012343E0FB6831
:1038700001221A63FB6800225A63FB881A46B96862
:10388000F86800F046FB034687F82F3097F82F3092
:10389000002B2CD1FB681B6B012B25D100233B6136
:1038A000FB681B681B683B61FB681B685B683B61CE
:1038B0003B69FB681B680C33BB61BB6953E8003F85
:1038C0007B617B6943F01003BB62FB681B680C33B0
:1038D000BA6A7A623B62396A7A6A41E80023FB611C
:1038E000FB69002BE5D102E0012387F82F3097F820
:1038F0002F3000E0022318463037BD4680BD00005F
:1039000080B5BAB000AF78607B681B681B68C7F8E9
:10391000E4307B681B68DB68C7F8E0307B681B68B5
:103920005B69C7F8DC300023C7F8D8300023C7F83C
:10393000D430D7F8E43003F00F03C7F8D830D7F805
:10394000D830002B0FD1D7F8E43003F02003002B40
:1039500009D0D7F8E03003F02003002B03D07868BB
:1039600000F0F0FB5BE2D7F8D830002B00F0DE80EF
:10397000D7F8DC3003F00103002B06D1D7F8E03094
:1039800003F49073002B00F0D180D7F8E43003F0FB
:103990000103002B0BD0D7F8E03003F48073002B29
:1039A00005D07B685B6C43F001027B685A64D7F8F2
:1039B000E43003F00403002B0BD0D7F8DC3003F025
:1039C0000103002B05D07B685B6C43F002027B682F
:1039D0005A64D7F8E43003F00203002B0BD0D7F879
:1039E000DC3003F00103002B05D07B685B6C43F0F7
:1039F00004027B685A64D7F8E43003F00803002B14
:103A000011D0D7F8E03003F02003002B05D1D7F810
:103A1000DC3003F00103002B05D07B685B6C43F0C6
:103A200008027B685A647B685B6C002B00F0F281B3
:103A3000D7F8E43003F02003002B08D0D7F8E030AB
:103A400003F02003002B02D0786800F07BFB7B683A
:103A50001B685B6903F04003402B0CBF012300236C
:103A6000DBB2C7F8D4307B685B6C03F00803002B33
:103A700003D1D7F8D430002B4FD0786800F083FA08
:103A80007B681B685B6903F04003402B41D17B6876
:103A90001B681433C7F89C30D7F89C3053E8003FBC
:103AA000C7F89830D7F8983023F04003C7F8D030E3
:103AB0007B681B681433D7F8D020C7F8A820C7F854
:103AC000A430D7F8A410D7F8A82041E80023C7F8FD
:103AD000A030D7F8A030002BD9D17B68DB6B002B4E
:103AE00013D07B68DB6B7E4A1A657B68DB6B1846FC
:103AF000FEF7A7FD0346002B16D07B68DB6B1B6D22
:103B00007A68D26B104698470EE0786800F09EF90C
:103B10000AE0786800F09AF906E0786800F096F913
:103B20007B6800225A6475E100BF73E17B681B6B00
:103B3000012B40F04F81D7F8E43003F01003002B45
:103B400000F04881D7F8E03003F01003002B00F0BC
:103B500041810023BB607B681B681B68BB607B687E
:103B60001B685B68BB60BB687B681B685B6903F0B4
:103B70004003402B40F0B6807B68DB6B1B685B68C2
:103B8000A7F8BE30B7F8BE30002B00F045817B6847
:103B90009B8DB7F8BE209A4280F03E817B68B7F8D3
:103BA000BE20DA857B68DB6BDB69B3F5807F00F0D4
:103BB00088807B681B680C33C7F88830D7F888305A
:103BC00053E8003FC7F88430D7F8843023F480737B
:103BD000C7F8B8307B681B680C33D7F8B820C7F833
:103BE0009420C7F89030D7F89010D7F8942041E887
:103BF0000023C7F88C30D7F88C30002BD9D17B68E4
:103C00001B6814337B677B6F53E8003F3B673B6F58
:103C100023F00103C7F8B4307B681B681433D7F86E
:103C2000B420C7F88020FB67F96FD7F8802041E8FF
:103C30000023BB67BB6F002BE1D17B681B6814338B
:103C40003B663B6E53E8003FFB65FB6D23F0400392
:103C5000C7F8B0307B681B681433D7F8B020FA6619
:103C6000BB66B96EFA6E41E800237B667B6E002B63
:103C7000E3D17B68202283F842207B6800221A630C
:103C80007B681B680C33FB64FB6C53E8003FBB6430
:103C9000BB6C23F01003C7F8AC307B681B680C3397
:103CA000D7F8AC20BA657B65796DBA6D41E8002321
:103CB0003B653B6D002BE3D17B68DB6B1846FEF761
:103CC00050FC7B6802225A637B689A8D7B68DB8D8F
:103CD0009BB2D31A9BB219467868FEF72FF89BE087
:103CE0004D4000087B689A8D7B68DB8D9BB2D31AB0
:103CF000A7F8CE307B68DB8D9BB2002B00F08E8066
:103D0000B7F8CE30002B00F089807B681B680C333D
:103D1000BB63BB6B53E8003F7B637B6B23F4907307
:103D2000C7F8C8307B681B680C33D7F8C8207A64A2
:103D30003B64396C7A6C41E80023FB63FB6B002B1E
:103D4000E3D17B681B6814337B627B6A53E8003FD6
:103D50003B623B6A23F00103C7F8C4307B681B68F1
:103D60001433D7F8C4203A63FB62F96A3A6B41E82E
:103D70000023BB62BB6A002BE3D17B68202283F85F
:103D800042207B6800221A637B681B680C333B610E
:103D90003B6953E8003FFB60FB6823F01003C7F862
:103DA000C0307B681B680C33D7F8C020FA61BB6158
:103DB000B969FA6941E800237B617B69002BE3D193
:103DC0007B6802225A63B7F8CE3019467868FDF74F
:103DD000B5FF23E0D7F8E43003F08003002B09D0CF
:103DE000D7F8E03003F08003002B03D0786800F0B0
:103DF00041F914E0D7F8E43003F04003002B0ED073
:103E0000D7F8E03003F04003002B08D0786800F0CA
:103E100081F904E000BF02E000BF00E000BFE83726
:103E2000BD4680BD80B483B000AF786000BF0C3762
:103E3000BD465DF8047B704780B483B000AF786006
:103E400000BF0C37BD465DF8047B704780B483B07B
:103E500000AF786000BF0C37BD465DF8047B70474B
:103E600080B586B000AFF860B9603B601346FB7167
:103E70003BE03B6AB3F1FF3F37D0FEF731FA024631
:103E80003B68D31A3A6A9A4202D33B6A002B01D1AB
:103E900003233AE0FB681B68DB6803F00403002B94
:103EA00023D0BB68802B20D0BB68402B1DD0FB6883
:103EB0001B681B6803F00803082B16D100237B61E5
:103EC000FB681B681B687B61FB681B685B687B6128
:103ED0007B69F86800F057F8FB6808225A64FB68B1
:103EE000002283F8402001230FE0FB681B681A685A
:103EF000BB681340BA689A420CBF01230023DBB2AF
:103F00001A46FB799A42B4D0002318461837BD46AA
:103F100080BD80B485B000AFF860B9601346FB8007
:103F2000FB68BA689A62FB68FA889A85FB68FA8827
:103F3000DA85FB6800225A64FB68222283F842205B
:103F4000FB681B69002B07D0FB681B68DA68FB68FD
:103F50001B6842F48072DA60FB681B685A69FB6870
:103F60001B6842F001025A61FB681B68DA68FB6853
:103F70001B6842F02002DA60002318461437BD4661
:103F80005DF8047B704780B495B000AF78607B68C3
:103F90001B680C337B637B6B53E8003F3B633B6BDD
:103FA00023F49073FB647B681B680C33FA6C3A64EF
:103FB000FB63F96B3A6C41E80023BB63BB6B002BDE
:103FC000E5D17B681B6814333B623B6A53E8003FD2
:103FD000FB61FB6923F00103BB647B681B6814333E
:103FE000BA6CFA62BB62B96AFA6A41E800237B6282
:103FF0007B6A002BE5D17B681B6B012B19D17B6899
:104000001B680C33FB60FB6853E8003FBB60BB6878
:1040100023F010037B647B681B680C337A6CBA61F5
:104020007B617969BA6941E800233B613B69002BF8
:10403000E5D17B68202283F842207B6800221A6346
:1040400000BF5437BD465DF8047B704780B584B02F
:1040500000AF78607B689B6BFB60FB680022DA85B1
:10406000FB680022DA84F868FFF7F0FE00BF103723
:10407000BD4680BD80B485B000AF78607B6893F8A2
:104080004130DBB2212B3ED17B689B68B3F5805F6A
:1040900014D17B681B69002B10D17B681B6AFB6005
:1040A000FB681B881A467B681B68C2F308025A60CB
:1040B0007B681B6A9A1C7B681A6208E07B681B6A33
:1040C000591C7A6811621A787B681B685A607B6891
:1040D000DB8C9BB2013B9BB27A681946D184002BE2
:1040E0000FD17B681B68DA687B681B6822F080024E
:1040F000DA607B681B68DA687B681B6842F0400204
:10410000DA60002300E0022318461437BD465DF84C
:10411000047B704780B582B000AF78607B681B6815
:10412000DA687B681B6822F04002DA607B68202234
:1041300083F841207868FFF775FE0023184608379A
:10414000BD4680BD80B58CB000AF78607B6893F8C9
:104150004230DBB2222B40F0AE807B689B68B3F527
:10416000805F17D17B681B69002B13D10023FB6292
:104170007B689B6ABB627B681B685B689BB2C3F30E
:1041800008039AB2BB6A1A807B689B6A9A1C7B6898
:104190009A6226E07B689B6AFB620023BB627B68B5
:1041A0009B68B3F5805F07D07B689B68002B0AD1C2
:1041B0007B681B69002B06D17B681B685B68DAB2E1
:1041C000FB6A1A7008E07B681B685B68DBB203F06F
:1041D0007F03DAB2FB6A1A707B689B6A5A1C7B68A1
:1041E0009A627B68DB8D9BB2013B9BB27A68194671
:1041F000D185002B5DD17B681B68DA687B681B6802
:1042000022F02002DA607B681B68DA687B681B6832
:1042100022F48072DA607B681B685A697B681B68CD
:1042200022F001025A617B68202283F842207B68D9
:1042300000225A637B681B6B012B35D17B680022FF
:104240001A637B681B680C337B617B6953E8003F12
:104250003B613B6923F010037B627B681B680C3376
:104260007A6A3A62FB61F9693A6A41E80023BB6104
:10427000BB69002BE5D17B681B681B6803F010034A
:10428000102B0AD10023FB607B681B681B68FB6056
:104290007B681B685B68FB60FB687B689B8D1946CD
:1042A0007868FDF74BFD02E07868FFF7C5FD002355
:1042B00002E0002300E0022318463037BD4680BDEF
:1042C0002DE9B04FC0B000AFC7F8F400D7F8F43014
:1042D0001B681B6923F44050D7F8F430D968D7F82D
:1042E000F4301A6840EA01031361D7F8F4309A6891
:1042F000D7F8F4301B691A43D7F8F4305B691A43D6
:10430000D7F8F430DB691343C7F8F830D7F8F43046
:104310001B68DB6823F4164121F00C01D7F8F43058
:104320001A68D7F8F8300B43D360D7F8F4301B681D
:104330005B6923F44070D7F8F4309969D7F8F4300A
:104340001A6840EA01035361D7F8F4301A688F4BBA
:104350009A4205D0D7F8F4301A688D4B9A4204D1AE
:10436000FFF7EAF8C7F8FC0003E0FFF7D1F8C7F859
:10437000FC00D7F8F430DB69B3F5004F40F00C8156
:10438000D7F8FC300022C7F8E830C7F8EC20D7E9AE
:104390003A4522462B469118B9655B41FB65D7E942
:1043A0001623214612EB0108294643EB01094FF081
:1043B00000024FF000034FEAC90343EA58734FEA83
:1043C000C80290469946234618EB0303C7F8E0302D
:1043D0002B4649EB0303C7F8E430D7F8F4305B68A9
:1043E0000022C7F8D830C7F8DC20D7E936120B46D0
:1043F000DB183B65134642EB03037B65D7E91423C7
:10440000D7E93801FCF740FC02460B46614BA3FBA1
:1044100002235B091C01D7F8FC300022C7F8D0301A
:10442000C7F8D420D7E9348942464B469118B9647D
:104430005B41FB64D7E91223414612EB010A49466E
:1044400043EB010B4FF000024FF000034FEACB03A8
:1044500043EA5A734FEACA0292469B4643461AEB16
:104460000303C7F8C8304B464BEB0303C7F8CC3007
:10447000D7F8F4305B680022C7F8C030C7F8C42012
:10448000D7E930120B46DB183B64134642EB0303BB
:104490007B64D7E91023D7E93201FCF7F5FB02462C
:1044A0000B4611463B4BA3FB01235B09642202FB35
:1044B00003F3CB1ADB0003F13202364BA3FB0223DA
:1044C0005B095B0003F4F8731C44D7F8FC3000224E
:1044D000C7F8B830C7F8BC20D7E92E8942464B460A
:1044E0009118B9635B41FB63D7E90E23414651182C
:1044F000396349464B417B634FF000024FF00003A4
:10450000D7E90CAB5946CB00514643EA51735146AB
:10451000CA0010461946034642469B18C7F8B030F9
:104520004B460A4642EB0303C7F8B430D7F8F430E1
:104530005B680022C7F8A830C7F8AC20D7E92A1278
:104540000B46DB18BB62134642EB0303FB62D7E961
:104550000A23D7E92C01FCF797FB02460B460D4BCB
:10456000A3FB02135B09642101FB03F3D31ADB00F5
:104570003233084AA2FB03235B0903F00702D7F892
:10458000F4301B6822449A6006E100BF001001402D
:10459000001401401F85EB51D7F8FC300022C7F80A
:1045A000A030C7F8A420D7E9288942464B46911885
:1045B00039625B417B62D7E908234146541849467A
:1045C00043EB01054FF000024FF00003EB0043EA1C
:1045D0005473E20014461D464346E318C7F898306A
:1045E0004B4645EB0303C7F89C30D7F8F4305B68C3
:1045F0000022C7F89030C7F894204FF000024FF027
:104600000003D7E9244529468B00214643EA9173EC
:1046100021468A00D7E92601FCF736FB02460B4605
:10462000604BA3FB02235B091C01D7F8FC3000227E
:10463000C7F88830C7F88C20D7E9228942464B4614
:104640009118B9615B41FB61D7E9062341465118D6
:10465000396149464B417B614FF000024FF0000346
:10466000D7E904AB5946CB00514643EA5173514652
:10467000CA0010461946034642469B18C7F88030C8
:104680004B460A4642EB0303C7F88430D7F8F430B0
:104690005B680022BB67FA674FF000024FF000032F
:1046A000D7E91E8949468B00414643EA917341464A
:1046B0008A00D7E92001FCF7E7FA02460B461146CB
:1046C000384BA3FB01235B09642202FB03F3CB1AE3
:1046D0001B013233334AA2FB03235B0903F0F003CF
:1046E0001C44D7F8FC3000223B677A67D7E91C8965
:1046F00042464B469118B9605B41FB60D7E9022303
:1047000041465118396049464B417B604FF00002E9
:104710004FF00003D7E900AB5946CB00514643EABE
:1047200051735146CA0010461946034642469B182B
:10473000BB664B460A4642EB0303FB66D7F8F430F0
:104740005B6800223B667A664FF000024FF0000380
:10475000D7E9188949468B00414643EA917341469F
:104760008A00D7E91A01FCF78FFA02460B460D4B77
:10477000A3FB02135B09642101FB03F3D31A1B01A2
:104780003233084AA2FB03235B0903F00F02D7F878
:10479000F4301B6822449A6000BF07F58077BD465D
:1047A000BDE8B08F1F85EB512DE9FF4757EC106B2B
:1047B000002F0C4619463B46BBBF07F100431F467E
:1047C00000232D230B700D9BDDF830A0914623F0C4
:1047D0002008BCBF32461646B8F1460F05D0B8F1E6
:1047E000450F00D10134022100E0032103AB019306
:1047F00002AB009347EC106B5346224601F088F859
:10480000B8F1470F054619D119F0010F0ED000EB92
:1048100004090022002330463946FCF755F908B157
:10482000CDF80C903022039B4B451ED3039B0E9A70
:104830005B1B2846136004B0BDE8F087B8F1460F53
:1048400000EB0409E5D10378302B0AD100220023C4
:1048500030463946FCF738F918B9C4F10104CAF8F2
:104860000040DAF800309944D3E7591C03911A70DC
:10487000D9E7F7B50029BABF49422D232B230929CF
:104880000270437029DD0DF107031D460A271A4601
:10489000B1FBF7F607FB1614303402F8014C0C4656
:1048A000632C03F1FF333146F1DC3031941E03F801
:1048B000011C411C2346AB420AD30DF109039B1A8C
:1048C000AC4288BF002302330344181A03B0F0BD82
:1048D00013F8016B01F8016FEDE73023303183707D
:1048E000C170031DF1E700002DE9F04F8DB00C46BB
:1048F000DDF8588016461F46054600F001FF0368A4
:1049000004931846FBF7B4FC00230A93D8F8003050
:104910000590073323F0070303F1080294F818A069
:10492000D4F800B0C8F80020D3E9008929F000438A
:104930000793CDF81880C4E91289DDE906019C4B84
:104940004FF0FF32FCF7F2F870BBDDE90601984B3F
:104950004FF0FF32FCF7CCF830BB0022002340467A
:104960004946FCF7BBF810B12D2384F84330914A37
:10497000914BBAF1470F94BF9046984603232361A9
:104980002BF0040323604FF00009009733460BAA75
:104990002146284600F0D2F9013040F08D804FF0DA
:1049A000FF300DB0BDE8F08F42464B4640464946C9
:1049B000FCF7BCF840B14B46002BBCBF2D2384F85C
:1049C00043307E4A7E4BD4E763680AF0DF020692EA
:1049D0005A1C3BD1062363604BF4806200232260A3
:1049E00003930AABCDE901A309AB0093616849ECDD
:1049F000108B0DF123032846FFF7D6FE069B09997D
:104A0000472B804629D1C81C02DB6368994241DDEF
:104A1000AAF1020A5FFA8AFA0139524604F15000FB
:104A20000991FFF726FF0A9A1318012A814623618C
:104A300002DC2268D20701D5013323619DF82330BF
:104A4000002BA2D02D2384F843309EE7069A472AF4
:104A5000C2D1002BC0D10123BDE7BAF1650FDBD96C
:104A6000BAF1660F18D1002963680BDD216113B913
:104A70002268D00702D501330B442361A1654FF0B2
:104A80000009DBE713B92268D20701D50233F4E746
:104A90000123F2E74FF0670A0A9B994205DB23687E
:104AA0002161D807EAD54B1CE7E70029D4BFC1F143
:104AB000020201221344E0E723685A0507D4236960
:104AC000424631462846B84701302BD167E7BAF154
:104AD000650F40F2DD80D4E9120100220023FBF7CC
:104AE000F3FF002833D0374A012331462846B84720
:104AF00001303FF454AFDDE90938434502DB236858
:104B0000D8070FD5DDE9042331462846B8470130E0
:104B10003FF445AF4FF0000908F1FF3804F11A0ADD
:104B2000C84509DC23689B0700F10381E0680B9B03
:104B30009842B8BF184634E701235246314628460A
:104B4000B84701303FF42BAF09F10109E8E7099BB1
:104B5000002B39DC1B4A012331462846B847013077
:104B60003FF41DAFDDE9093959EA030302D1236897
:104B7000D907D7D5DDE9042331462846B8470130A7
:104B80003FF40DAF4FF0000A04F11A0B099B5B4292
:104B9000534501DC4B4693E701235A4631462846EC
:104BA000B84701303FF4FBAE0AF1010AEEE700BF5F
:104BB000FFFFEF7F488F00084C8F0008508F0008E0
:104BC000548F0008588F0008A36DDDF828A05345C6
:104BD000A8BF5346002B994636DC4FF0000B29EA5C
:104BE000E97904F11A02A36D0693A3EB09035B456F
:104BF00031DC099B9A453ADC2368DA0737D4099BF4
:104C0000AAEB0309069BAAEB03039945A8BF9946A3
:104C1000B9F1000F33DC4FF0000829EAE97904F11B
:104C20001A0B099BAAEB0303A3EB090343457FF788
:104C300079AF01235A4631462846B84701303FF440
:104C4000AEAE08F10108ECE7424631462846B847C7
:104C50000130C2D1A3E60123314628460692B84767
:104C600001303FF49CAE069A0BF1010BBBE7DDE986
:104C7000042331462846B8470130C0D18FE6069A52
:104C80004B46424431462846B8470130C3D186E6F8
:104C9000DDF828A0BAF1010F01DCDB0736D50123CE
:104CA000424631462846B84701303FF478AEDDE948
:104CB000042331462846B84701303FF470AED4E9AA
:104CC0001201002200230AF1FF3AFBF7FDFEC0B9F2
:104CD000534608F1010231462846B84701300CD14D
:104CE0005DE601235A4631462846B84701303FF475
:104CF00056AE08F10108D045F3DB4B4604F15002F3
:104D0000DFE64FF0000804F11A0BF4E701234246F6
:104D1000E1E701234A4631462846B84701303FF4CF
:104D20003EAE08F10108E3680B995B1A4345F0DCDD
:104D3000FCE64FF0000804F11909F4E72DE9F0470B
:104D4000164698468A680B69DDF820909342B8BFF2
:104D50001346336091F8432007460C460AB10133ED
:104D600033602368990642BF336802333360256895
:104D700015F0060506D104F1190AE36832689B1A9A
:104D8000AB4226DC94F843302268003B18BF012375
:104D900092062BD404F1430241463846C8470130FD
:104DA0001ED02368226903F00603042B02BFE568C6
:104DB0003368ED1AA3680CBF25EAE5750025934218
:104DC000C4BF9B1AED1800261A34B5421AD1002030
:104DD00008E00123524641463846C847013003D116
:104DE0004FF0FF30BDE8F0870135C6E7E1185A1CE7
:104DF000302081F84300224494F8451082F8431093
:104E00000233C7E70123224641463846C8470130EE
:104E1000E6D00136D9E700002DE9FF470F7E0C9E52
:104E2000782F914680460C469A4601F1430207D8F6
:104E3000622F0AD8002F00F0D280582F00F0B980DE
:104E400004F1420684F842703AE0A7F16303152B9F
:104E5000F6D801A151F823F0B14E0008C54E000864
:104E6000414E0008414E0008414E0008414E0008E6
:104E7000C54E0008414E0008414E0008414E000852
:104E8000414E0008C54F0008EF4E00087F4F000854
:104E9000414E0008414E0008E74F0008414E00080F
:104EA000EF4E0008414E0008414E0008874F0008B1
:104EB00033681A1D1B68326004F1420684F84230E0
:104EC00001239DE033682068191D3160060601D575
:104ED0001D6803E04506FBD5B3F90050002D03DA49
:104EE0002D236D4284F8433059480A2311E021688C
:104EF0003368080653F8045B02D4490648BFADB2D4
:104F00006F2F5348336014BF0A230823002184F80D
:104F100043106668A660002EA2BF216821F004013C
:104F200021600DB9002E4BD01646B5FBF3F103FB03
:104F30001157C75D06F8017D2F46BB420D46F4D9D7
:104F4000082B0BD12368DF0708D5236961689942D4
:104F5000DEBF302306F8013C06F1FF36921B2261CA
:104F6000CDF800A04B4603AA21464046FFF7E6FED7
:104F700001304AD14FF0FF3004B0BDE8F08723681C
:104F800043F0200323603348782784F84570236872
:104F900031681F0651F8045B02D45F0648BFADB20A
:104FA0003160D90744BF43F0200323601DB11023B3
:104FB000ACE72748E9E7236823F020032360F6E7FE
:104FC0001646BDE7336825686169181D30602E06F6
:104FD0001B6801D5196002E06806FBD51980002323
:104FE00023611646BCE733681A1D32601E6862688A
:104FF00000213046FBF7ECF808B1801B6060636865
:105000002361002384F84330AAE7236932464946E6
:105010004046D0470130ADD023689B0713D4E068E9
:10502000039B9842B8BF1846A6E70123324649467B
:105030004046D04701309DD00135E36803995B1AA3
:10504000AB42F2DCEBE7002504F11906F5E700BFFF
:105050005A8F00086B8F00082DE9F04F87B0174674
:1050600003938B685A1EB2F5AE7F81BF6FF4AE75A5
:1050700003EB050B40F25D138B600B680A464FF0A3
:10508000000543F4F06342F81C3BCDE9045580462B
:105090000C4698BF4FF0000B01921646AA46A9464F
:1050A0000295A26852B13B681B784E2B64D8402B06
:1050B0003CD8A3F12B01C8B20E283AD9B9F1000FA0
:1050C00003D0236823F4807323600AF1FF3ABAF116
:1050D000010F00F21781019B9E4200F2088101201E
:1050E00007B0BDE8F08FA3F161020D2AE6D801A157
:1050F00051F822F03B520008BD500008BD50000896
:10510000BD5000089B52000873520008BD500008B3
:10511000BD50000849520008BD500008BD500008AD
:10512000BD500008BD50000801520008A3F1410223
:10513000DBE70E29C2D801A050F821F0F151000898
:10514000BD500008F151000887520008BD5000080A
:1051500099510008D7510008D7510008D7510008CD
:10516000D7510008D7510008D7510008D75100087F
:10517000D7510008D75100086E2B09D8602BB2D840
:10518000542B7BD0592B99D1072D97D108252CE092
:10519000742B73D0792BF6E72168C8051BD521F055
:1051A0008001216009F10109BBF1000F03D0013238
:1051B0000BF1FF3BA260A368013BA36023690133AD
:1051C00023617B68013B002B7B6040F387803B6859
:1051D00001333B6065E71AEB05017FF46FAF22688E
:1051E00022F4C07222600D468A4606F8013BE2E7CF
:1051F000226810067FF562AF22F080022260F4E799
:10520000BAF1000F0ED1B9F1000F0ED1226802F4ED
:10521000E061B1F5E06F08D122F4F06222604FF056
:10522000010AE2E7BAF1020F55D0012D02D0042D98
:105230007FF444AF0135EDB2D7E7BAF1010F7FF447
:105240003DAF4FF0020AD0E77DB9B9F1000F7FF40E
:1052500038AF226802F4E061B1F5E06F40F00881F8
:1052600022F4F06222600125BFE7032DE2D0052D74
:10527000DEE7022D7FF422AF0325B6E7062D7FF48B
:105280001DAF0725B1E7226891057FF517AF22F41E
:1052900020722260CDF80890A7E7226802F4A0618E
:1052A000B1F5806F06D050057FF508AFB9F1000F5A
:1052B00000F0DE80910558BF029922F4F06258BFD9
:1052C000A9EB010142F4C07258BFCDE90416226077
:1052D0004FF0000989E74FF0030A86E7D4F88031E0
:1052E00039464046984700283FF4DBAEE6E6D4F85E
:1052F0007C3116F8011D3A46404698472369013B28
:105300002361E8E66B1E062B24D8022D36D8019BBC
:105310009E427FF6E4AED4F87C3116F8011D3A4681
:10532000404698472369013B2361F0E7D4F87C317C
:105330001BF8011D3A46404698472369013B23610B
:105340000AF1FF3A5FFA8AFABAF1020FEED1033D91
:10535000EDB2761B2368DA0530D55B0511D5019BCC
:105360009E427FF6BCAED4F87C3116F8011D3A4659
:10537000404698472369013B2361F0E7AA46B346BC
:10538000DEE716F8011C2369652903F1FF3306F1F6
:10539000FF3523610CD045290AD0D4F87C313A4638
:1053A00040469847236916F8021C013BB51E23614D
:1053B000D4F87C313A46404698472E46226812F08F
:1053C000100201D000208BE63270236803F4C06322
:1053D000B3F5806F1CD1029B4B45A3EB090223D18F
:1053E00001990022404602F00BFC039B21681B68D8
:1053F00011F0020F57EC106B03F104021FD0039958
:105400000A601B68C3E90067E3680133E360D9E71A
:10541000049B002BE4D005990A230131404602F099
:105420006FFC049B059EC21A04F26F139E4228BFB4
:1054300004F5B7761049304600F0F6F8D0E711F0E1
:10544000040F03990A60DCD11D6832463B463046A2
:105450003946FBF76BFB28B1084800F0C9F985ED28
:10546000000AD1E730463946FBF7BEFB2860CBE7A0
:105470004FF0000929E600BF7C8F00081593000853
:10548000002310B50446C0E90033C0E9043383604B
:1054900081814366C2818361194608225C3000F035
:1054A00026F90D4B63620D4BA3620D4BE3620D4B6E
:1054B00023630D4B24629C4206D003F168029442A0
:1054C00002D0D0339C4205D104F15800BDE8104011
:1054D00000F08AB910BD00BF695600088B5600085D
:1054E000C3560008E75600087C050020024A03491D
:1054F000034800F069B800BF100000204183000895
:105500002000002041680C4B994210B5044601D0A0
:1055100002F016FFA168094B994202D0204602F022
:105520000FFFE168064B994204D02046BDE81040C9
:1055300002F006BF10BD00BF7C050020E40500207E
:105540004C06002010B50B4B0B4C0C4A1A60204641
:1055500000220421FFF794FF04F1680001220921D1
:10556000FFF78EFF04F1D0000222BDE810401221A7
:10557000FFF786BFB40600207C050020ED5400082C
:10558000014800F032B900BFBD060020014800F01C
:105590002DB900BFBD06002010B50446FFF7F0FF8F
:1055A000236A1BB1BDE81040FFF7F0BF044B236234
:1055B000044B1B68002BF5D1FFF7C4FFF2E700BFD7
:1055C00005550008B40600202DE9F8430746884633
:1055D00014460026D4E90195B9F1010905D52468DE
:1055E000002CF7D13046BDE8F883AB89012B07D9F1
:1055F000B5F90E30013303D029463846C04706437B
:105600006835E9E70FB407B5064904AB086853F8F5
:10561000042B8168019302F0F7FC03B05DF804EB02
:1056200004B070471C0000200EB400B59CB01DAB48
:10563000029006906FF000410948079104910949D2
:1056400053F8042B05910068019302A902F0B6FB00
:10565000029B00221A701CB05DF804EB03B0704787
:105660001C0000200802FFFF10B50C46B1F90E1017
:1056700000F06CF80028ABBF636DA3891B1823F4FE
:105680008053ACBF6365A38110BD2DE9F0411F4677
:105690008B89DB0505460C46164605D5B1F90E107B
:1056A0000223002200F040F8A389B4F90E1023F47D
:1056B0008053A38132463B462846BDE8F04100F0C6
:1056C00057B810B50C46B1F90E1000F02DF8431C78
:1056D000A38915BF606523F4805343F48053A381ED
:1056E00018BFA38110BDB1F90E1000F00DB802442F
:1056F0000346934200D1704703F8011BF9E700000D
:10570000004870475C01002038B5064D0023044670
:1057100008462B60FCF7FEFB431C02D12B6803B14B
:10572000236038BDB806002038B5074D044608464A
:10573000114600222A601A46FCF713FC431C02D1D2
:105740002B6803B1236038BDB806002038B5074D7B
:1057500004460846114600222A601A46FCF7A1FBBF
:10576000431C02D12B6803B1236038BDB80600206A
:1057700038B5074D04460846114600222A601A46ED
:10578000FCF7ACFB431C02D12B6803B1236038BD8E
:10579000B8060020014B1868704700BF1C000020AD
:1057A00070B50D4D0D4C641BA4100026A64209D106
:1057B0000B4D0C4C03F076FB641BA4100026A64294
:1057C00005D170BD55F8043B98470136EEE755F812
:1057D000043B98470136F2E7809300088093000865
:1057E000809300088493000870477047704700005A
:1057F0009FED010A704700BF0000C07F2DE9F74F01
:1058000003690C69A34207467EDB013C01F11408E1
:10581000A30000F11405009305EB8403019358F8ED
:10582000243055F8242001339A4208EB8409B2FB56
:10583000F3F62ED34FF0000AC446AE46D3465CF8CA
:10584000043B98B206FB00A0020C1B0C06FB0323D2
:10585000DEF8002080B292B2121A5A44DEF800003C
:105860004FEA134A9BB2C3EB224303EB104392B2BD
:1058700042EA0342E1454EF8042B4FEA234BDED2C5
:10588000009BEB582BB9019B043B9D421A462FD33A
:105890003C61384601F0C4F9002825DB2946002088
:1058A00058F8042BD1F800C01FFA82FE1FFA8CF3BF
:1058B000A3EB0E030344120CC2EB234202EB1C4287
:1058C0009BB243EA0243C14541F8043B4FEA224000
:1058D000E6D255F8242005EB840322B9043B9D420F
:1058E0001A460BD33C610136304603B0BDE8F08F59
:1058F0001268043B002ACBD1013CC6E71268043B86
:10590000002AEFD1013CEAE70020EEE700000000AA
:105910002DE9F04FC76999B08DED020B55EC104B96
:10592000229E099183460E9213937FB9102000F0B6
:10593000FDFD0246CBF81C0020B9A74BEF21A7487C
:1059400002F00EFEC0E901770760C760DBF81C308B
:10595000196859B15A684A60012393408B605846D0
:1059600000F0DAFEDBF81C3000221A602B1EB9BFF3
:1059700023F00043039300233360039F984BBCBF85
:1059800001223260BB4312D1139A42F20F731360AB
:10599000C7F31303234300F04D85239BDFF854A284
:1059A000002B00F04F850AF1030300F049BD9DED87
:1059B000027B002251EC170B00238DED0C7BFBF7D3
:1059C00083F8804658B1139A01231360239B13B1C7
:1059D000239A844B1360DFF820A200F033BD9DEDC5
:1059E0000C0B16AA17A9584601F03AFAC7F30A5643
:1059F0008146002E77D00D9BCDF85080C3F3130362
:105A0000DDE90C0143F07F5343F44013A6F2FF3667
:105A100019460022744BFAF737FC69A3D3E9002337
:105A2000FAF7EAFD68A3D3E90023FAF72FFC04464E
:105A300030460D46FAF776FD65A3D3E90023FAF761
:105A4000DBFD02460B4620462946FAF71FFC0446BA
:105A50000D46FBF781F80022074600232046294621
:105A6000FBF73CF840B13846FAF75CFD22462B467E
:105A7000FBF72AF800B9013F162F51D85B4B03EB17
:105A8000C703D3E90023DDE90C01FBF727F8002861
:105A900048D0013F00231293169B9B1B5A1E44BF04
:105AA000C3F101080023089254BF4FF00008089387
:105AB000002F39DB089B0F973B44089300230A9380
:105AC000099B092B64D8052BC4BF043B0993099B90
:105AD000A3F10203CCBF00240124032B63D8DFE829
