:020000040800F2
:10000000580F00209D0100085F220008B31C000863
:100010005D2200085B0D00085D270008000000005D
:100020000000000000000000000000004124000863
:100030005D0D000800000000612200084324000854
:10004000B7010008B7010008B7010008B7010008B0
:10005000B7010008B7010008B7010008B7010008A0
:10006000B7010008B7010008B7010008B701000890
:10007000B7010008B7010008B7010008B701000880
:10008000B7010008B7010008B7010008B701000870
:10009000B7010008B7010008B7010008B701000860
:1000A000B7010008B7010008B7010008B701000850
:1000B000B7010008B7010008B7010008B701000840
:1000C000B7010008B7010008B7010008B701000830
:1000D000B701000851270008B7010008B701000860
:1000E000B7010008B7010008B7010008B701000810
:1000F000B7010008B7010008B7010008B701000800
:10010000B7010008B7010008B7010008B7010008EF
:10011000B7010008B7010008B7010008B7010008DF
:10012000B7010008B7010008B7010008B7010008CF
:10013000B7010008B7010008B7010008B7010008BF
:10014000B7010008B7010008B7010008B7010008AF
:10015000B7010008B7010008B7010008B70100089F
:10016000B7010008B7010008B7010008B70100088F
:10017000B7010008B7010008B7010008000000003F
:10018000B7010008B7010008DFF80CD000F08AFBC7
:1001900000480047B13C0008580F0020064880473F
:1001A00006480047FEE7FEE7FEE7FEE7FEE7FEE75C
:1001B000FEE7FEE7FEE7FEE7DD2400088901000810
:1001C0002DE9F05F0546002092469B46884606468C
:1001D000814640241BE0284641464746224600F01F
:1001E00063FA53465A46C01A914110D31146184635
:1001F000224600F04AFA2D1A67EB01084F462246C4
:100200000120002100F041FA17EB00094E41201EA9
:10021000A4F10104DFDC484631462A464346BDE8E6
:10022000F09F40EA01039B0703D009E008C9121FB1
:1002300008C0042AFAD203E011F8013B00F8013BA0
:10024000521EF9D27047D2B201E000F8012B491ECC
:10025000FBD270470022F6E710B513460A46044663
:100260001946FFF7F0FF204610BD30B505462A4677
:100270000B4612F8010B13F8014B08B1A042F8D05D
:100280001CB1002802D06D1CF1E7284630BD0000EB
:1002900070B50F4D00B92868002412E00A4602E04C
:1002A0009E4203D0521C1378002BF9D1DAB22243BC
:1002B00005D02BB124B1002100F8011B04E0044655
:1002C000401C0678002EE9D12860204670BD000051
:1002D0005C0000202DE9FE4F804681EA0300C00F3C
:1002E0000C46009021F0004123F00045B8EB0200DD
:1002F000A94105D24046214690461C460B4602467F
:1003000023F00040104347D0270DC7F30A00C3F382
:100310000A510290401A019040286BDAC3F313008F
:1003200040F4801B0098924620B10023D2EB030AD0
:1003300063EB0B0B01985946C0F14002504600F0A8
:10034000A4F906460D4650465946019A00F0BCF9FC
:1003500010EB08006141002487EA115284EAE77338
:100360001A4340D0009A62B3019A012A4FEA075219
:1003700015DC001B61EB02014FF0004202EA07525C
:10038000CDE90042001C41F5801132462B4600F0B9
:100390000AFA03B0BDE8F08F40462146F9E7001B9A
:1003A00061EB0201001C41F5801300185B4120182D
:1003B000A2F5001747EB030140EAD570B6196D416D
:1003C00011E06D084FEA360645EAC0754FEA07525C
:1003D000001B61EB0201001C41F5801149084FEA46
:1003E00030000019514132462B4603B0BDE8F04FB2
:1003F00000F0CAB90098012240000023D0EB0202AD
:1004000063EBE073009821464FEAE074B8EB00001C
:1004100061EB0401E9E783F000435BE781F0004111
:1004200058E72DE9FE4F81EA030404F0004421F06F
:10043000004100944FF0000B23F0004350EA010408
:100440005ED052EA03045BD0C3F30A54C1F30A55E9
:100450002C44A4F2F3340194A0FB0254C1F3130121
:1004600041F48011C3F3130343F4801301FB0244EE
:1004700000FB034E840A970A44EA815447EA8357F3
:10048000A4FB076802958D0A05FB07854FEA932CAC
:1004900004FB0C542705029D4FEA065847EA16371D
:1004A000B5EB08056EEB070C870E920E47EA811735
:1004B00042EA8312A7FB0201B6EB0B0164EB0004D6
:1004C0002B0D43EA0C335E1844EB1C50DA465146C0
:1004D000E7FB0201C5F313044FEA0B3343EA14535D
:1004E0004FEA0432019C43EA0603A4F10C0402948F
:1004F000009CCDE900B400F056F903B0BDE8F08FE0
:1005000000200146F9E72DE9F04D81EA030404F0EB
:10051000004B21F0004514464FF0000A23F0004143
:1005200050EA050220D054EA01021DD0C5F30A5753
:100530000246C5F31303C1F31300C1F30A5640F496
:10054000801543F48013A7EB0608101BD64608F26B
:10055000FD3873EB050002D308F1010801E09218A1
:100560005B41B8F1000F03DA00200146BDE8F08DD1
:1005700000204FF48011064684460EE0171B73EBF3
:10058000050705D3121B63EB050306434CEA010C78
:1005900049084FEA300092185B4150EA0107EDD15B
:1005A00052EA030012D082EA040083EA05010843FC
:1005B00005D0101BAB4106D20122002306E0002229
:1005C0004FF0004302E06FF0010253101AEB0600F7
:1005D0004CEB085110EB0A0041EB0B01BDE8F04D6C
:1005E00000F0D2B80EB5C10F80EAE0700844CA0727
:1005F000002140F233438DE80E000A460B4600F01E
:10060000D2F803B000BD0EB540F233410291002193
:10061000CDE900110A460B4600F0C5F803B000BD55
:1006200070B5C1F30A5201F000450024C1F3130173
:1006300040F2FF3341F480119A4201DA002070BD8C
:1006400040F233439A42A2F2334203DC524200F0BA
:100650002BF800E090402C43F1D0404270BD30B503
:100660000B46014600202022012409E021FA02F570
:100670009D4205D303FA02F5491B04FA02F528440A
:10068000151EA2F10102F1DC30BD202A04DB203A64
:1006900000FA02F1002070479140C2F1200320FAD5
:1006A00003F3194390407047202A04DB203A21FAD3
:1006B00002F00021704721FA02F3D040C2F120027B
:1006C0009140084319467047202A06DBCB17203A91
:1006D00041FA02F043EAE07306E041FA02F3D04047
:1006E000C2F1200291400843194670470FB400231D
:1006F00000B589B00CA900910B996FF00042CB6056
:100700001E4B06931E4B07930423CDE901321D4A6D
:10071000089202466B46002000F070F909B05DF8BF
:1007200014FB70B586B006464FF0FF300091CDE95E
:100730000101002015460C4604903246694604A883
:10074000FFF7D4FF02460498211825B108B10846E6
:1007500000E020462860049800280DD0002A02DD21
:100760000098884208D0081B0094CDE90104324665
:10077000694604A8FFF7BAFF06B070BD350C000843
:10078000530C0008C908000810B5141E73F10004CA
:1007900008DA401C41F1000192185B411A4301D173
:1007A00020F0010010BD2DE9F04D92469B4611B19D
:1007B000B1FA81F202E0B0FA80F220329046FFF7FF
:1007C00064FF04460F4640EA0A0041EA0B01534623
:1007D0005A46084313D0114653EA010019D0C8F114
:1007E00040025046FFF760FF05460E465046594608
:1007F0004246FFF74AFF084305D0012004E02046A7
:100800003946BDE8F08D0020054346EAE0762C43EA
:1008100037430A986305E40AA0EB08000022FD0AAA
:1008200044EA47540A3002D500200146E9E70105B1
:1008300010196941DDE9084500196941BDE8F04D2D
:10084000A2E7C1F30A52C1F3130140F2FF3341F4AE
:1008500080119A4202DA00200146704740F2334389
:100860009A42A2F2334202DC5242FFF71DBFFFF769
:100870000CBF000030B5041E71F1000404DB4FF022
:100880000044404264EB0101141E73F1000405DBD7
:100890001C464FF00043524263EB0403994208BFE9
:1008A000904230BD064C074D06E0E06840F0010381
:1008B00094E8070098471034AC42F6D3FFF768FC81
:1008C0003851000858510008C0B24FF4F05100F000
:1008D000D1B900002DE9FF4F087883B09946FF2871
:1008E00005D0491C2D2804D00024002008E0002059
:1008F0000BE00124F9E700EB800003EB4000491C0A
:100900000B78FF2BF7D104B14042002302931478F7
:1009100019461D462D2C01D02B2C04D1521C2D2CF8
:1009200013D000240294AA461478FF2C0FD00A2575
:10093000A3FB057801FB05814FF0000C03FB0C11B4
:10094000521CE3194AEB0101EEE70124EAE7814476
:1009500053EA010002D019F5C87F06DA0398002196
:10096000C0E9001107B0BDE8F08F0025AE4E2F465C
:10097000DFF8B882184600F091F9CDE90001B9F12D
:10098000000002DAC9F1000400E004460023A74A8F
:100990001AEB030B42EB045A12E0E00707D02A4699
:1009A000334638464146FFF73CFD074688462A460F
:1009B000334610461946FFF734FD05460E466410CF
:1009C000002CEAD1DDE90001B9F1000F5A46534687
:1009D00006DAFFF798FD3A464346FFF794FD05E037
:1009E000FFF71FFD3A464346FFF71BFD029A0AB187
:1009F00081F00041039AC2E90001B3E72DE9FF4FFE
:100A00001F468DB0D7E901464FF0FF382E204546EE
:100A10004FF000090B90B9696D1C0E988847396A30
:100A2000824688470028F6D1BAF1FF3F0AD024F465
:100A3000D064002E11DDBAF12B0F08D0BAF12D0FC2
:100A40000BD102E0404611B08DE744F48064B969EF
:100A50006D1C0E9888478246761E6946600501D552
:100A60002D2000E02B208DF8000001F1010B0DF18D
:100A7000200809E0B9696D1C0E98884782460F98D6
:100A800044F40074761E0560002E02DDBAF1300FCA
:100A9000F0D00B998A453ED144F0800406E00F99CE
:100AA000681CA9F1010944F400740860B9696D1C5F
:100AB000761E0E98884782463028F0D02BE00B999E
:100AC0008A4505D1200603D444F08004761E18E040
:100AD000504602F0F3FB08B30DF11301761E44F407
:100AE00000748B4508D2AAF130000BF8010B2006E8
:100AF00007D5A9F1010003E0200602D409F10100A5
:100B00008146A00502D50F99681C0860B9696D1C63
:100B10000E9888478246002ED1DC53E0002E51DD2E
:100B2000BAF1650F02D0BAF1450F4BD1A00549D5F6
:100B3000B9696D1C24F44074761E0E98884782466D
:100B4000002E0CDD2B2804D0BAF12D0F07D144F470
:100B50008074B9696D1C0E9888478246761EE00540
:100B600001D52D2100E02B2108F8011BCDF82C80A8
:100B700021E00DF12901761E44F4007488450CD261
:100B8000AAF1300010F0FF0088F8000002D10B99A4
:100B9000884509D908F1010806E0E00501D5244897
:100BA00001E042F20F708146B9696D1C0E988847CA
:100BB00082460F980560002E04DD504602F07EFB51
:100BC0000028D6D1F9690E988847FF208BF80000DD
:100BD00088F800000020069007904B466A4608A956
:100BE00006A8FFF777FEA00502D46FF001002AE700
:100BF00014F0240F0AD0E00714D1DDE9061238689A
:100C0000031D3B600068C0E900120BE0DDE906014E
:100C100000F050F80146E00704D13868021D3A6040
:100C20000068016028460EE7000014400000F03F15
:100C3000F1D8FFFF426842B1016811F8013B23B1CE
:100C4000521EC0E90012184670470121C160881E7B
:100C5000704742685AB1C368016843B983688B42E0
:100C600005D0491E521CC0E90012002070474FF009
:100C7000FF3070477F2801D9002208E0064A02EBC6
:100C80005002C007127800D1120902F00F020120B1
:100C90009040084070470000F85000080EB540F240
:100CA000334202920022CDE900221346FFF77BFD7A
:100CB00003B000BD01F0004330B421F0004150EA20
:100CC000010206D00A0DA2F56072C1F31301002AD9
:100CD00002DC30BC00207047440F44EAC104C1006C
:100CE000E01830BC00EBC250AFF300800029A8BF71
:100CF0007047401C490008BF20F00100704710B445
:100D0000B0FA80FC00FA0CF050EA010404BF10BCF9
:100D1000704749B1CCF1200421FA04F411FA0CF126
:100D200018BF012121430843A3EB0C01CB1D4FEA5F
:100D300000614FEA102042BF002010BC704700EB5A
:100D4000C35010440029A4BF10BC7047401C490088
:100D500008BF20F0010010BC7047FEE7704772B674
:100D6000FEE72DE9F0410446876D00F05FF9064685
:100D700094F835000025022806D08020606584F8AC
:100D800034500120BDE8F0812068016821F016018F
:100D900001602068416921F080014161206C08B93F
:100DA000A06C20B12068016821F008010160206872
:100DB000016821F0010101600CE000F037F9801BAF
:100DC000052807D920206065032084F8350084F8C1
:100DD0003450D7E720680068C007EED194F85C1063
:100DE0003F208840B860012084F8350084F83450F2
:100DF0000020C7E790F83510022903D08021416513
:100E000001207047052180F835100068016821F045
:100E1000010101600020704780B202F093BE000023
:100E20002DE9F84FDFF8BCA10022012503264FF081
:100E30000F090AF1040BAAF1040E00BF0B6805FAB2
:100E400002F42340A34270D10F7907F00307012F6A
:100E500001D0022F16D187684FEA420806FA08FC33
:100E600027EA0C07D1F80CC00CFA08FC4CEA070C76
:100E7000C0F808C04768A7430C79C4F30014944035
:100E80003C4344600C79E443A4070AD0C4684FEAA9
:100E9000420C06FA0CF7BC438F6807FA0CF727439D
:100EA000C7600C7904F00304022C12D1D40800EBC3
:100EB000840CDCF820405707FF0E09FA07F824EAF3
:100EC0000804D1F8108008FA07F848EA0408CCF8BA
:100ED000208004684FEA420C06FA0CF7BC430F79F5
:100EE00007F0030707FA0CF7274307604C6814F470
:100EF000403F70D03C4C276847F480472760246807
:100F000022F0030704F480440094384C07EB040CEF
:100F1000DCF8084897074FEA177809FA08F7BC4346
:100F2000334FB84202D1002724E054E0314FB84299
:100F300001D101271EE0304FB84201D1022719E04C
:100F40002E4FB84201D1032714E02D4FB84201D1F2
:100F500004270FE02B4FB84201D105270AE02A4FA2
:100F6000B84201D1062705E0284FB84201D1072732
:100F700000E0082707FA08F72743CCF80878DAF8E2
:100F800000405746D1F804C09C435FEACC2C00D502
:100F90001C433C60DBF800405F46D1F804C09C4332
:100FA0005FEA8C2C00D51C433C60DEF8004077469D
:100FB000D1F804C09C435FEA8C3C00D51C433C60E4
:100FC000084F083F3C68D1F804C09C435FEACC3C22
:100FD00000D51C433C60521C102AFFF42FAFBDE823
:100FE000F88F0000083C01404438024000300140C6
:100FF000000002400004024000080240000C0240D1
:10100000001002400014024000180240001C024080
:10101000426921EA02030A4043EA024181617047C2
:101020000AB1816170470904FBE70000014880684C
:10103000704700004800002002488168027811448F
:1010400081607047480000200B4810B5016841F4EA
:1010500000710160016841F480610160016841F440
:1010600080710160032000F06FF8002000F006F8A6
:1010700000F024F8002010BD003C024070B50D4D7A
:1010800004464FF47A712878B1FBF0F00A490968F8
:10109000B1FBF0F000F0F6FB48B9102C07D20022AB
:1010A0002146501E00F030F800206C6070BD012019
:1010B00070BD000048000020540000200A4808B518
:1010C000016841F480410160006800F480400090B4
:1010D0000548001F016841F080510160006800F080
:1010E0008050009008BD000044380240002809DB11
:1010F00000F01F02012191404009800000F1E02032
:10110000C0F8001170470000F0B40E4B1B680C468D
:10111000C3F30223C3F10705042D00D90425191DCB
:10112000072901D2002300E0DB1E012606FA05F1A3
:10113000491E214099409E40761E16403143F0BC26
:1011400001F03ABB0CED00E0064900F00702086828
:101150004FF6FF03184040EA0220034A104308609C
:10116000704700000CED00E00000FA052DE9F047A3
:101170000E46050065D0DFF81481D8F80000F7B2FC
:1011800000F00700B04207D288F80070D8F80000DD
:1011900000F00700B04254D128683D4C810712D5B9
:1011A000400703D5206840F4E0502060287800070D
:1011B00003D5206840F4604020602068A96820F0D2
:1011C000F000084320602878C0072DD030496868B7
:1011D0000839012812D0022813D0032811D0096839
:1011E000890700292DDA216821F0030101432160DC
:1011F000FFF71CFF814641F2883A0EE00968890337
:10120000EFE709688901ECE7FFF710FFA0EB0901A0
:10121000514502D90320BDE8F0872068696800F0D5
:101220000C00B0EB810FEFD1D8F80010404601F070
:101230000701B14207D90770006800F00700B0420B
:1012400001D00120E7E72878400705D52068E96844
:1012500020F4E050084320602878000706D5206875
:10126000296920F4604040EAC100206000F038F8AD
:101270002168084AC1F30311515CC840064908605F
:1012800006480068FFF7FAFE0020C4E7003C024071
:1012900008380240BC4F0008540000204C000020D9
:1012A0000448054900680968044AC1F38221515C79
:1012B000C84070475400002008380240CC4F000856
:1012C0000448054900680968044AC1F34231515C89
:1012D000C84070475400002008380240CC4F000836
:1012E000154810B5006810F00C02144813D04110D6
:1012F000042A0FD0082A0ED10F4C241F226823681D
:1013000002F03F025B0207D52068C0F38810A0FB03
:10131000010106E0084610BD2168C1F38811A1FB58
:1013200000010023FEF74CFF2168C1F30141491C75
:101330004900B0FBF1F010BD083802400024F40071
:101340002DE9F84F04006ED02078DFF84C93C007E9
:10135000A9F104054AD009F104000168C1F3810133
:10136000012908D00068C0F3810002280AD1D9F809
:101370000000400206D52868800337D56068002841
:10138000E1D033E06068B0F5803F10D0B0F5A02F19
:10139000286810D020F480302860286820F480204D
:1013A00028606068A8B1FFF741FE06460DE0286896
:1013B00040F48030F4E740F480202860F7E700BF75
:1013C000FFF734FE801B642873D828688003F7D5A4
:1013D0000CE0FFF72BFE064605E000BFFFF726FEF8
:1013E000801B6428F0D828688003F7D42078DFF8C1
:1013F000AC8280074FF0000A3ED5A748001D016867
:1014000011F00C0F08D00068C0F3810002280BD146
:10141000D9F80000400207D42868800716D5E06894
:10142000012800D112E033E1E068B8B10120C8F82A
:101430000000FFF7FBFD064605E000BFFFF7F6FDE5
:10144000801B0228C0D828688007F7D52868216942
:1014500020F0F80040EAC10028600DE0C8F800A0C4
:10146000FFF7E4FD064604E0FFF7E0FD801B0228DD
:101470001FD828688007F7D42078000722D5864F28
:1014800087486169703771B101210160FFF7CEFDB6
:10149000064604E0FFF7CAFD801B022809D8386819
:1014A0008007F7D50EE0C0F800A0FFF7BFFD0646A5
:1014B00005E082E0FFF7BAFD801B02287DD838687E
:1014C0008007F7D42078400768D5DFF8CCB1002733
:1014D0000BF13C0BDBF80000C0000BD4DBF8001074
:1014E00041F08051CBF80010DBF80000012700F03C
:1014F000805000906B4E3068C00510D4306840F4C6
:1015000080703060FFF792FD009005E0FFF78EFDE0
:101510000099401A022850D83068C005F6D55E4EB2
:10152000A0686C3601280FD00528306810D020F054
:1015300001003060306820F004003060A068B8B16D
:10154000FFF774FD00900FE0306840F00100F4E711
:1015500040F004003060F7E7FFF768FD0099411A9A
:1015600041F28830814266D830688007F4D50EE0B9
:10157000FFF75CFD009007E0FFF758FD0099411A66
:1015800041F28830814256D830688007F4D42FB1B8
:10159000DBF8001021F08051CBF80010A069C8B32F
:1015A0003D49091D0968C1F3810102294AD0022879
:1015B000504607D0C8F8600000E03CE0FFF736FD79
:1015C00004463BE04746C8F86000FFF72FFD06469B
:1015D00005E000BFFFF72AFD801B02282BD82868F2
:1015E0008001F7D4D4E907010843A16A2E4A4908CB
:1015F00002EB0141626A41EA8211084394F82C101F
:1016000040EA0161C9F8001001203866FFF70EFDBD
:10161000044606E03EE000BFFFF708FD001B02287D
:1016200009D828688001F7D534E000BFFFF7FEFC39
:10163000001B022802D90320BDE8F88F286880012A
:10164000F4D427E00128F7D0D9F80000E26900F4CB
:10165000800191421CD1226A00F03F01914217D1D2
:1016600047F6C071626A0140B1EB821F10D1A26AD5
:101670004FF0FF3300F4403103EB5202B1EB024F65
:1016800006D194F82C1000F07060B0EB016F01D01F
:101690000120D1E70020CFE7043802400000474294
:1016A000800E4742007000400000FFFF70B504004C
:1016B00009D0606A002540B125616561A56294F892
:1016C000510040B10CE0012070BD6068B0F5827F30
:1016D000F4D0E561F2E784F85050204600F044F879
:1016E000022084F851002068016821F04001016067
:1016F000A088218900F4827001F404410843A18983
:1017000001F400610843217C01F002010843217DBE
:1017100001F001010843218B01F400710843217F8E
:1017200001F03801084394F8201001F080010843CB
:10173000218D01F40051084321680860A06904214B
:1017400001EA104094F8241001F0100108432168C8
:1017500048602068C16921F40061C16165650120AC
:1017600084F85100002070BD2DE9F04786B0044692
:1017700014216846FEF76EFD3E492068884275D107
:101780003D480024016841F400410160006800F414
:101790000040059038481038016841F002010160AE
:1017A000016801F002010591016841F00201016048
:1017B000016801F002010591016841F00801016032
:1017C000016801F008010591016841F0080101601C
:1017D000016801F008010591016841F0080101600C
:1017E0000068022500F0080005900820CDE90005FA
:1017F0000320CDE902400620204E04906946304681
:10180000FFF70EFB2020009069463046FFF708FBEB
:10181000AF020126DFF868A0CDE9007669465046A0
:10182000CDE90245FFF7FCFA4FF40058CDF80080EF
:10183000CDE90164694650460394FFF7F1FA4FF48D
:101840008059CDE9009669465046CDE90245FFF73B
:10185000E7FA012249465046FFF7E2FB08481830F4
:101860000760002241465046FFF7DAFB06B0BDE8AC
:10187000F0870000003C0040403802400004024075
:10188000000C024010B5401EB0F1807F01D3012052
:1018900010BD4FF0E02460610F21601700F08CFF55
:1018A0000020A06107202061002010BD7047704714
:1018B000F8B5016804460868CA684B6910F00F0F54
:1018C0004FF0000559D003F0010602F4907737433A
:1018D00065D0C10705D0D10503D5616C41F0010188
:1018E0006164410705D5D90703D0616C41F002015D
:1018F0006164810705D5D90703D0616C41F004010B
:101900006164010707D502F02001314303D0616C07
:1019100041F008016164616C00293AD0800604D569
:10192000900602D5204600F010FE20684069616CE8
:10193000C0F38010090700D460B3204600F0DEFD3C
:1019400020684069400621D52068143050E8001F07
:1019500021F0400140E80012002AF5D1E06BA8B167
:101960006E490165E06BFFF745FA002811D0E06B86
:10197000016D01B0BDE8F040084783060FD593061E
:101980000DD52046BDE8F84000F0DFBD2046FFF74A
:101990008EFFF8BD2046FFF78AFF6564F8BD266B11
:1019A0002023012E7DD1C6067BD5D60679D50868C1
:1019B0004868009048694FF00206400641D5E16B47
:1019C000086840680004000CE8D0A28D8242E5D986
:1019D000E085C869B0F5807F2DD020680C3050E8D4
:1019E000001F21F4807140E80012002AF5D1206820
:1019F000143050E8001F21F0010140E80012002AD5
:101A0000F5D12068143050E8001F21F0400140E873
:101A10000012002AF5D184F84230256320680C308A
:101A200050E8001F21F0100140E80012002AF5D113
:101A3000E06BFFF796F96663A08DE18D401A81B2E5
:101A40002AE0A08DE18D401A81B2E08D0028A5D05A
:101A50000029A3D022680C3252E8000F20F49070C5
:101A600042E80007002FF5D12068143050E8002F1D
:101A700022F0010240E80027002FF5D184F842301F
:101A8000256320680C3050E8002F22F0100240E857
:101A90000023002BF5D166632046FFF707FFF8BD52
:101AA000FFE705062BD5150629D594F84100212816
:101AB000F5D1A068B0F5805F01D12069B0B1206A8E
:101AC000411C2162216800784860E08C401E0004BF
:101AD000000CE084E3D12068C16821F08001C1607E
:101AE0002068C16841F04001C160D8E7206A0088E1
:101AF000C0F308004860206A801C2062E5E74006C9
:101B0000CDD55006CBD5CA68204622F04002CA6027
:101B100084F8413000F0CCF8C1E70000ED24000863
:101B200070B5040004D094F84100002510B106E01F
:101B3000012070BD84F84050204600F023F8242096
:101B400084F841002068C16821F40051C16020463A
:101B500000F05CFD2068016921F49041016120687A
:101B6000416921F02A0141612068C16841F40051B6
:101B7000C1606564202084F8410084F842006563F8
:101B8000002070BD10B586B0044614216846FEF7EB
:101B900061FB18492068884229D117480021026852
:101BA00042F010020260006800F010000590124838
:101BB0001438026842F001020260006800F001007F
:101BC00005904FF4C06000900220CDE90101032090
:101BD00003900720049069460848FFF721F9002286
:101BE00011462520FFF790FA2520FFF77FFA06B06F
:101BF00010BD0000001001404438024000000240C7
:101C000090F84230202B01D00220704721B11AB148
:101C10000023036300F080BD012070472DE9F041EF
:101C20001F49884239D1204D1E4C00272888215C4D
:101C30000A290DD0401C80B22880FF2800D92F80AF
:101C400028882118BDE8F04101221548FFF7D8BFC8
:101C50004FF400511548FFF7DBF920782428EED126
:101C600060784728EBD1A0784E28E8D1E078472863
:101C7000E5D120794728E2D160794128DFD10949AF
:101C80002A88A1F5A276B01C521CFEF7CAFA288851
:101C90003044C77001203070D1E7BDE8F08100000A
:101CA000CC080020580A00205800002000080240FC
:101CB0007047FEE72DE9F047254D0026B0462E700F
:101CC0000CE05EB1641C23A12046FEF7CEFA0700AB
:101CD0000AD0012E0ED0062E22D116E01DA1A81C7E
:101CE000FEF7C3FA04002DD11BA2B921012000F098
:101CF000F3F827E03A1B914621461B48FEF791FA7C
:101D000009EB050181F802810AE017483A1B914668
:101D100021461430FEF785FA09EB050181F816819A
:101D200095F816013C46312802D030280AD102E04D
:101D30000120687006E00DA2B921012000F0CCF866
:101D400085F80180761CF6B2072EBAD3BDE8F0877D
:101D5000140900202C000000507261736520457248
:101D60007270722100000000160A00204461746144
:101D700020697320696E76616C696421000000003F
:101D800070B5234C0021A089401E83B26089401E9B
:101D900082B2084600F0BEF8A4F6580001680B684D
:101DA0004FF6BF7213400B6001680B6843F4006389
:101DB0000B6001680B6843F040030B60154B4FF05C
:101DC00000611960002107E006686568F560056834
:101DD000AE68B607FCD5491C6589A68975438D4256
:101DE000F2D801688C682406FCD44FF400641C60AF
:101DF0000B6813400B6001680A684FF2FF731A40CA
:101E00000A600068016841F04001016070BD000097
:101E1000BC080020180C02402DE9F05F0023203A96
:101E200002F0FF0B284A824689464FF000601C46AC
:101E300019461060DFF894E0254EDEF8000026E039
:101E40000768DFF890C00BFB0272BCF80070BCF8AA
:101E500004C09D5C0022BFB21FFA8CFC5FEAC5780B
:101E600002D026F8147001E026F814C0641C491C46
:101E7000B0F804806D0889B2A4B2884501D1002170
:101E800003E0521C92B2082AE8D35B1C9BB2028981
:101E90009A42D5D8C288A9F1010111448BB2818838
:101EA000AAF10100084482B274464946504600F047
:101EB00031F820688188C088BDE8F05F414389B26D
:101EC000034800F0CBB80000180C024010000020BE
:101ED000BC000020BC0800202DE9F04115468846D2
:101EE00004460A4F0A4E08E041462046FFF794FF99
:101EF00038686D1C8088204484B27089A04202D961
:101F00002A78002AF0D1BDE8F081000010000020FE
:101F1000BC0800202DE9F047194D80464FF00060C5
:101F2000994616460F4628602A2000F0D5F8154C31
:101F3000A17B01EB080080B200F0F2F8A07B3044F6
:101F400080B200F0EDF82B2000F0C6F8E07B3844BA
:101F500080B200F0E5F8E17B01EB090080B200F00F
:101F6000DFF82C2000F0B8F8A4F65800006881686B
:101F70000906FCD44FF400602860BDE8F08700003B
:101F8000180C0240BC0800204FF478414FF4FC626A
:101F900001EA102102EA5012C0F3C40011430143C8
:101FA0000148416070470000BC0800204FF47841B0
:101FB0004FF4FC6201EA102102EA5012C0F3C4009F
:101FC000114301430148016070470000BC08002034
:101FD0002DE9F0411E4CDFF87C804FF0006260720A
:101FE000C8F800200026F02538B102280AD0502772
:101FF00001281CD0032822D00EE0362000F06CF817
:10200000702003E0362000F067F8002000F098F818
:10201000A673E6736581A5810F480068816809068B
:10202000FCD44FF40061C8F80010BDE8F081362000
:1020300000F052F8A02000F083F8A773E9E73620FB
:1020400000F04AF8C02000F07BF8A673E773E1E7E0
:10205000BC080020180C024064000020F0B51C4AA7
:1020600013681D684FF6BF7425401D6013681D6816
:1020700045F400651D6013681D6845F040051D604E
:10208000144D4FF000632B60002308E0176830F810
:102090001360FE601668B768BF07FCD55B1C8B42F7
:1020A000F4D3106881680906FCD44FF400612960FC
:1020B000016821400160106801684FF2FF73194008
:1020C00001601068016841F040010160F0BD00004E
:1020D00064000020180C02402DE9F0410E4C074628
:1020E000206881680906FCD40C4E4FF4805500220C
:1020F00029463046FEF794FF2068C7602268906842
:102100008007FCD590680006FCD429463046BDE81F
:10211000F0410122FEF784BF64000020000C024061
:102120000649020A0B68DA600A6893689B07FCD5C7
:10213000D060086881688907FCD57047640000207A
:1021400003490A68D060086881688907FCD5704730
:102150006400002070B586B014216846FEF77AF856
:102160001A480024016841F004010160016801F08F
:1021700004010591016841F080010160016801F0EE
:1021800080010591016841F001010160016801F0E1
:1021900001010591016841F00201016000680C4EE7
:1021A00000F002004FF40055059000222946304609
:1021B000FEF736FF01200095CDE90104694630465F
:1021C0000394FEF72DFE06B070BD000030380240CB
:1021D0000008024010B5124C10484FF40071206006
:1021E0004FF4827060604FF40040A0600020E06017
:1021F0002061C4E90501E06120626062A062E062E2
:102200002046FFF753FA2068016841F04001016061
:102210002068016841F48041016010BD003C00402D
:10222000640000200C4810B50A4901604FF4E13108
:102230004160002181600C22C160C0E9041281610B
:10224000C161FFF76DFC002803D0BDE81040FEF728
:1022500086BD10BD00100140CC080020FEE7FEE75F
:102260007047000010B5FFF7B5FF0A20FEF7D4FD58
:102270006E4C4FF0006020603620FFF72DFF0020ED
:10228000FFF75EFF3A20FFF727FF0520FFF758FF13
:10229000B220FFF721FF0C20FFF752FF0C20FFF7C1
:1022A0004FFF0020FFF74CFF3320FFF749FF33209B
:1022B000FFF746FFB720FFF70FFF3520FFF740FF7E
:1022C000BB20FFF709FF1920FFF73AFFC020FFF7F7
:1022D00003FF2C20FFF734FFC220FFF7FDFE012093
:1022E000FFF72EFFC320FFF7F7FE1220FFF728FFAE
:1022F000C420FFF7F1FE2020FFF722FFC620FFF7E2
:10230000EBFE0F20FFF71CFFD020FFF7E5FEA42017
:10231000FFF716FFA120FFF713FFE020FFF7DCFE19
:10232000D020FFF70DFF0420FFF70AFF0D20FFF775
:1023300007FF1120FFF704FF1320FFF701FF2B20F9
:10234000FFF7FEFE3F20FFF7FBFE5420FFF7F8FEED
:102350004C20FFF7F5FE1820FFF7F2FE0D20FFF7E7
:10236000EFFE0B20FFF7ECFE1F20FFF7E9FE232016
:10237000FFF7E6FEE120FFF7AFFED020FFF7E0FE1B
:102380000420FFF7DDFE0C20FFF7DAFE1120FFF737
:10239000D7FE1320FFF7D4FE2C20FFF7D1FE3F20FD
:1023A000FFF7CEFE4420FFF7CBFE5120FFF7C8FE1B
:1023B0002F20FFF7C5FE1F20FFF7C2FE1F20FFF7EB
:1023C000BFFE2020FFF7BCFE2320FFF7B9FE21202F
:1023D000FFF782FE1120FFF77FFE7820FEF71CFD3D
:1023E0002920FFF779FE1248006881680906FCD4AD
:1023F0004FF4006020600220FFF7EAFD0020FFF7A5
:10240000C3FD6FF07F40FFF7D1FDFFF7B9FC0A492C
:102410000848012208600949002008720348510356
:10242000BDE810401838FEF7FBBD0000180C024054
:10243000640000200400002010000020BC080020E0
:102440007047FEF7F9BD000030B593B03021684603
:10245000FDF700FF14210CA8FDF7FCFE1D48002528
:10246000016841F080510160006800F080501190D7
:102470001948016841F4804101600068022400F4B9
:102480008040119001200390102004900094069445
:102490000820CDE90750A820CDE9090404200B90BD
:1024A0006846FEF74DFF08B172B6FEE70CA90F2093
:1024B00081E831004FF4A0500F904FF480501090FD
:1024C00005210CA8FEF752FE002801D072B6FEE7E7
:1024D00013B030BD4038024000700040024801682F
:1024E00041F470010160704788ED00E010B5806B29
:1024F0000021C185C184FFF7DAF910BD01680C31F4
:1025000051E8002F22F4907241E80023002BF5D10E
:102510000168143151E8002F22F0010241E8002344
:10252000002BF5D1016B012909D101680C3151E86B
:10253000002F22F0100241E80023002BF5D12021CA
:1025400080F8421000210163704708B590F84210EE
:10255000222901D0022008BD82684FF480539A429C
:1025600001D1016921B1816A9A421BD04AB10AE0C6
:102570000268816A5268C2F308020A80816A891C73
:1025800008E0026972B10268526802F07F020A70C4
:10259000816A491C8162C18D491E0904090CC185EB
:1025A00003D01BE002685268F1E70168CA6822F0B4
:1025B0002002CA600168CA6822F48072CA60016899
:1025C0004A6922F001024A61202180F8421000216C
:1025D0004163026B012A03D0FFF720FB002008BDF6
:1025E000016301680C3151E8002F22F0100241E82C
:1025F0000023002BF5D101680A68D20602D50A68CB
:1026000049680091818DFFF751F9E7E770B50446FD
:1026100000680169E26821F44051114301612169B8
:10262000A068E26908436169114308432168CA68E8
:1026300049F20C639A430243CA6020684169A26967
:1026400021F440711143416131492068884202D030
:102650003049884202D1FEF733FE01E0FEF720FE4A
:10266000E2690023192164253226B2F5004F626821
:1026700028D0A0FB0101930F9200FDF7A1FD0146B8
:10268000B0FBF5F06FF01802504301EB800006EB51
:102690000010B0FBF5F000F0F002B1FBF5F002EB3A
:1026A0000012B1FBF5F06FF01803584301EB800006
:1026B00006EB0010B0FBF5F000F00F0021681044AD
:1026C000886070BDA0FB010192185B41FDF778FDA9
:1026D0000146B0FBF5F00201B1FBF5F06FF0180315
:1026E000584301EB800006EBC000B0FBF5F000F0B2
:1026F000F80002EB4002B1FBF5F0584301EB80001B
:1027000006EBC000B0FBF5F000F00700D6E70000D4
:10271000001001400014014081628285C2850021C1
:102720004164222180F84210016921B10168CA6820
:1027300042F48072CA6001684A6942F001024A614B
:102740000068C16841F02001C160002070470000AE
:102750000148FFF7ADB80000CC080020FEE70000FC
:102760000FB4084B10B504A902AA039800F0AEFDFF
:10277000044602A9002001F040F9204610BC5DF893
:1027800014FB0000FB39000803B4019841000098D5
:1027900050EAC12018BF04204A0D18BF40F00100C4
:1027A00040F2FF72B2EB515F08BF40F00200012817
:1027B00008BF052002B070470907090E002804DB96
:1027C00000F1E02080F80014704700F00F0000F1E5
:1027D000E02080F8141D704730B583B0044600F047
:1027E0008FFC9FED090B05468DED000B0022214665
:1027F0006846FDF796FF284600F098FC9DED000B1B
:1028000003B030BD00000000000000000000000028
:1028100010B52F499FED2C1B2DED020B84B00598B0
:1028200020F000408842D8BF9DED040B2DDD2949E2
:10283000884209D1049840B94FF0010000F076FCBD
:1028400000F03EFC06B010BD05DB9DED040B00F072
:102850002BFC06B010BD68469DED040B00F03CF863
:1028600010F0030004BF9DED021B9DED000B0CD08A
:1028700001280ED09DED021B9DED000B022817D004
:10288000012000F079FB06B010BD00F041FA06B05F
:1028900010BD9DED021B9DED000B012000F06CFBB7
:1028A00051EC100B81F0004106B041EC100B10BD53
:1028B00000F02EFA51EC100B81F0004106B041EC13
:1028C000100B10BD00000000000000000000000020
:1028D000FB21E93F0000F07F2DE9F14F04462DED8B
:1028E000020B2DED088B8AB09FEDE70B80ED020BFC
:1028F000139EE74826F0004585420ADC9DED120B49
:10290000002084ED000B0AB0BDEC088B03B0BDE8DD
:10291000F08FE0489FEDE0AB9FEDE1BBA84247DDC3
:10292000E14F9FEDE39B9FEDE48B9DED120B53EC8C
:102930001A2B51EC100B002E1CDDFDF76CFD41EC49
:10294000100BBD4208D053EC1B2B51EC100BFDF7C4
:1029500062FDC4E900010BE053EC192B51EC100BA4
:10296000FDF759FD53EC182BFDF755FDC4E90001A7
:102970000120C8E7FDF7AEFC41EC100BBD4208D0CA
:1029800053EC1B2B51EC100BFDF7A4FCC4E9000128
:102990000BE053EC192B51EC100BFDF79BFC53ECA7
:1029A000182BFDF797FCC4E900014FF0FF30AAE7B0
:1029B000C348A84279DB9DED120B51EC100B01F0DE
:1029C0006BF941EC180B9FEDC00B53EC102BFDF78E
:1029D00028FD9FEDBF1B53EC112BFDF77BFCFDF792
:1029E0001FFE0746FDF7FEFD41EC190B53EC1A2BB9
:1029F000FDF717FD53EC182BFDF710FD41EC180BFC
:102A000053EC1B2B51EC190BFDF70BFDDFF8C8A2A3
:102A100041EC100B4FEA15580125FA4453EC102BEA
:102A200051EC180BFDF7F7FC032DC4E900013DD074
:102A3000C1F30A5005EB4511A8EB000011398142A2
:102A400034DA0AEB051BB0EE48AA9BED000BF0EE62
:102A500068AA53EC102B51EC190BFDF7E2FC41EC8A
:102A60001B0B51EC1A0B53EC1B2BFDF7D4FC41EC68
:102A7000180B51EC1A0B53EC182BFDF7CCFC53EC54
:102A80001B2BFDF7C8FC9BED020B41EC1A0B53EC22
:102A9000102B51EC190BFDF7C4FC53EC1A2BFDF76E
:102AA000BAFC41EC100B6D1CB8E70EE0002EA8BF7D
:102AB0003846BFF628AF94ED000B51EC100B81F0B7
:102AC0000041C4E9000178421DE7C6F3130040F459
:102AD000801EC6F30A50A0F2F530471100F01F0522
:102AE000C5F12000DDF848B008900020069007905E
:102AF0000520EC467949002D07EB0002794408BF18
:102B000051F8221009D051F8223001EB8201AB407C
:102B10004A68089922FA01F11943A1FB0E26A1FB8C
:102B20000B131A449A4234BF0123002303EB060817
:102B30000CEB8003D3E901A60E448E4234BF012181
:102B4000002192448A4411B1924502D903E0924592
:102B500001D2012100E00021C3E901A641444CF863
:102B60002010011EA0F10100C4DC029800F1005009
:102B7000850F0298DDE903678000DDF81480FDF71A
:102B800031FD41EC1A0B3046FDF73DFD9FED541B26
:102B900053EC112BFDF745FC41EC1B0B3846FDF7C0
:102BA00032FD9FED511B53EC112BFDF73AFC41EC2C
:102BB000180B4046FDF727FD9FED4D1B53EC112BE5
:102BC000FDF72FFC41EC190B51EC180B53EC192BB2
:102BD000FDF780FB53EC1B2BFDF77CFB53EC1A2B12
:102BE000FDF778FBCDE90801002008909DED080B6A
:102BF00053EC1A2B51EC100BFDF70DFC53EC1B2B77
:102C0000FDF709FC53EC182BFDF705FC53EC192BD1
:102C1000FDF704FC9FED381B53EC112BFDF701FC75
:102C20009FED370B41EC180B53EC102B9DED080B6F
:102C300051EC100BFDF7F5FB53EC182BFDF74AFB9D
:102C40009FED310B41EC180B53EC102B9DED080B55
:102C500051EC100BFDF7E5FB53EC182BFDF73AFB9D
:102C600041EC100B139810F0004F06D06D4251EC60
:102C7000100B81F0004141EC100B284684ED000B55
:102C800041E600000000000000000000000000001D
:102C9000FB21E93F7CD9024000004054FB21F93F71
:102CA0003163621A61B4D03DFB21F93F000000009E
:102CB0000000601A61B4D03D7370032E8A19A33BE3
:102CC000FB2139410000000083C8C96D305FE43F3B
:102CD000000000000000E03FEA2500003825000069
:102CE000000000000000103E000000000000103C4A
:102CF000000000000000103A182D4454FB21F93D5B
:102D00003326A611460B113C00000054FB21F93D6F
:102D100010B52DED040B2DED088B82B0B0EE419A6D
:102D2000F0EE619A0B9820F000449FED4BABB4F1AC
:102D3000795F11DA9DED0A0B51EC100BFDF770FC79
:102D4000002801BFB0EE4A0AF0EE6A0A02B0BDECFC
:102D5000088B04BF04B010BD9DED0A0B53EC102B83
:102D600051EC100BFDF75DFB41EC180B3C480621C4
:102D7000B0EE480AF0EE680A784400F081F853ECAF
:102D8000182B51EC100BFDF74CFB9DED0A0B41ECA1
:102D90001B0B53EC192B51EC100BFDF742FB41ECD4
:102DA000190B53EC1B2B51EC180BFDF73AFB53ECB2
:102DB000192BFDF730FB9FED2C0B41EC190B53EC5D
:102DC000102B51EC180BFDF72CFB41EC100B284895
:102DD000844210DA53EC192B51EC100BFDF71BFB5E
:102DE00053EC1A2BFDF71AFB41EC100B02B0BDECB3
:102DF000088B04B010BD1F48A042BCBF9FED1E1B36
:102E00008DED001B06DBA4F5001001900020009062
:102E10009DED001B51EC100B53EC112BFDF7FBFA51
:102E20009DED000B41EC180B53EC102B51EC1A0BE1
:102E3000FDF7F1FA41EC1A0B53EC192B51EC180B7E
:102E4000FDF7E9FA53EC1A2BFDF7E8FA41EC100B09
:102E5000CCE7000000000000000000000000F03F90
:102E60005C22000000000000000000000000E03FC5
:102E70003333D33F0000E93F000000000000D23FA1
:102E800070B504462DED028B4D1E00EBC500B0EE73
:102E9000408AF0EE608A90ED000B35F0060017D006
:102EA00053EC182B51EC100BFDF7BBFA41EC100B57
:102EB0006D1E04EBC50090ED001B51EC100B53ECA4
:102EC000112BFDF707FA41EC100B35F00600E7D1A6
:102ED000022D36D0042D1CD0062D1CBFBDEC028B5C
:102EE00070BD53EC182B51EC100BFDF79AFA94EDD2
:102EF0000A1B53EC112BFDF7EDF953EC182BFDF7E2
:102F000090FA94ED081B53EC112BFDF7E3F941EC1B
:102F1000100B53EC182B51EC100BFDF782FA94EDCB
:102F2000061B53EC112BFDF7D5F953EC182BFDF7CD
:102F300078FA94ED040B53EC102BFDF7CBF941EC30
:102F4000100B53EC182B51EC100BFDF76AFA94EDB3
:102F5000021B53EC112BFDF7BDF953EC182BFDF7B9
:102F600060FA94ED001B53EC112BFDF7B3F9BDECA7
:102F7000028B41EC100B70BD31B504462DED040BF6
:102F80002DED0A8BB0EE41BAF0EE61BA0B989DEDD3
:102F90000A0B20F00040B0F1795F0DDA51EC100B14
:102FA000FFF7F2FB042808BF00F09AF89DED0A0B2A
:102FB000BDEC0A8B05B030BD53EC102B51EC100B5F
:102FC000FDF72FFA41EC180B9DED0A0B53EC182B73
:102FD00051EC100BFDF725FA41EC190B2C48B0EE23
:102FE000480AF0EE680A05217844FFF749FF9FED93
:102FF0002ACBB0EE40AAF0EE60AA9CB353EC1C2B97
:1030000051EC190BFDF70DFA41EC1C0B53EC1A2B8C
:1030100051EC190BFDF705FA9FED210B41EC190B53
:1030200053EC102B51EC1B0BFDF7FBF953EC192B58
:10303000FDF7F1F953EC182BFDF7F3F953EC1B2BCB
:10304000FDF7E9F953EC1C2BFDF7E5F99DED0A1BA3
:1030500053EC112BFDF7E2F9BDEC0A8B05B041EC06
:10306000100B30BDFFE753EC1A2B51EC180BFDF79A
:10307000D8F953EC1C2BFDF72DF953EC192BFDF768
:10308000D0F99DED0A1B53EC112BFDF723F9E3E773
:10309000E420000000000000495555555555C5BFB6
:1030A000000000000000E03F10B553EC102B51EC85
:1030B000100BFDF70FF941EC100B10BD00000000E4
:1030C0009FED050B10B553EC102B51EC100BFDF7D9
:1030D0001AFA41EC100B10BD0000000000000000C7
:1030E0009FED050B10B553EC102B51EC100BFDF7B9
:1030F00098F941EC100B10BD00000000000000101A
:1031000001480068704700006000002002E008C825
:10311000121F08C1002AFAD170477047002001E051
:1031200001C1121F002AFBD170470000014908604D
:1031300070470000600000202DE9FF5F82B0002191
:10314000DDE90430020DDDF840B0034318D044F649
:103150001050A2F2FF3242431514119801281FD0DB
:10316000A5EB0B00401C5FEA000A4FF000064E4F33
:10317000DFF83891B046504615D5CAF1000413E087
:10318000119801244AA3012801D16FEA0B0102988A
:10319000119AC0E90031C0E9024206B0BDE8F09FD3
:1031A000CBF10000DFE704460021404A491842EB1A
:1031B0000450CDE9001012E0E00707D032463B464C
:1031C00040464946FDF72DF98046894632463B4642
:1031D00010461946FDF725F906460F466410002CE7
:1031E000EAD1DDE90401DDE90023BAF1000F06DAD6
:1031F000FDF717F942464B46FDF713F905E0FDF7D9
:1032000082F942464B46FDF77EF904460E460022FF
:10321000284BFDF72FFB03D84FF0FF30014607E0A6
:103220000022254B20463146FDF754F8FDF709FBF7
:10323000102409E0002C0ADB0A220023FCF7C0FF5F
:10324000039B30321A55641E50EA0102F2D1641C0D
:10325000039AC4F111031444119A012A03D00122E4
:1032600008430DD10AE0084304D000204FF0110BB1
:10327000119072E7A3EB0B056D1E0DE05B4504DDBD
:103280004FF0000205F1010504E003DA4FF00002FF
:10329000A5F10105002AECD002981199C0E902318C
:1032A000C0E9004579E70000000014400000F03F4D
:1032B000300000000000F0430000E03F30380A28F2
:1032C00001D2012070470020704700002DE9FF4F18
:1032D00095B09B468946064600250FE2252877D102
:1032E00000242746F84A0121059400E0044316F81B
:1032F000013F203B01FA03F01042F7D130782A2831
:1033000011D06FF02F033078A0F13002092A16D8BF
:10331000059A44F0020402EB820203EB42021044DD
:10332000761C0590EFE759F8042B0592002A03DA82
:10333000504244F40054059044F00204761C307866
:103340002E2816D116F8010F44F004042A280DD0B7
:103350006FF02F023078A0F13003092B09D807EB6A
:10336000870302EB4303C718761CF3E759F8047B85
:10337000761C30786C280FD006DC4C2817D06828D3
:103380000DD06A2814D104E0742810D07A280FD107
:103390000DE044F400140AE044F4801401E044F425
:1033A00040147278824202D104F58014761C761C97
:1033B000307866280BD013DC582877D009DC002839
:1033C00075D04528F6D04628F4D047281AD19DE17B
:1033D00018E0632835D0642879D0652812D195E1AA
:1033E000702873D008DC6728F1D069286FD06E2868
:1033F0000DD06F2806D1B5E073282CD0752875D074
:10340000782874D05A46179990476D1C75E1C4F31B
:103410000250022809D003280DD0D9F80010042842
:103420000DD00D6009F1040967E1D9F80010EA1721
:10343000C1E90052F6E7D9F800100D80F2E70D70EF
:10344000F0E719F8041B8DF8001000208DF801003A
:10345000EA46012003E059F804AB4FF0FF30610762
:103460004FF0000102D40DE008F101018846B94295
:103470000FDA8045F8DB1AF808100029F4D108E0CB
:1034800008F1010188468142FADB1AF80810002988
:10349000F6D105985B46A0EB080721463846179AF7
:1034A00000F094FA284400EB080507E04DE029E11C
:1034B0000DE01AF8010B5A4617999047B8F1010828
:1034C000F7D25B4621463846179A13E142E00A22BA
:1034D0000092C4F302524FF0000A022A08D059F8B1
:1034E00004CB032A4FEAEC710AD00DE029E02AE070
:1034F00009F1070121F00702F2E802C1914609E053
:103500000FFA8CFC4FEAEC71042A03D14FFA8CFCC1
:103510004FEAEC71002907DA0A460021DCF1000CC1
:1035200061EB02012D2202E0220504D52B228DF849
:103530000420012203E0E20701D02022F7E79046B1
:1035400059E00A2102E010220DE010214FF0000A9C
:1035500000910BE010224FF0000A44F00404082709
:10356000009203E008224FF0000A0092C4F30252D6
:10357000022A05D059F804CB0021032A08D009E01B
:1035800009F1070121F00702F2E802C1914605E0C6
:103590001FFA8CFC042A01D10CF0FF0C4FF000083C
:1035A000220728D5702806D0009B83F0100353EA29
:1035B0000A0305D00EE040228DF80420012208E025
:1035C0005CEA010206D030228DF804208DF8050057
:1035D00002229046009B83F0080353EA0A030AD1B3
:1035E0005CEA010201D1620705D530228DF8042082
:1035F0004FF001087F1E582804D034A003900EA875
:1036000002900DE036A0F9E753466046009AFCF7B9
:10361000D7FD84460398825C0298401E0290027097
:103620005CEA0100F0D1029806A9081A00F1200A0C
:10363000600702D524F4803400E00127574502DDFD
:10364000A7EB0A0000E0002000EB0A0100900598BB
:103650004144401A0590E00306D45B462146179A80
:10366000059800F0B3F90544002706E001A85A4682
:10367000C05D179990476D1C7F1C4745F6DBE00342
:103680000CD55B462146179A059800F09FF9054432
:1036900004E030205A46179990476D1C0099481E47
:1036A00000900029F5DC08E0029802995A4600785B
:1036B000491C0291179990476D1CBAF10001AAF1BB
:1036C000010AF1DC65E100000928010030313233E4
:1036D000343536373839616263646566000000004E
:1036E0003031323334353637383941424344454638
:1036F0000000000000F058F90544761C30780028DE
:103700007FF4ECAD19B02846BDE8F08F620700D415
:10371000062709F1070222F0070CFCE80223E14624
:1037200003F000485FEA080C02D00FF2702C0DE0A5
:103730005FEA045C02D50FF2682C07E05FEAC47C04
:1037400002D00FF2602C01E0AFF2700C4FF0FF38A6
:1037500023F00043CDF850C065280CD006DC452886
:1037600009D046281DD047283DD13DE0662818D015
:1037700067287ED138E00021112F01DB112000E005
:10378000781CCDE9000106A90EA8FFF7D5FCDDE9FC
:103790000F010E9A03910021009207F1010A049192
:1037A0004DE04FF000400097CDE9011006A90EA8AA
:1037B000FFF7C2FCDDE90F0203920E9B1199002274
:1037C000DDF80CA00093049211B9791C00EB010AFA
:1037D000B7EB0A0004D4C0F1FF3007F1010A0490EE
:1037E000AAEB0700019044E0012F00DA0127002135
:1037F000112F01DD112000E03846CDE9000106A9B6
:103800000EA8FFF799FCDDE90F010E9A0391002144
:1038100004910092BA4621070CD40399514500DA6D
:103820008A46BAF1010F05DD009AAAF10101515C47
:10383000302908D0B84202DA10F1040F06DA01216B
:10384000CDE9011015E0AAF10101E9E7002805DC46
:10385000049901440491AAEB000102E0411C514586
:1038600000DD8A460499401A401C01904FF0004048
:103870000290200704D40198504501DBCDF8048064
:1038800000208DF84F0002980DF14F07B0F1004F66
:1038900025D02B200E9002984FF0020800280CDA59
:1038A000404202902D200E9007E00A210298FCF77A
:1038B000D6FE3031029007F8011DB8F10001A8F1E1
:1038C0000108F2DC02980028EFD1791E0E980870EA
:1038D000307800F0200040F0450007F8020D12A8F3
:1038E000C01B00F107081498007800B1012000EB1C
:1038F0000A01019801EBE07105984144401A401E0D
:103900000590E00306D45B462146179A059800F01F
:103910005DF805441498007818B15A4617999047F5
:103920006D1CE00324D55B462146179A059800F0EC
:103930004DF805441CE00498002807DBDDE903018D
:10394000884203DD0098405C179901E01799302008
:103950005A469047049805F10105401C04900198CF
:10396000401E019004D12E205A46179990476D1C95
:10397000BAF10001AAF1010ADDDC05E017F8010B3C
:103980005A46179990476D1CB8F10001A8F101083B
:10399000F4DC5B462146179A0598ABE62D00000043
:1039A0002B000000200000002DE9F0410446002516
:1039B0001E461746880404D405E039462020B04747
:1039C0006D1C641EF9D52846BDE8F0812DE9F04153
:1039D000044600251E469046C80301D5302700E066
:1039E0002027880404D505E041463846B0476D1CC1
:1039F000641EF9D52846BDE8F0810A68531C0B60A7
:103A00001070704700B52DED0A8B9BB0B0EE43AA45
:103A1000F0EE63AAB0EE428AF0EE628AB0EE41BAEE
:103A2000F0EE61BA00F0AEF8B0EE409AF0EE609AB7
:103A3000B0EE4B0AF0EE6B0A00F0A4F8B0EE40BA1C
:103A4000F0EE60BAB0EE480AF0EE680A00F09AF8BC
:103A5000B0EE408AF0EE608AB0EE4A0AF0EE6A0AF2
:103A600000F090F8B0EE40CAF0EE60CA53EC182BAC
:103A700051EC190BFCF7CFFC41EC1A0B53EC1C2B4F
:103A800051EC1B0BFCF7C7FC9FED23BB41EC180B63
:103A900053EC1B2B51EC1A0BFCF7C3FC9FED200BD6
:103AA00041EC1A0B53EC102B51EC190BFCF7B9FC41
:103AB0009FED1D1B53EC112BFCF725FD41EC100B6A
:103AC000FEF7A6FE53EC1B2B51EC100BFCF7A9FCE8
:103AD00041EC100B51EC180B53EC102BFCF7A1FC34
:103AE00041EC180B53EC1A2B11A16846FEF738FE77
:103AF00053EC182B0EA10DA8FEF732FE6A464121A9
:103B00000120FEF7E9F90DAA9B210120FEF7E4F957
:103B10001BB0BDEC0A8B00BD00000000B025FB40CF
:103B2000182D4454FB21094000000000008066402D
:103B3000252E36666D0000000149086070470000C0
:103B4000000000204FF47A71484300F001B80000F3
:103B500070B54FF0E024002265690949A36909683E
:103B60004843A1699942FCD002D2A3EB010302E0D1
:103B7000A5EB010633441A440B468242F1D370BDD3
:103B80000000002010B52DED028BB0EE408AF0EE63
:103B9000608A9FED130B51EC180B53EC102BFCF7C4
:103BA000B2FCFCF73DFD044664214843FCF71AFDD6
:103BB00053EC182BFCF732FC9FED0B1B53EC112B35
:103BC000FCF7A1FC41EC180B2046FCF70BFD53EC75
:103BD000182BFCF77FFBBDEC028B41EC100B10BDEA
:103BE00000000000000059400000000000004E40AE
:103BF00070B50D462DED028B0646B0EE408AF0EE14
:103C0000608A144651EC180BFCF70AFD642190FB06
:103C1000F1F030604843FCF7E5FC53EC182BFCF75F
:103C2000FDFB41EC180BFCF7FBFC2860FCF7DAFC11
:103C300053EC182BFCF7F2FB9FED051B53EC112BFB
:103C4000FCF7EFFBC4E90001BDEC028B70BD000086
:103C50000000000000004E4070B50D4616460DA154
:103C6000FCF716FB002412E0022C02D0042C05D035
:103C700008E0FEF7B1FD85ED000B03E0FEF7ACFDBB
:103C800086ED000B03A10020FCF702FB641C00285A
:103C9000EAD170BD2C00000082B0CDE9000121F016
:103CA000004001909DED000B02B051EC100B7047ED
:103CB0009CB0FDF7C9F9FEF7C7FBFEF74BFAFEF71C
:103CC000B1FAFEF7CFFAA820FFF736FF01223349F9
:103CD0003348FDF795FF4FF4A2713248FCF7BAFA6A
:103CE000304D287808B1FDF7E5FF68780028F8D056
:103CF0002D4AA81CA2F10801FFF7AEFF2A4A08329C
:103D0000A2F11C01081F044694ED040BFFF770FF9D
:103D100004F12802A2F11C01081F94ED060BFFF725
:103D200067FF94ED080B21A18DED000BD4E9002372
:103D300002A8FEF715FD94ED0A0B1CA18DED000BFA
:103D4000D4E902230FA8FEF70BFDFEF719F81AA21B
:103D5000B9210120FEF7C0F81CA205210120FEF7C1
:103D6000BBF802AA23210120FEF7B6F819A25F21B1
:103D70000120FEF7B1F80FAA7D210120FEF7ACF873
:103D80009FED162B9FED173B94ED061B94ED040B56
:103D9000FFF738FE00206870A3E70000580A0020F3
:103DA000CC080020140900203000002025645E2586
:103DB0006427256622000000446174612069732035
:103DC00075736566756C6C21000000006C61743A57
:103DD000000000006C6F6E3A000000003DF19C2D69
:103DE000B084AE40151F9F90F5DEC6400000000075
:103DF00000000000000000000000000000000000C3
:103E000000000000000000000000000000000000B2
:103E100000000000000000000000000000000000A2
:103E20000000000060006000600060006000600052
:103E30006000400020002000200000000000000082
:103E40006000600060000000000000000000000052
:103E500060066006300398018800440000000000FE
:103E60000000000000000000000000000000000052
:103E70000000000000000000000000000000000042
:103E8000000000001002100210021002FE07FE07E0
:103E900008020801080108010801FE07FE070401E5
:103EA0000401040104010000000000000000000003
:103EB000000040004000F00158034C03CC034C00CC
:103EC00058007000E000C001C00140034C035C03D7
:103ED0004C034801F00040004000000000000000DA
:103EE000000000000E010A019100910091005100B4
:103EF00051003A00AE03A0025004500448044804A4
:103F00004804840284030000000000000000000058
:103F10000000000038006C006C006C006C006C004D
:103F20002C0098071C011A01330133016301E300DF
:103F3000C308C6093C0700000000000000000000A4
:103F40000C001C001000100008000400000000001D
:103F50000000000000000000000000000000000061
:103F60000000000000000000000000000000000051
:103F7000000400020001800080004000400020009A
:103F800020002000200020002000200040004000F1
:103F9000800080000001000200040000000000001A
:103FA0000200040008001000100020002000400063
:103FB0004000400040004000400040002000200041
:103FC00010001000080004000200000000000000C3
:103FD00000000000000000004000C0004000460C4F
:103FE0004E0FD001F0015E0F460C40004000400033
:103FF00000000000000000000000000000000000C1
:1040000000000000000000000000400040004000F0
:1040100040004000FE0F40004000400040004000D3
:104020000000000000000000000000000000000090
:104030000000000000000000000000000000000080
:104040000000000000000000000000000000000070
:104050000C001C001000100008000400000000000C
:104060000000000000000000000000000000000050
:1040700000000000FE07000000000000000000003B
:104080000000000000000000000000000000000030
:104090000000000000000000000000000000000020
:1040A0000000000000000000000000000000000010
:1040B0001C001C001C0000000000000000000000AC
:1040C00000040006000200030001000180008000DF
:1040D0004000400060002000200010001000080098
:1040E00008000C00040006000200000000000000B0
:1040F000000000000000F00098010C030C0306060D
:1041000006060606060606060606060606060C034C
:104110000C039801F0000000000000000000000007
:1041200000000000000040007C00600060006000B3
:10413000600060006000600060006000600060007F
:1041400060006000FC0300000000000000000000B0
:10415000000000000000F8008401020306030603CB
:10416000000300018001C000600020001000080270
:1041700004020602FE030000000000000000000030
:104180000000000000007800C60086018601800162
:104190008001C000700080010001000300030603DD
:1041A00006038601F8000000000000000000000087
:1041B00000000000000080018001C001A001A001FA
:1041C00090018801880184018201FE0F8001800135
:1041D00080018001E00700000000000000000000F6
:1041E000000000000000FC030400040004000400C0
:1041F0000400F4008C01040300030003060306031B
:1042000082018401F80000000000000000000000AE
:10421000000000000000E00118030C030C00040083
:104220000600E60116030E06060606060606040646
:104230000C021803F0000000000000000000000065
:10424000000000000000F8070C0604020401000151
:1042500000018000800040004000400060006000DD
:10426000600060006000000000000000000000002E
:10427000000000000000F8010C0306060606060612
:104280000C021C03F000C8010C0306060606060615
:1042900006060C03F0010000000000000000000012
:1042A000000000000000F0000C010C0306020606EE
:1042B0000606060606078C067806000600030003BD
:1042C0000C018C01780000000000000000000000DC
:1042D00000000000000000000000000000000000DE
:1042E000E000E000E000000000000000000000002E
:1042F000E000E000E000000000000000000000001E
:1043000000000000000000000000000000000000AD
:1043100060006000000000000000000000000000DD
:10432000000060006000400020002000000000004D
:104330000000000000040002000180004000200096
:104340001000080004000800100020004000800059
:104350000001000200040000000000000000000056
:10436000000000000000000000000000000000004D
:10437000FE07000000000000FE0700000000000033
:10438000000000000000000000000000000000002D
:104390000000000004000800100020004000800021
:1043A0000001000200040002000180004000200023
:1043B00010000800040000000000000000000000E1
:1043C000000000000000E0031806040C040C0C0CB4
:1043D0000C0C00078001400040004000000000007D
:1043E000E000E000E000000000000000000000002D
:1043F00000000000E00018030C02CC05640566050F
:10440000A605B604B604B604B604B602E4010C046C
:104410000C021803F0000000000000000000000083
:10442000000000000000600060005000D00090001C
:104430009000880088010801F801040304030402C5
:10444000020202060F0F0000000000000000000042
:10445000000000000000FE008C030C030C030C03A2
:104460000C038C01FC000C030C020C060C060C0661
:104470000C060C03FE01000000000000000000001C
:10448000000000000000E00318030C060C04040404
:1044900006000600060006000600060006040C04DE
:1044A0000C021803F00000000000000000000000F3
:1044B0000000000000007F008C010C030C030C06C0
:1044C0000C060C060C060C060C060C060C060C035F
:1044D0000C038C017F0000000000000000000000C1
:1044E000000000000000FF030603060406040600A7
:1044F00086008600FE008600860086000600060410
:1045000006040602FF030000000000000000000097
:10451000000000000000FF03060306040604060076
:1045200086008600FE0086008600860006000600E3
:10453000060006001F000000000000000000000050
:10454000000000000000F00018010C020C02040240
:104550000600060006000600C60F060306030C034D
:104560000C031803F0000000000000000000000031
:104570000000000000000F0F0606060606060606ED
:1045800006060606FE0706060606060606060606D2
:10459000060606060F0F00000000000000000000E5
:1045A000000000000000FC0360006000600060008C
:1045B00060006000600060006000600060006000FB
:1045C00060006000FC03000000000000000000002C
:1045D000000000000000F807C000C000C000C000DC
:1045E000C000C000C000C000C000C000C000C000CB
:1045F000C000C000C000C60066003C000000000013
:10460000000000000000CF038601C600460026001F
:10461000160036002E006E004600C6008600860199
:10462000060106038F0700000000000000000000E4
:104630000000000000001F00060006000600060043
:104640000600060006000600060006000600060436
:1046500006040602FF030000000000000000000046
:104660000000000000000707860386038E038E0308
:104670004E034E034A035A035A033A0332033203EA
:104680003203120387070000000000000000000052
:104690000000000000008E0F0C021C021C023402FD
:1046A0003402640264024402C40284028403840368
:1046B000040304031F0200000000000000000000CB
:1046C000000000000000F00098010C030C02060638
:1046D00006060606060606060606060606060C0278
:1046E0000C039801F0000000000000000000000032
:1046F000000000000000FF0006030606060606068E
:10470000060606068603FE000600060006000600F2
:10471000060006001F00000000000000000000006E
:10472000000000000000F00098010C030C020606D7
:1047300006060606060606060606060676064C0267
:10474000CC039801F0008007000300000000000087
:10475000000000000000FF0106030606060606062C
:1047600006060603FE004600C60086008601060314
:10477000060306060F0E0000000000000000000007
:10478000000000000000F8020C030602060206000A
:104790000E003C00F800E00380030007020602065A
:1047A00006060C03F00100000000000000000000FD
:1047B000000000000000FE0762046108610860005C
:1047C00060006000600060006000600060006000E9
:1047D00060006000F8010000000000000000000020
:1047E0000000000000001E070C020C020C020C026C
:1047F0000C020C020C020C020C020C020C020C0249
:104800000C021801F0000000000000000000000091
:104810000000000000000F070602040104010C0163
:104820000C0188008800980098005000500070002B
:104830003000200020000000000000000000000008
:10484000000000000000F70E620442044604460423
:1048500064026402E402E4029C029C019801980153
:1048600088018800880000000000000000000000AF
:104870000000000000009E070C01080118019000D4
:10488000B0006000200060006000D000900088014F
:10489000080104038E070000000000000000000073
:1048A0000000000000000F0F060404020C020801C3
:1048B0001801B800B0007000600060006000600087
:1048C00060006000F801000000000000000000002F
:1048D000000000000000FC070C020603020180013A
:1048E0008000400040002000200010001800080454
:1048F0000C040402FE0300000000000000000000A1
:10490000E0032000200020002000200020002000E4
:104910002000200020002000200020002000200097
:104920002000200020002000E00300000000000024
:10493000000000000400040008000800100010003F
:1049400010002000200040004000C00080008000D7
:10495000000100010002000200020004000000004B
:104960007C0040004000400040004000400040000B
:104970004000400040004000400040004000400037
:1049800040004000400040007C000000000060004B
:10499000900008010000000000000000000000007E
:1049A0000000000000000000000000000000000007
:1049B00000000000000000000000000000000000F7
:1049C00000000000000000000000000000000000E7
:1049D00000000000000000000000000000000000D7
:1049E00000000000000000000000FF0F00000000B9
:1049F000180060000000000000000000000000003F
:104A000000000000000000000000000000000000A6
:104A10000000000000000000000000000000000096
:104A20000000000000000000000000000000000086
:104A3000F0010C030C030003E0031C030E03060348
:104A400006038E0B7C0E000000000000000000003A
:104A50000000000008000E000C000C000C000C0010
:104A6000CC013C031C060C060C060C060C060C06BE
:104A70000C021C03E4010000000000000000000024
:104A80000000000000000000000000000000000026
:104A9000F0008C018C01860106000600060006026B
:104AA0000C020C01F00000000000000000000000FB
:104AB000000000000002C003000300030003000325
:104AC00078038C030C0306030603060306030603A0
:104AD00004038C07780100000000000000000000C3
:104AE00000000000000000000000000000000000C6
:104AF000E001180308020C060C06FC070C000C0071
:104B000018041802E001000000000000000000008E
:104B1000000000000000C0036006300630003000D6
:104B2000FE01300030003000300030003000300036
:104B300030003000FC010000000000000000000018
:104B40000000000000000000000000000000000065
:104B5000F007D8068C018C018C019801F8000C003C
:104B6000FC00CC03060306038E03F80000000000DF
:104B70000000000008000E000C000C000C000C00EF
:104B8000EC011C030C030C030C030C030C030C03BF
:104B90000C030C039E070000000000000000000052
:104BA0000000000000006000600000000000400005
:104BB0007C006000600060006000600060006000D9
:104BC00060006000FC030000000000000000000026
:104BD000000000000000C001C00100000000000152
:104BE000F00180018001800180018001800180014D
:104BF0008001800180018001CC007C000000000069
:104C00000000000008000E000C000C000C000C005E
:104C10008C038C008C004C006C005C008C008C01C0
:104C20000C010C039E0700000000000000000000C3
:104C30000000000040007C00600060006000600038
:104C40006000600060006000600060006000600064
:104C500060006000FC030000000000000000000095
:104C60000000000000000000000000000000000044
:104C70003707EE066606660666066606660666067A
:104C800066066606FF0F000000000000000000003E
:104C90000000000000000000000000000000000014
:104CA000EE011C030C030C030C030C030C030C039C
:104CB0000C030C039E070000000000000000000031
:104CC00000000000000000000000000000000000E4
:104CD000F00098010C030606060606060606060600
:104CE0000C030C03F00000000000000000000000B6
:104CF00000000000000000000000000000000000B4
:104D0000EE011C030C060C060C060C060C060C0629
:104D10000C031C03EC010C000C003E000000000022
:104D20000000000000000000000000000000000083
:104D300078028C030C03060306030603060306032E
:104D400004038C03780300030003C0070000000085
:104D50000000000000000000000000000000000053
:104D60009F0358063806180018001800180018008D
:104D700018001800FF000000000000000000000004
:104D80000000000000000000000000000000000023
:104D9000F0031C030C020C023800F000C0030403F3
:104DA00004038C03FC010000000000000000000070
:104DB0000000000000000000200020003000300053
:104DC000FE01300030003000300030003000300094
:104DD00030023002E001000000000000000000008E
:104DE00000000000000000000000000000000802B9
:104DF0008E030C030C030C030C030C030C030C03B9
:104E00000C039C0778010000000000000000000077
:104E10000000000000000000000000000000000092
:104E20001E070C020801080118019000B000B00034
:104E30006000600020000000000000000000000092
:104E40000000000000000000000000000000000062
:104E5000F70E6204460464026402EC029C019801AD
:104E60009801980108000000000000000000000008
:104E70000000000000000000000000000000000032
:104E8000BC0718011001B00060006000E000900055
:104E9000080108039E070000000000000000000059
:104EA0000000000000000000000000000000000002
:104EB0009E0708010801080190009000B000600002
:104EC000600060002000200024001C0000000000A2
:104ED00000000000000000000000000000000000D2
:104EE000FC018401C400440060002000300018026E
:104EF00008020C03FC01000000000000000000009C
:104F0000000380008000800080008000800080001E
:104F10008000400020004000800080008000800071
:104F200080008000800080000003000040004000FE
:104F30004000400040004000400040004000400071
:104F40004000400040004000400040004000400061
:104F500040004000400040004000400000000000D1
:104F60000C001000100010001000100010001000C5
:104F70001000200040002000100010001000100061
:104F800010001000100010000C00000000001C00B9
:104F90002204C204800300000000000000000000A2
:104FA0000000000000000000000000000000000001
:104FB00000000000000000000000000000000000F1
:104FC00000000000010203040607080900000000B9
:104FD00001020304000000004C5555555555A53FEE
:104FE0007751C1166CC156BF9015CB19A001FA3E7E
:104FF000AD529C804F7E92BEC4B1B4BD9EEE213EA8
:10500000D43888BEE9FAA8BD00004054FB21F93F1E
:105010003163621A61B4D03D0000601A61B4D03DC2
:105020007370032E8A19A33B0000002E8A19A33B3C
:10503000C14920259A837B39000000000000000050
:105040006E83F9A22915444ED15727FCC0DD34F5F3
:10505000999562DB4190433CAB6351FE61C5BBDE79
:105060003A6E24B7E0D24D42EA2E49061C92D1098D
:105070001CEB1DFE3EA729B1F53582E88444BB2E0A
:1050800026709CE9417E5FB439D69139F439538357
:105090008B5F849C3B28F9BDFF97F81F0F9805DEB6
:1050A0008B112FEF1F6D0A5ACF7E366DB709CB27B4
:1050B000663F464F2DEA5F9EC7BA27757BF1E5EB49
:1050C000F739073DEA92528AB15FFB6B085D8D1F8D
:1050D000A6F810111111813FD561C119A0012ABF95
:1050E0007DFEB157E31DC73EEB9C2B8AE6E55ABE19
:1050F0007CD5CF5A3AD9E53DDDDDDDDDDCBBBBDD5E
:10510000DDDDDDDDDDDDDDDD988888888888888867
:105110007777777777888888855555566666666687
:105120006666666666688888833333322222222266
:10513000222222222228888D5851000800000020B7
:10514000640000000C310008BC510008640000201D
:10515000F40E00001C31000800000000EC3D0008C7
:105160000C001800300000000000000000000000EB
:10517000000000000000000000000000000000002F
:10518000000000000000000000000000000000001F
:10519000000000000000000000000000000000000F
:1051A0000100000010000000000000000024F400D6
:0C51B000000000000000000000000000F3
:040000050800018965
:00000001FF
