:020000040800F2
:10000000C80F00209D010008A72C0008AB170008AE
:10001000A52C000893070008B1320008000000007A
:10002000000000000000000000000000892E000811
:100030009507000800000000A92C00088B2E00087E
:10004000B7010008B7010008B7010008B7010008B0
:10005000B7010008B7010008B7010008B7010008A0
:10006000B7010008B7010008B7010008B701000890
:10007000B7010008B7010008B7010008B701000880
:10008000B7010008B7010008B7010008B701000870
:10009000B7010008B7010008B7010008B701000860
:1000A000B7010008B7010008B7010008B701000850
:1000B000B7010008B7010008352F0008B701000894
:1000C000B7010008B7010008B7010008B701000830
:1000D000B7010008A5320008B7010008B701000801
:1000E000B7010008B7010008B7010008B701000810
:1000F000B7010008B7010008B7010008B701000800
:10010000B7010008B7010008B7010008B7010008EF
:10011000B7010008B7010008B7010008B7010008DF
:10012000B7010008B7010008B7010008B7010008CF
:10013000B7010008B7010008B7010008B7010008BF
:10014000B7010008B7010008B7010008B7010008AF
:10015000B7010008B7010008B7010008B70100089F
:10016000B7010008B7010008B7010008B70100088F
:10017000B7010008B7010008B7010008000000003F
:10018000B7010008B7010008DFF80CD000F0C4FA8E
:1001900000480047593C0008C80F00200648804727
:1001A00006480047FEE7FEE7FEE7FEE7FEE7FEE75C
:1001B000FEE7FEE7FEE7FEE7252F000889010008BD
:1001C0002DE9F05F0546002092469B46884606468C
:1001D000814640241BE0284641464746224600F01F
:1001E0007DF953465A46C01A914110D3114618461C
:1001F000224600F064F92D1A67EB01084F462246AB
:100200000120002100F05BF917EB00094E41201E90
:10021000A4F10104DFDC484631462A464346BDE8E6
:10022000F09FD2B201E000F8012B491EFBD27047CB
:100230000022F6E710B513460A4604461946FFF7B2
:10024000F0FF204610BD2DE9FE4F804681EA0300F5
:10025000C00F0C46009021F0004123F00045B8EBA0
:100260000200A94105D24046214690461C460B4655
:10027000024623F00040104347D0270DC7F30A0081
:10028000C3F30A510290401A019040286BDAC3F37D
:10029000130040F4801B0098924620B10023D2EB5B
:1002A000030A63EB0B0B01985946C0F1400250461C
:1002B00000F005F906460D4650465946019A00F0F1
:1002C0001DF910EB08006141002487EA115284EA0D
:1002D000E7731A4340D0009A62B3019A012A4FEAA9
:1002E000075215DC001B61EB02014FF0004202EAED
:1002F0000752CDE90042001C41F5801132462B46E1
:1003000000F01DF903B0BDE8F08F40462146F9E743
:10031000001B61EB0201001C41F5801300185B41DA
:100320002018A2F5001747EB030140EAD570B61973
:100330006D4111E06D084FEA360645EAC0754FEA97
:100340000752001B61EB0201001C41F580114908B6
:100350004FEA30000019514132462B4603B0BDE848
:10036000F04F00F0DDB80098012240000023D0EBF0
:10037000020263EBE073009821464FEAE074B8EBA9
:10038000000061EB0401E9E783F000435BE781F0E3
:10039000004158E72DE9FE4F81EA030404F00044D0
:1003A00021F0004100944FF0000B23F0004350EA8D
:1003B00001045ED052EA03045BD0C3F30A54C1F3D4
:1003C0000A552C44A4F2F3340194A0FB0254C1F367
:1003D000130141F48011C3F3130343F4801301FBB1
:1003E000024400FB034E840A970A44EA815447EA18
:1003F0008357A4FB076802958D0A05FB07854FEA22
:10040000932C04FB0C542705029D4FEA065847EA3B
:100410001637B5EB08056EEB070C870E920E47EA10
:10042000811742EA8312A7FB0201B6EB0B0164EBD2
:1004300000042B0D43EA0C335E1844EB1C50DA46E3
:100440005146E7FB0201C5F313044FEA0B3343EABD
:1004500014534FEA0432019C43EA0603A4F10C044E
:100460000294009CCDE900B400F069F803B0BDE847
:10047000F08F00200146F9E70EB540F233410291BA
:100480000021CDE900110A460B4600F058F803B0F0
:1004900000BD30B50B46014600202022012409E0B2
:1004A00021FA02F59D4205D303FA02F5491B04FA2D
:1004B00002F52844151EA2F10102F1DC30BD202A0C
:1004C00004DB203A00FA02F1002070479140C2F1AB
:1004D000200320FA03F3194390407047202A04DBDD
:1004E000203A21FA02F00021704721FA02F3D040AD
:1004F000C2F120029140084319467047202A06DBCA
:10050000CB17203A41FA02F043EAE07306E041FAE1
:1005100002F3D040C2F120029140084319467047CF
:1005200010B5141E73F1000408DA401C41F10001FB
:1005300092185B411A4301D120F0010010BD2DE952
:10054000F04D92469B4611B1B1FA81F202E0B0FA49
:1005500080F220329046FFF7B2FF04460F4640EA91
:100560000A0041EA0B0153465A46084313D011468C
:1005700053EA010019D0C8F140025046FFF7AEFF20
:1005800005460E46504659464246FFF798FF084337
:1005900005D0012004E020463946BDE8F08D00205A
:1005A000054346EAE0762C4337430A986305E40A9C
:1005B000A0EB08000022FD0A44EA47540A3002D5A5
:1005C00000200146E9E7010510196941DDE9084508
:1005D00000196941BDE8F04DA2E72DE9F04D81EA2F
:1005E000030404F0004B21F0004514464FF0000ACC
:1005F00023F0004150EA050220D054EA01021DD048
:10060000C5F30A570246C5F31303C1F31300C1F340
:100610000A5640F4801543F48013A7EB0608101B1C
:10062000D64608F2FD3873EB050002D308F1010845
:1006300001E092185B41B8F1000F03DA0020014697
:10064000BDE8F08D00204FF48011064684460EE090
:10065000171B73EB050705D3121B63EB050306435A
:100660004CEA010C49084FEA300092185B4150EA0D
:100670000107EDD152EA030012D082EA040083EAB6
:100680000501084305D0101BAB4106D2012200230F
:1006900006E000224FF0004302E06FF00102531029
:1006A0001AEB06004CEB085110EB0A0041EB0B0172
:1006B000BDE8F04DFFF734BFC1F30A52C1F3130197
:1006C00040F2FF3341F480119A4202DA00200146E1
:1006D000704740F233439A42A2F2334202DC524264
:1006E000FFF7FCBEFFF7EBBE30B5041E71F100044E
:1006F00004DB4FF00044404264EB0101141E73F12F
:10070000000405DB1C464FF00043524263EB040338
:10071000994208BF904230BD064C074D06E0E068A4
:1007200040F0010394E8070098471034AC42F6D338
:10073000FFF72EFD8CC50008ACC5000870B58C18FD
:1007400010F8015B15F0070301D110F8013B2A11E5
:1007500006D110F8012B03E010F8016B01F8016BD2
:100760005B1EF9D12B0705D40023521E0DD401F8CE
:10077000013BFAE710F8013BCB1A921C03E013F897
:10078000015B01F8015B521EF9D5A142D8D30020CC
:1007900070BDFEE770472DE9F0410446876D00F01B
:1007A0005FF9064694F835000025022806D080201F
:1007B000606584F834500120BDE8F081206801684C
:1007C00021F0160101602068416921F0800141613A
:1007D000206C08B9A06C20B12068016821F00801E4
:1007E00001602068016821F0010101600CE000F067
:1007F00037F9801B052807D920206065032084F87D
:10080000350084F83450D7E720680068C007EED17F
:1008100094F85C103F208840B860012084F83500CF
:1008200084F834500020C7E790F83510022903D02F
:100830008021416501207047052180F8351000684E
:10084000016821F0010101600020704780B203F0CF
:10085000D9B900002DE9F84FDFF8BCA1002201252D
:1008600003264FF00F090AF1040BAAF1040E00BF92
:100870000B6805FA02F42340A34270D10F7907F008
:100880000307012F01D0022F16D187684FEA4208D3
:1008900006FA08FC27EA0C07D1F80CC00CFA08FC91
:1008A0004CEA070CC0F808C04768A7430C79C4F3AA
:1008B000001494403C4344600C79E443A4070AD0FC
:1008C000C4684FEA420C06FA0CF7BC438F6807FA7B
:1008D0000CF72743C7600C7904F00304022C12D1F3
:1008E000D40800EB840CDCF820405707FF0E09FA0F
:1008F00007F824EA0804D1F8108008FA07F848EA53
:100900000408CCF8208004684FEA420C06FA0CF781
:10091000BC430F7907F0030707FA0CF7274307607A
:100920004C6814F4403F70D03C4C276847F4804733
:100930002760246822F0030704F480440094384CB4
:1009400007EB040CDCF8084897074FEA177809FA18
:1009500008F7BC43334FB84202D1002724E054E0EB
:10096000314FB84201D101271EE0304FB84201D1CA
:10097000022719E02E4FB84201D1032714E02D4F72
:10098000B84201D104270FE02B4FB84201D105270F
:100990000AE02A4FB84201D1062705E0284FB842A5
:1009A00001D1072700E0082707FA08F72743CCF80A
:1009B0000878DAF800405746D1F804C09C435FEA53
:1009C000CC2C00D51C433C60DBF800405F46D1F8DE
:1009D00004C09C435FEA8C2C00D51C433C60DEF8CD
:1009E00000407746D1F804C09C435FEA8C3C00D5B8
:1009F0001C433C60084F083F3C68D1F804C09C434E
:100A00005FEACC3C00D51C433C60521C102AFFF42A
:100A10002FAFBDE8F88F0000083C01404438024089
:100A20000030014000000240000402400008024083
:100A3000000C024000100240001402400018024066
:100A4000001C0240426921EA02030A4043EA0241D3
:100A5000816170470AB1816170470904FBE70000BA
:100A60000148806870470000F40100200248816856
:100A70000278114481607047F40100200B4810B5E2
:100A8000016841F400710160016841F48061016016
:100A9000016841F480710160032000F06FF80020CC
:100AA00000F006F800F024F8002010BD003C0240E1
:100AB00070B50D4D04464FF47A712878B1FBF0F013
:100AC0000A490968B1FBF0F000F0F6FB48B9102CB8
:100AD00007D200222146501E00F030F800206C6042
:100AE00070BD012070BD0000F40100200002002054
:100AF0000A4808B5016841F480410160006800F4CB
:100B0000804000900548001F016841F0805101605D
:100B1000006800F08050009008BD0000443802409A
:100B2000002809DB00F01F020121914040098000EC
:100B300000F1E020C0F8001170470000F0B40E4B47
:100B40001B680C46C3F30223C3F10705042D00D92B
:100B50000425191D072901D2002300E0DB1E012610
:100B600006FA05F1491E214099409E40761E164026
:100B70003143F0BC02F0C2BB0CED00E0064900F0CE
:100B8000070208684FF6FF03184040EA0220034AB4
:100B900010430860704700000CED00E00000FA050B
:100BA0002DE9F0470E46050065D0DFF81481D8F82E
:100BB0000000F7B200F00700B04207D288F80070DA
:100BC000D8F8000000F00700B04254D128683D4C2E
:100BD000810712D5400703D5206840F4E05020601B
:100BE0002878000703D5206840F460402060206822
:100BF000A96820F0F000084320602878C0072DD0B5
:100C0000304968680839012812D0022813D0032817
:100C100011D00968890700292DDA216821F0030124
:100C200001432160FFF71CFF814641F2883A0EE044
:100C300009688903EFE709688901ECE7FFF710FF0E
:100C4000A0EB0901514502D90320BDE8F0872068D7
:100C5000696800F00C00B0EB810FEFD1D8F80010FC
:100C6000404601F00701B14207D90770006800F063
:100C70000700B04201D00120E7E72878400705D5FA
:100C80002068E96820F4E0500843206028780007D5
:100C900006D52068296920F4604040EAC100206040
:100CA00000F038F82168084AC1F30311515CC840CC
:100CB0000649086006480068FFF7FAFE0020C4E70E
:100CC000003C02400838024048C0000800020020F2
:100CD000F80100200448054900680968044AC1F386
:100CE0008221515CC8407047000200200838024051
:100CF00058C000080448054900680968044AC1F35F
:100D00004231515CC8407047000200200838024060
:100D100058C00008154810B5006810F00C021448BF
:100D200013D04110042A0FD0082A0ED10F4C241FD3
:100D30002268236802F03F025B0207D52068C0F3F7
:100D40008810A0FB010106E0084610BD2168C1F330
:100D50008811A1FB00010023FFF732FA2168C1F3DB
:100D60000141491C4900B0FBF1F010BD08380240B8
:100D70000024F4002DE9F84F04006ED02078DFF84D
:100D80004C93C007A9F104054AD009F10400016899
:100D9000C1F38101012908D00068C0F38100022855
:100DA0000AD1D9F80000400206D52868800337D55B
:100DB00060680028E1D033E06068B0F5803F10D073
:100DC000B0F5A02F286810D020F480302860286863
:100DD00020F4802028606068A8B1FFF741FE064635
:100DE0000DE0286840F48030F4E740F4802028606B
:100DF000F7E700BFFFF734FE801B642873D828682C
:100E00008003F7D50CE0FFF72BFE064605E000BF98
:100E1000FFF726FE801B6428F0D828688003F7D4EB
:100E20002078DFF8AC8280074FF0000A3ED5A74853
:100E3000001D016811F00C0F08D00068C0F381009C
:100E400002280BD1D9F80000400207D42868800797
:100E500016D5E068012800D112E033E1E068B8B1AE
:100E60000120C8F80000FFF7FBFD064605E000BFC3
:100E7000FFF7F6FD801B0228C0D828688007F7D549
:100E80002868216920F0F80040EAC10028600DE0E0
:100E9000C8F800A0FFF7E4FD064604E0FFF7E0FD18
:100EA000801B02281FD828688007F7D42078000705
:100EB00022D5864F87486169703771B10121016081
:100EC000FFF7CEFD064604E0FFF7CAFD801B0228AF
:100ED00009D838688007F7D50EE0C0F800A0FFF702
:100EE000BFFD064605E082E0FFF7BAFD801B022841
:100EF0007DD838688007F7D42078400768D5DFF8B8
:100F0000CCB100270BF13C0BDBF80000C0000BD488
:100F1000DBF8001041F08051CBF80010DBF8000046
:100F2000012700F0805000906B4E3068C00510D44F
:100F3000306840F480703060FFF792FD009005E06B
:100F4000FFF78EFD0099401A022850D83068C0057E
:100F5000F6D55E4EA0686C3601280FD005283068A3
:100F600010D020F001003060306820F004003060C4
:100F7000A068B8B1FFF774FD00900FE0306840F052
:100F80000100F4E740F004003060F7E7FFF768FD88
:100F90000099411A41F28830814266D83068800752
:100FA000F4D50EE0FFF75CFD009007E0FFF758FD79
:100FB0000099411A41F28830814256D83068800742
:100FC000F4D42FB1DBF8001021F08051CBF80010E1
:100FD000A069C8B33D49091D0968C1F3810102290F
:100FE0004AD00228504607D0C8F8600000E03CE034
:100FF000FFF736FD04463BE04746C8F86000FFF7C0
:101000002FFD064605E000BFFFF72AFD801B0228E2
:101010002BD828688001F7D4D4E907010843A16AD6
:101020002E4A490802EB0141626A41EA82110843F3
:1010300094F82C1040EA0161C9F8001001203866CC
:10104000FFF70EFD044606E03EE000BFFFF708FD97
:10105000001B022809D828688001F7D534E000BFBA
:10106000FFF7FEFC001B022802D90320BDE8F88F21
:1010700028688001F4D427E00128F7D0D9F80000CF
:10108000E26900F4800191421CD1226A00F03F0124
:10109000914217D147F6C071626A0140B1EB821FDD
:1010A00010D1A26A4FF0FF3300F4403103EB52023B
:1010B000B1EB024F06D194F82C1000F07060B0EB49
:1010C000016F01D00120D1E70020CFE704380240B2
:1010D00000004742800E4742007000400000FFFFC2
:1010E00070B5040009D0606A002540B125616561D2
:1010F000A56294F8510040B10CE0012070BD606819
:10110000B0F5827FF4D0E561F2E784F850502046D4
:1011100000F044F8022084F851002068016821F0B2
:1011200040010160A088218900F4827001F404412B
:101130000843A18901F400610843217C01F0020108
:101140000843217D01F001010843218B01F4007166
:101150000843217F01F03801084394F8201001F082
:1011600080010843218D01F4005108432168086083
:10117000A069042101EA104094F8241001F0100144
:101180000843216848602068C16921F40061C16199
:101190006565012084F85100002070BD2DE9F047FD
:1011A00086B0044614216846FFF742F83E4920689D
:1011B000884275D13D480024016841F40041016036
:1011C000006800F40040059038481038016841F08C
:1011D00002010160016801F002010591016841F01E
:1011E00002010160016801F002010591016841F00E
:1011F00008010160016801F008010591016841F0F2
:1012000008010160016801F008010591016841F0E1
:10121000080101600068022500F008000590082020
:10122000CDE900050320CDE902400620204E0490C0
:1012300069463046FFF70EFB202000906946304695
:10124000FFF708FBAF020126DFF868A0CDE90076C2
:1012500069465046CDE90245FFF7FCFA4FF40058C5
:10126000CDF80080CDE90164694650460394FFF74C
:10127000F1FA4FF48059CDE9009669465046CDE920
:101280000245FFF7E7FA012249465046FFF7E2FB25
:10129000084818300760002241465046FFF7DAFB45
:1012A00006B0BDE8F0870000003C00404038024036
:1012B00000040240000C024010B5401EB0F1807FD7
:1012C00001D3012010BD4FF0E02460610F216017B1
:1012D00002F014F80020A06107202061002010BD5A
:1012E00010B5040003D094F83D0010B107E00120D0
:1012F00010BD002084F83C00204600F01EF80220BB
:1013000084F83D00211D206801F02EFE012084F8A4
:10131000460084F83E0084F83F0084F8400084F8DA
:10132000410084F8420084F8430084F8440084F8C3
:10133000450084F83D00002010BD704790F83D1036
:10134000012901D001207047022180F83D10016879
:10135000CA6842F00102CA6000681149884214D08C
:10136000B0F1804F11D00F4988420ED00E4988420B
:101370000BD00E49884208D00D49884205D00D494E
:10138000884202D00C49884204D1816801F00701EB
:10139000062903D0016841F0010101600020704777
:1013A000000001400004004000080040000C004024
:1013B00000040140004001400018004070477047A1
:1013C000F8B5016804460868CA684B6910F00F0F49
:1013D0004FF0000559D003F0010602F4907737432F
:1013E00065D0C10705D0D10503D5616C41F001017D
:1013F0006164410705D5D90703D0616C41F0020152
:101400006164810705D5D90703D0616C41F00401FF
:101410006164010707D502F02001314303D0616CFC
:1014200041F008016164616C00293AD0800604D55E
:10143000900602D5204601F032FE20684069616CBA
:10144000C0F38010090700D460B3204601F000FE0D
:1014500020684069400621D52068143050E8001FFC
:1014600021F0400140E80012002AF5D1E06BA8B15C
:101470006E490165E06BFFF7D7F9002811D0E06BEA
:10148000016D01B0BDE8F040084783060FD5930613
:101490000DD52046BDE8F84001F001BE2046FFF71B
:1014A0008EFFF8BD2046FFF78AFF6564F8BD266B06
:1014B0002023012E7DD1C6067BD5D60679D50868B6
:1014C0004868009048694FF00206400641D5E16B3C
:1014D000086840680004000CE8D0A28D8242E5D97B
:1014E000E085C869B0F5807F2DD020680C3050E8C9
:1014F000001F21F4807140E80012002AF5D1206815
:10150000143050E8001F21F0010140E80012002AC9
:10151000F5D12068143050E8001F21F0400140E868
:101520000012002AF5D184F84230256320680C307F
:1015300050E8001F21F0100140E80012002AF5D108
:10154000E06BFFF728F96663A08DE18D401A81B248
:101550002AE0A08DE18D401A81B2E08D0028A5D04F
:101560000029A3D022680C3252E8000F20F49070BA
:1015700042E80007002FF5D12068143050E8002F12
:1015800022F0010240E80027002FF5D184F8423014
:10159000256320680C3050E8002F22F0100240E84C
:1015A0000023002BF5D166632046FFF707FFF8BD47
:1015B000FFE705062BD5150629D594F8410021280B
:1015C000F5D1A068B0F5805F01D12069B0B1206A83
:1015D000411C2162216800784860E08C401E0004B4
:1015E000000CE084E3D12068C16821F08001C16073
:1015F0002068C16841F04001C160D8E7206A0088D6
:10160000C0F308004860206A801C2062E5E74006BD
:10161000CDD55006CBD5CA68204622F04002CA601C
:1016200084F8413000F0C0F8C1E700004130000804
:1016300070B5040004D094F84100002510B106E014
:10164000012070BD84F84050204600F023F824208B
:1016500084F841002068C16821F40051C16020462F
:1016600001F07EFD2068016921F49041016120684C
:10167000416921F02A0141612068C16841F40051AB
:10168000C1606564202084F8410084F842006563ED
:10169000002070BD30B500681F4987B0884238D13E
:1016A0001E48016841F010010160006800F0100060
:1016B00005901A481438016841F001010160016881
:1016C00001F001010591016841F00101016000682C
:1016D000012100F0010005904FF4007000900220FD
:1016E000CDE901010724CDE903040D4D69462846E3
:1016F000FFF7B0F828150090694604942846FFF7D4
:10170000A9F82520FFF70CFA032211462520FFF740
:1017100015FA07B030BD0000001001404438024007
:101720000000024090F84230202B01D00220704788
:1017300021B11AB10023036301F098BD0120704765
:1017400030B400681549884225D1154841880A04FB
:1017500016D402464C0412784FF0000304D50A2A2E
:101760000DD141F4004114E00D2A10D0C1F30D0455
:101770000C4D491C89B22A554180C72900D94380A4
:101780000848012230BC0649C830FFF7CBBF41F4FE
:1017900080414180F4E730BC7047000000100140F8
:1017A000EC010020B40A00207047FEE770B5234C1E
:1017B0000021A089401E83B26089401E82B2084683
:1017C00000F076FCA4F6580001680B684FF6BF7273
:1017D00013400B6001680B6843F400630B60016801
:1017E0000B6843F040030B60154B4FF0006119602C
:1017F000002107E006686568F5600568AE68B60711
:10180000FCD5491C6589A68975438D42F2D80168CB
:101810008C682406FCD44FF400641C600B681340F1
:101820000B6001680A684FF2FF731A400A60006893
:10183000016841F04001016070BD0000A40A002071
:10184000180C02402DE9F05F0023203A02F0FF0B54
:10185000284A824689464FF000601C4619461060AF
:10186000DFF894E0254EDEF8000026E00768DFF898
:1018700090C00BFB0272BCF80070BCF804C09D5C09
:101880000022BFB21FFA8CFC5FEAC57802D026F8AE
:10189000147001E026F814C0641C491CB0F80480E0
:1018A0006D0889B2A4B2884501D1002103E0521C21
:1018B00092B2082AE8D35B1C9BB202899A42D5D81F
:1018C000C288A9F1010111448BB28188AAF10100FB
:1018D000084482B274464946504600F0E9FB20684D
:1018E0008188C088BDE8F05F414389B2034801F0B8
:1018F000F5B80000180C0240E0010020A40200200E
:10190000A40A00202DE9F05FDFF8D08083468A46E4
:10191000D8F80400002317780589066819465C1C6E
:1019200005FB04FC16F80CC0BC4508D104FB05649B
:1019300092F801C06478644501D1994604E09B1C8B
:1019400044899BB29C42EAD800221346C646244EE4
:1019500027E00768DFF88CC009FB0474BCF800704E
:10196000BCF804C01D5D0024BFB21FFA8CFC00BF90
:101970005FEAC57802D026F8127001E026F812C09E
:10198000521C491CB0F804806D0889B292B2884597
:1019900001D1002103E0641CA4B2082CE8D35B1C35
:1019A0009BB204899C42D4D8C288AAF10101114497
:1019B0008BB28188ABF10100084482B27446514673
:1019C000584600F075FB60688188C088BDE8F05F0C
:1019D000414389B2024801F081B80000E0010020D3
:1019E000A4020020A40A002030B50546094887B0AB
:1019F0000C46007A8DED000B50B107A102A801F052
:101A000069FC02AA2146284600F02CF807B030BD38
:101A100003A1F3E7A40A0020252A2E2A6C66000001
:101A200025302A2E2A6C66007FB51E46094B0546D6
:101A30000C46187A1346324648B107A1684601F0B1
:101A400049FC6A462146284600F00CF87FBD03A1F8
:101A5000F4E70000A40A0020252A640025302E2A7D
:101A6000640000002DE9F0411546884604460A4FFF
:101A70000A4E08E041462046FFF7E4FE38686D1C38
:101A80008088204484B27089A04202D92A78002A32
:101A9000F0D1BDE8F0810000E0010020A40A0020A0
:101AA0002DE9F04114460F4605460E4E15E07F2AFB
:101AB00009D839462846FFF7C5FE3068641C80887F
:101AC000284485B209E0224639462846FFF71AFF26
:101AD0007068A41C8088284485B22278002AE6D148
:101AE000BDE8F081E00100202DE9F84F8146554224
:101AF000002602201E4F884600EB4504A9EB050096
:101B00003A6808EB060A00901FFA8AF180B200F0EA
:101B10004BFA09EB050B1FFA8AF11FFA8BF03A68B2
:101B200000F042FAA8EB060A1FFA8AF11FFA8BF0BE
:101B30003A6800F039FA00981FFA8AF13A6880B2E0
:101B400000F032FA2046B44208DC761C00EB460472
:101B5000641CF54202D1A84200DC0020A84203DD4B
:101B60006D1C04EB4504641C002DC7DDBDE8F88F37
:101B7000A40A00202DE9F05F00EE102A80465742AB
:101B8000F8EEC00A00EE103A022000EB4704B8EE6F
:101B9000C00A00256C480E462DED028B9A4267DD87
:101BA00080EE808A4FEA000900EE105AA8EB070B7E
:101BB000D9F80020B8EEC00AC0EE080ABCEEE00A70
:101BC00010EE100A304481B21FFA8BF000F0ECF9ED
:101BD00000EE105A08EB070AD9F80020B8EEC00A48
:101BE000C0EE080ABCEEE00A10EE100A304481B2E2
:101BF0001FFA8AF000F0D8F900EE105AD9F8002048
:101C0000B8EEC00AC0EE080ABCEEE00A10EE100AF8
:101C1000301A81B21FFA8AF000F0C6F900EE105AAD
:101C2000D9F80020B8EEC00AC0EE080ABCEEE00AFF
:101C300010EE100A301A81B21FFA8BF000F0B4F9DE
:101C40002046AC4208DC6D1C00EB4504641CEF42EE
:101C500002D1B84200DC0020B84203DD7F1C04EB57
:101C60004704641C002F9FDDBDEC028BBDE8F09F94
:101C700080EE208A5F420025814600BF00EE105AA8
:101C800006EB070A1FFA8AF1B8EEC00AD9F800205D
:101C9000C0EE080ABCEEE00A10EE100AA8EB000045
:101CA00080B200F081F900EE105A1FFA8AF1D9F8DB
:101CB0000020B8EEC00AC0EE080ABCEEE00A10EE42
:101CC000100A404480B200F06FF900EE105AA6EB03
:101CD000070A1FFA8AF1B8EEC00AD9F80020C0EE50
:101CE000080ABCEEE00A10EE100A404480B200F090
:101CF0005BF900EE105A1FFA8AF1D9F80020B8EE0D
:101D0000C00AC0EE080ABCEEE00A10EE100AA8EB0A
:101D1000000080B200F048F92046AC4209DC6D1C9E
:101D200005EB45010C18641CEF4202D1B84200DCFF
:101D30000020B84204DD7F1C07EB47000444641C0C
:101D4000002F9BDD90E70000A40A00202DE9FF4F43
:101D500083B00746064604989B464FF48061009086
:101D6000B1FBFBF0DDF840901446019038194FF0BC
:101D7000000A401E554602906EE00020F4EE000A74
:101D800027E000BF374B99F80020A3F5006EB3F8A9
:101D900000C09B8800211FFA8CFC9BB25FEAC278CE
:101DA00002D02EF815C001E02EF81530761CB6B220
:101DB0006D1C5208A6EB0708ADB2A04501D13E4606
:101DC00003E0491C89B20829E8D3401C09F1010944
:101DD00080B200EE104AB8EE400A20EE201A00EE63
:101DE000100AB8EE400AB4EEC01AF1EE10FAC9DCDF
:101DF00001986043A84216D1DDE9000100EB01081B
:101E0000A8F1010083B20298002582B238460099F9
:101E100000F04EF90198604381B2134800F05EFE75
:101E20001FFA88F000900AF10108D84512D10499F0
:101E300002988A4482B21FFA8AF33846009900F069
:101E400037F90099AAEB0100401C604381B20648B3
:101E500000F044FE1FFA88FADA458ED307B0BDE8D9
:101E6000F08F0000A40A0020A40200202DE9FE4FFC
:101E70000027141A002C00DC841A0FFA84F85C1A6C
:101E8000002C00DCCC1A0FFA84FC06B20DB24FF025
:101E9000FF34824203D301208246019001E0A24632
:101EA00001948B4203D301208146009001E0A146BA
:101EB0000094E0454FF0000008DB8146019008EBFC
:101EC000D870C3464410CDF808C026E082460020F2
:101ED0000090E3460CEBDC70CDF808804410D84647
:101EE0001BE01048A9B20268B0B200F05DF8029899
:101EF000204404B25C4508DBA4EB0B0004B201985B
:101F0000304406B20098284405B206EB0A0006B237
:101F100005EB09007F1C05B23FB24745E1DDBDE896
:101F2000FE8F0000A40A002070B514460C4A0B4630
:101F3000A2F500651288002192B203E025F8112075
:101F4000491C89B2A142F9D30119491E8AB2194626
:101F500000F0AEF82146BDE87040024800F0BEBD7A
:101F6000A40A0020A402002070B50D4B1446A3F56E
:101F700000651B8800229BB204E000BF25F81230E8
:101F8000521C92B2A242F9D30A19521E93B20246CF
:101F900000F08EF82146BDE87040024800F09EBD7A
:101FA000A40A0020A402002010B50B46024600F04F
:101FB0007FF8094C4FF0006020600848008880B22C
:101FC00000F0EEFD0648006881680906FCD44FF475
:101FD0000060206010BD0000180C0240A40A002020
:101FE0004C0200202DE9F0411C4616460D460746DE
:101FF000FFF79AFF2819401E81B232463846FFF794
:1020000093FF224629463846FFF7AEFFB81922460D
:102010002946BDE8F041401E80B2FFF7A5BF2DE97B
:10202000F84F8B46032190460746A1EB4806002453
:1020300015464FF6FF7931E08DB1ABEB050081B26B
:10204000009009EA4502381B924680B2FFF78CFFE8
:102050000098524681B2381980B2FFF785FF8CB1E3
:10206000ABEB040081B2009009EA4402781B92466F
:1020700080B2FFF779FF0098524681B2781980B29A
:10208000FFF772FF002E03DA06EB8406B61D04E0AC
:10209000601B06EB80066D1E0A36641CAC42CBD971
:1020A000424659463846BDE8F84FFFF71DBD0000CF
:1020B0002DE9F047194D80464FF0006099461646CD
:1020C0000F4628602A2000F047FD154CA17B01EB4C
:1020D000080080B200F064FDA07B304480B200F0C4
:1020E0005FFD2B2000F038FDE07B384480B200F02B
:1020F00057FDE17B01EB090080B200F051FD2C207F
:1021000000F02AFDA4F65800006881680906FCD496
:102110004FF400602860BDE8F0870000180C024012
:10212000A40A00204FF478414FF4FC6201EA102128
:1021300002EA5012C0F3C400114301430148416058
:1021400070470000A40A00204FF478414FF4FC626D
:1021500001EA102102EA5012C0F3C4001143014306
:102160000148016070470000A40A00202DE9F041F9
:102170001E4CDFF87C804FF000626072C8F80020CF
:102180000026F02538B102280AD0502701281CD09B
:10219000032822D00EE0362000F0DEFC702003E0A1
:1021A000362000F0D9FC002000F00AFDA673E6738B
:1021B0006581A5810F48006881680906FCD44FF449
:1021C0000061C8F80010BDE8F081362000F0C4FCC2
:1021D000A02000F0F5FCA773E9E7362000F0BCFC76
:1021E000C02000F0EDFCA673E773E1E7A40A00202D
:1021F000180C02404C0200200C49486080881428CA
:102200000FD005DC0C280AD0102807D1084804E0BC
:10221000182808D0202801D10648086070470648D1
:10222000FBE70648F9E70648F7E70000E001002071
:10223000C8010020A4010020D4010020BC0100201E
:10224000B00100202DE9F05F00242548FFF7D4FFFE
:102250000020FFF779FFDFF89090DFF888B0214D7C
:10226000214E224FDFF88880DFF888A009F17F092E
:102270000BF17F0B082C0AD2DFE804F004062426B9
:10228000282A2C2E284600E03046FFF74BFFFFF7A8
:102290008DFA19A246210D20FFF702FC1AA26A212D
:1022A0000D20FFF7FDFB1DA28E210D20FFF7F8FB8F
:1022B0004FF47A70FEF7CAFA641CE4B2082CD9D342
:1022C000BDE8F09F3846E0E74046DEE74846DCE7F9
:1022D0005046DAE75846D8E76FF07F40D5E7000070
:1022E0008C0100208080FF0080FF8000FF80800044
:1022F00080FFFF00A3A3A30053544D333220CBA291
:10230000C6C1B2E2CAD40000C6C1C4BBB7D6B1E6EA
:10231000C2CA3A3234302A3234300000BFD8D6C66E
:10232000C6F73A5354373738390000002DE9F843DF
:10233000294E2A4F2A4DDFF8AC8000244FF47A79D9
:102340000020FFF7EFFEFFF731FA2748FFF754FFB1
:102350003046FFF7F9FE34B1012C09D0022C31D000
:10236000032C0DD133E00220FFF700FF1FA203E092
:102370000020FFF7FBFE20A214210846FFF790FB88
:102380003846FFF7E1FE53231A46502113200095EB
:10239000FFF7DCFC1B48FFF72FFF4046FFF7D4FE9A
:1023A00019A25A218220FFF77BFB822118A208463E
:1023B000FFF776FB4846FEF749FA641C042CBFDBA6
:1023C000BDE8F8830320FFF7D1FE13A2D4E7012074
:1023D000FFF7CCFE15A2CFE7FBF9DFFF8DE5F6FF97
:1023E00004B20008A8D39DFF8C01002044697265E7
:1023F0006374696F6E5F5600446972656374696FD8
:102400006E5F480098010020C2B9D0A1B0E0000082
:10241000BFC6BCBC00000000446972656374696F8C
:102420006E5F565F466C697000000000446972651B
:102430006374696F6E5F485F466C697000000000EE
:1024400010B50020FFF76EFEFFF7B0F96FF07F4088
:10245000FFF77AFEF02300211A460846FFF7C2FD77
:102460004FF47F00FFF770FE1E2232218C20FFF711
:10247000D6FD4FF47F40FFF767FE1E223221AA20CF
:10248000FFF7CDFDFF20FFF75FFE1E223221C8209F
:10249000FFF7C5FD2948FFF757FE1A214023712297
:1024A0000846FFF7E3FC51236A2216212320FFF799
:1024B000DDFC64235D2214212D20FFF7D7FC6C2363
:1024C000452210213420FFF7D1FC6C232C2210214F
:1024D0003E20FFF7CBFC1A48FFF736FE1E22AA214A
:1024E0007820FFF701FB1422AA217820FFF7FCFADD
:1024F0001448FFF729FE28235A22AA217820FFF743
:1025000039FB28234622AA217820FFF733FB0D4808
:102510007F30FFF719FE32236422AA217820FFF7CB
:1025200029FB3C236E22AA217820FFF723FBBDE87C
:1025300010404FF4FA60FEF789B9000000FFFF0079
:10254000FFFF80008080FF0008B50020FFF7EAFD54
:10255000FFF72CF91848FFF7F7FD184853230090B0
:102560001A4615211320FFF7F1FB1548FFF7ECFD84
:102570001448532300901A4615218D20FFF7E6FBDF
:102580001148FFF7E1FD1148532300901A468C21B2
:102590001320FFF7DBFB0E48FFF7D6FD0D48532352
:1025A00000901A468C218D20FFF7D0FBBDE8084033
:1025B0004FF4FA60FEF74AB98DE5F6FF04B2000861
:1025C000FBF9DFFF95B50008A8D39DFF26B90008E9
:1025D0005387FFFFB7BC000870B50020FFF7A2FDCE
:1025E000FFF7E4F86FF07F452846FFF7ADFD524C4A
:1025F00050480021206051A20846FFF733FA5348A3
:10260000206053A220210020FFF72CFA56482060BA
:1026100056A238210020FFF725FA5B4820605BA214
:102620004C210020FFF71EFA6048206060A25C2168
:102630000020FFF717FA2812FFF786FD5B4820609D
:1026400066A268210020FFF70DFA4F4820606EA2B5
:1026500074210020FFF706FA4348206072A284210B
:102660000020FFF7FFF93949216076A29821002068
:10267000FFF7F8F92F49216078A2B0210020FFF779
:10268000F1F97A48FFF7B8FD7948FFF75DFD79A2C7
:10269000D8210020FFF704FA4FF4FA642046FEF731
:1026A000D5F8FFF783F87648FFF7A6FD7548FFF7E2
:1026B0004BFD75A20A210E20FFF7F2F97648FFF7CD
:1026C0009BFD7648FFF740FD75A21E210E20FFF707
:1026D000E7F97748FFF790FD7648FFF735FD76A2DA
:1026E0003C210E20FFF7DCF96048FFF785FD7648B6
:1026F000FFF72AFD75A25A210E20FFF7D1F977487E
:10270000FFF77AFD7648FFF71FFD76A282210E20A3
:10271000FFF7C6F95548FFF76FFD2846FFF714FD90
:1027200074A2B4210E20FFF7BBF92046BDE870402B
:10273000FEF78CB8A4010020E0010020212324270B
:1027400028292A2B2C2D2E3031323300B0010020C5
:102750002123242728292A2B2C2D2E3031323334C3
:102760003536373800000000BC0100202123242723
:1027700028292A2B2C2D2E30313233343536373858
:10278000393A3B3C00000000C801002021232427E7
:1027900028292A2B2C2D2E30313233343536373838
:1027A000393A3B3C3D3E3F4041420000D4010020CD
:1027B0002123242728292A2B2C2D2E303132333463
:1027C00035363738393A3B3C3D3E3F404142434441
:1027D00045464748494A4B4C000000002123262724
:1027E00028292A2B2C2D2E303132333435363738E8
:1027F000393A3B3C3D3E3F404142434445464748D1
:10280000494A4B4C000000002123262728292A2B67
:102810002C2D2E303132333435363738393A3B3C73
:102820003D3E3F40414200002123262728292A2BF4
:102830002C2D2E303132333435363738393A3B3C53
:10284000000000002123262728292A2B2C2D2E309A
:102850003132333435363738000000002123262743
:1028600028292A2B2C2D2E30313233008C010020C8
:1028700000FFFF004153434949D7D6B7FBBCAF0027
:1028800068010020D1C68A00313231323AC2B9D053
:10289000A1B0E0BFC6BCBC0074010020A5E1C5002A
:1028A000313631363AC2B9D0A1B0E0BFC6BCBC00A7
:1028B0008001002049B5FF00323032303AC2B9D031
:1028C000A1B0E0BFC6BCBC005D58FF00323432345A
:1028D0003AC2B9D0A1B0E0BFC6BCBC00980100208C
:1028E000B9B6FF00333233323AC2B9D0A1B0E0BF3B
:1028F000C6BCBC00D6D0CEC4CFD4CABE0000000037
:102900002DE9F05F4FF000082DED088B4646C146DB
:102910009FED589B9FED598B4046FFF703FCFEF758
:1029200045FF5848FFF768FC5748FFF70DFC57A2D2
:102930000A210020FFF7B4F856A228210020FFF753
:10294000AFF85648FFF700FC55A250210020FFF7D2
:10295000A7F856A26E210020FFF7A2F8DFF854A1D5
:102960005046FFF7F1FB54A296210020FFF798F89C
:1029700053A2B4210020FFF793F8D346DFF848A113
:1029800000249FED52AB9FED53BB3F48FFF7DCFBAC
:1029900001208AF8080004EB840006EB400255464B
:1029A00004230A215020FFF73FF8604200EB80012A
:1029B00009EB4102042328215020FFF735F837485E
:1029C000FFF7C2FB01202872C4EB041000EB800764
:1029D00008EB4702082350218220FFF725F800204A
:1029E000287206EB470208236E218220FFF71CF8AD
:1029F0005846FFF7A9FB012028722046FDF73CFD51
:102A00000F4647EC100B054653EC1A2B51EC100BFC
:102A1000FDF7C0FC53EC192BFDF715FC41EC100B36
:102A20000323062296216420FEF7DEFF47EC105BAD
:102A300053EC1B2B51EC100BFDF7ACFC53EC182B9B
:102A4000FDF701FC41EC100B04230B22B4216420A0
:102A5000FEF7CAFF0F20FDF7F9FE641CA4B2642C38
:102A600093D3BDEC088B40F6C410BDE8F05FFDF7D2
:102A7000EDBE00004AD8124DFB2109404ED1915CB9
:102A80007E4893C08C010020FFFF8000D5FDCAFD69
:102A90003A000000B8BACAFD3A00000080FFFF000B
:102AA000CCEEB3E4BFD5B8F13A000000CCEEB3E40D
:102AB000303A00008080FF00D5FDD0A1CAFD3A0069
:102AC000B8BAD0A1CAFD3A00A40A00209A999999EF
:102AD0009999B93F7B14AE47E17A843FF0B51C4A1F
:102AE00013681D684FF6BF7425401D6013681D688C
:102AF00045F400651D6013681D6845F040051D60C4
:102B0000144D4FF000632B60002308E0176830F885
:102B10001360FE601668B768BF07FCD55B1C8B426C
:102B2000F4D3106881680906FCD44FF40061296071
:102B3000016821400160106801684FF2FF7319407D
:102B400001601068016841F040010160F0BD0000C3
:102B50004C020020180C02402DE9F0410E4C0746B3
:102B6000206881680906FCD40C4E4FF48055002281
:102B700029463046FDF76EFF2068C76022689068DE
:102B80008007FCD590680006FCD429463046BDE895
:102B9000F0410122FDF75EBF4C020020000C024014
:102BA0000649020A0B68DA600A6893689B07FCD53D
:102BB000D060086881688907FCD570474C02002006
:102BC00003490A68D060086881688907FCD57047A6
:102BD0004C02002070B586B014216846FDF728FB32
:102BE0001A480024016841F004010160016801F005
:102BF00004010591016841F080010160016801F064
:102C000080010591016841F001010160016801F056
:102C100001010591016841F00201016000680C4E5C
:102C200000F002004FF4005505900022294630467E
:102C3000FDF710FF01200095CDE9010469463046FB
:102C40000394FDF707FE06B070BD00003038024067
:102C50000008024010B5124C10484FF4007120607B
:102C60004FF4827060604FF40040A0600020E0608C
:102C70002061C4E90501E06120626062A062E06257
:102C80002046FEF72DFA2068016841F040010160FE
:102C90002068016841F48041016010BD003C0040A3
:102CA0004C020020FEE7FEE77047000010B5FFF77A
:102CB000D1FF0A20FDF7CAFD6E4C4FF00060206086
:102CC0003620FFF749FF0020FFF77AFF3A20FFF791
:102CD00043FF0520FFF774FFB220FFF73DFF0C20F4
:102CE000FFF76EFF0C20FFF76BFF0020FFF768FF78
:102CF0003320FFF765FF3320FFF762FFB720FFF7B0
:102D00002BFF3520FFF75CFFBB20FFF725FF1920C5
:102D1000FFF756FFC020FFF71FFF2C20FFF750FFE3
:102D2000C220FFF719FF0120FFF74AFFC320FFF77A
:102D300013FF1220FFF744FFC420FFF70DFF2020F0
:102D4000FFF73EFFC620FFF707FF0F20FFF738FF12
:102D5000D020FFF701FFA420FFF732FFA120FFF7EB
:102D60002FFFE020FFF7F8FED020FFF729FF042017
:102D7000FFF726FF0D20FFF723FF1120FFF720FFAD
:102D80001320FFF71DFF2B20FFF71AFF3F20FFF74F
:102D900017FF5420FFF714FF4C20FFF711FF1820F6
:102DA000FFF70EFF0D20FFF70BFF0B20FFF708FFCB
:102DB0001F20FFF705FF2320FFF702FFE120FFF7A9
:102DC000CBFED020FFF7FCFE0420FFF7F9FE0C201D
:102DD000FFF7F6FE1120FFF7F3FE1320FFF7F0FEDA
:102DE0002C20FFF7EDFE3F20FFF7EAFE4420FFF71F
:102DF000E7FE5120FFF7E4FE2F20FFF7E1FE1F2042
:102E0000FFF7DEFE1F20FFF7DBFE2020FFF7D8FED6
:102E10002320FFF7D5FE2120FFF79EFE1120FFF7AC
:102E20009BFE7820FDF712FD2920FFF795FE124842
:102E3000006881680906FCD44FF40060206002201D
:102E4000FFF794F90020FFF76DF96FF07F40FFF76F
:102E50007BF9FEF7ABFC0A490848012208600949E2
:102E60000020087203485103BDE810401838FDF7F0
:102E7000F1BD0000180C02404C020020B0010020FF
:102E8000E0010020A40A00207047FDF7EFBD00001C
:102E900030B593B030216846FDF7CAF914210CA86B
:102EA000FDF7C6F91D480025016841F08051016019
:102EB000006800F0805011901948016841F4804189
:102EC00001600068022400F480401190012003900A
:102ED00010200490009406940820CDE90750A82003
:102EE000CDE9090404200B906846FDF743FF08B1C3
:102EF00072B6FEE70CA90F2081E831004FF4A05014
:102F00000F904FF48050109005210CA8FDF748FE5B
:102F1000002801D072B6FEE713B030BD4038024041
:102F2000007000400248016841F470010160704780
:102F300088ED00E010B50A4C2068C068C043C007A7
:102F400009D108480069804721680020486221684B
:102F50006420C862E06021686FF00100086110BD64
:102F60000402002074000020F0B50268294C2A4DAC
:102F70002A4E2B4F2B4B4FF0804CA04209D060457E
:102F800007D0A84205D0B04203D0B84201D0984241
:102F900004D122F0700E4A6842EA0E02A0421BD011
:102FA000604519D0A84217D0B04215D0B84213D00E
:102FB000984211D01C4DA8420ED01C4DA8420BD0F7
:102FC0001B4DA84208D01B4DA84205D01A4DA8425F
:102FD00002D01A4DA84203D122F44075CA682A4390
:102FE0004D6922F080022A4302608A68C2620A6840
:102FF0008262A04201D0984201D109690163012196
:1030000041610169C90703D0016921F00101016132
:10301000F0BD000000000140000400400008004036
:10302000000C004000040140004001400044014009
:103030000048014000180040001C004000200040F3
:1030400010B5806B0021C185C184FEF7B8F910BDB1
:1030500001680C3151E8002F22F4907241E80023FE
:10306000002BF5D10168143151E8002F22F0010244
:1030700041E80023002BF5D1016B012909D101683A
:103080000C3151E8002F22F0100241E80023002B00
:10309000F5D1202180F8421000210163704708B566
:1030A00090F84210222901D0022008BD82684FF416
:1030B00080539A4201D1016921B1816A9A421BD0A1
:1030C0004AB10AE00268816A5268C2F308020A80C3
:1030D000816A891C08E0026972B10268526802F0D4
:1030E0007F020A70816A491C8162C18D491E0904F0
:1030F000090CC18503D01BE002685268F1E7016842
:10310000CA6822F02002CA600168CA6822F480728C
:10311000CA6001684A6922F001024A61202180F8F0
:10312000421000214163026B012A03D0FEF708FB25
:10313000002008BD016301680C3151E8002F22F026
:10314000100241E80023002BF5D101680A68D2067D
:1031500002D50A6849680091818DFEF72FF9E7E7EB
:1031600070B5044600680169E26821F440511143DA
:1031700001612169A068E26908436169114308435C
:103180002168CA6849F20C639A430243CA60206806
:103190004169A26921F440711143416131492068BC
:1031A000884202D03049884202D1FDF7A3FD01E0F8
:1031B000FDF790FDE2690023192164253226B2F55E
:1031C000004F626828D0A0FB0101930F9200FCF72A
:1031D000F7FF0146B0FBF5F06FF01802504301EB2A
:1031E000800006EB0010B0FBF5F000F0F002B1FB40
:1031F000F5F002EB0012B1FBF5F06FF01803584345
:1032000001EB800006EB0010B0FBF5F000F00F00C2
:1032100021681044886070BDA0FB010192185B41D9
:10322000FCF7CEFF0146B0FBF5F00201B1FBF5F073
:103230006FF01803584301EB800006EBC000B0FBB1
:10324000F5F000F0F80002EB4002B1FBF5F0584356
:1032500001EB800006EBC000B0FBF5F000F00700CA
:10326000D6E7000000100140001401408162828511
:10327000C28500214164222180F84210016921B1F8
:103280000168CA6842F48072CA6001684A6942F003
:1032900001024A610068C16841F02001C16000205C
:1032A000704700000148FEF78BB800007C0B00203F
:1032B000FEE700000FB4054B10B503A9044A0298BD
:1032C00000F0FEF810BC5DF814FB0000453C00085F
:1032D000F00100200FB4084B10B504A902AA03980E
:1032E00000F0EEF8044602A9002000F080FC204621
:1032F00010BC5DF814FB0000EF3B00080907090E45
:10330000002804DB00F1E02080F80014704700F092
:103310000F0000F1E02080F8141D704702E008C89B
:10332000121F08C1002AFAD170477047002001E03F
:1033300001C1121F002AFBD1704700002DE9FF5F79
:1033400082B00021DDE90430020DDDF840B0034316
:1033500018D044F61050A2F2FF32424315141198CF
:1033600001281FD0A5EB0B00401C5FEA000A4FF0BC
:1033700000064E4FDFF83891B046504615D5CAF1D9
:10338000000413E0119801244AA3012801D16FEA37
:103390000B010298119AC0E90031C0E9024206B05F
:1033A000BDE8F09FCBF10000DFE704460021404A72
:1033B000491842EB0450CDE9001012E0E00707D0B5
:1033C00032463B4640464946FCF7E4FF8046894684
:1033D00032463B4610461946FCF7DCFF06460F46D0
:1033E0006410002CEAD1DDE90401DDE90023BAF123
:1033F000000F06DAFCF7CEFF42464B46FCF7CAFF49
:1034000005E0FDF7EAF842464B46FDF7E6F80446CC
:103410000E460022284BFDF767F903D84FF0FF3026
:10342000014607E00022254B20463146FCF70BFF02
:10343000FDF742F9102409E0002C0ADB0A220023E0
:10344000FCF7BEFE039B30321A55641E50EA01029F
:10345000F2D1641C039AC4F111031444119A012A95
:1034600003D0012208430DD10AE0084304D0002014
:103470004FF0110B119072E7A3EB0B056D1E0DE0E1
:103480005B4504DD4FF0000205F1010504E003DABD
:103490004FF00002A5F10105002AECD00298119925
:1034A000C0E90231C0E9004579E70000000014409E
:1034B0000000F03F300000000000F0430000E03F5B
:1034C0002DE9FF4F95B09B468946064600250FE241
:1034D000252877D100242746F84A0121059400E0E9
:1034E000044316F8013F203B01FA03F01042F7D1E4
:1034F00030782A2811D06FF02F033078A0F13002F5
:10350000092A16D8059A44F0020402EB820203EB62
:1035100042021044761C0590EFE759F8042B0592FF
:10352000002A03DA504244F40054059044F00204A7
:10353000761C30782E2816D116F8010F44F00404BA
:103540002A280DD06FF02F023078A0F13003092B1C
:1035500009D807EB870302EB4303C718761CF3E790
:1035600059F8047B761C30786C280FD006DC4C2888
:1035700017D068280DD06A2814D104E0742810D020
:103580007A280FD10DE044F400140AE044F48014CA
:1035900001E044F440147278824202D104F58014B0
:1035A000761C761C307866280BD013DC582877D030
:1035B00009DC002875D04528F6D04628F4D04728E5
:1035C0001AD19DE118E0632835D0642879D06528A8
:1035D00012D195E1702873D008DC6728F1D06928F2
:1035E0006FD06E280DD06F2806D1B5E073282CD08F
:1035F000752875D0782874D05A46179990476D1C55
:1036000075E1C4F30250022809D003280DD0D9F87F
:10361000001004280DD00D6009F1040967E1D9F804
:103620000010EA17C1E90052F6E7D9F800100D8042
:10363000F2E70D70F0E719F8041B8DF80010002078
:103640008DF80100EA46012003E059F804AB4FF081
:10365000FF3061074FF0000102D40DE008F10101D5
:103660008846B9420FDA8045F8DB1AF808100029BD
:10367000F4D108E008F1010188468142FADB1AF82A
:1036800008100029F6D105985B46A0EB08072146F3
:103690003846179A00F094FA284400EB080507E032
:1036A0004DE029E10DE01AF8010B5A4617999047B1
:1036B000B8F10108F7D25B4621463846179A13E164
:1036C00042E00A220092C4F302524FF0000A022A9A
:1036D00008D059F804CB032A4FEAEC710AD00DE068
:1036E00029E02AE009F1070121F00702F2E802C10E
:1036F000914609E00FFA8CFC4FEAEC71042A03D1E1
:103700004FFA8CFC4FEAEC71002907DA0A460021D7
:10371000DCF1000C61EB02012D2202E0220504D550
:103720002B228DF80420012203E0E20701D02022A1
:10373000F7E7904659E00A2102E010220DE010213F
:103740004FF0000A00910BE010224FF0000A44F005
:1037500004040827009203E008224FF0000A0092B8
:10376000C4F30252022A05D059F804CB0021032ADF
:1037700008D009E009F1070121F00702F2E802C1CF
:10378000914605E01FFA8CFC042A01D10CF0FF0CD5
:103790004FF00008220728D5702806D0009B83F040
:1037A000100353EA0A0305D00EE040228DF80420EE
:1037B000012208E05CEA010206D030228DF80420E4
:1037C0008DF8050002229046009B83F0080353EA1F
:1037D0000A030AD15CEA010201D1620705D5302251
:1037E0008DF804204FF001087F1E582804D034A023
:1037F00003900EA802900DE036A0F9E7534660460C
:10380000009AFCF7DDFC84460398825C0298401E17
:10381000029002705CEA0100F0D1029806A9081A31
:1038200000F1200A600702D524F4803400E001276B
:10383000574502DDA7EB0A0000E0002000EB0A017B
:10384000009005984144401A0590E00306D45B4679
:103850002146179A059800F0B3F90544002706E0C1
:1038600001A85A46C05D179990476D1C7F1C4745BB
:10387000F6DBE0030CD55B462146179A059800F06D
:103880009FF9054404E030205A46179990476D1C73
:103890000099481E00900029F5DC08E00298029982
:1038A0005A460078491C0291179990476D1CBAF14D
:1038B0000001AAF1010AF1DC65E10000092801001C
:1038C0003031323334353637383961626364656696
:1038D0000000000030313233343536373839414258
:1038E000434445460000000000F058F90544761CAA
:1038F000307800287FF4ECAD19B02846BDE8F08F91
:10390000620700D4062709F1070222F0070CFCE841
:103910000223E14603F000485FEA080C02D00FF2F0
:10392000702C0DE05FEA045C02D50FF2682C07E012
:103930005FEAC47C02D00FF2602C01E0AFF2700CA1
:103940004FF0FF3823F00043CDF850C065280CD06D
:1039500006DC452809D046281DD047283DD13DE04A
:10396000662818D067287ED138E00021112F01DBAE
:10397000112000E0781CCDE9000106A90EA8FFF790
:10398000DDFCDDE90F010E9A03910021009207F1A1
:10399000010A04914DE04FF000400097CDE901107D
:1039A00006A90EA8FFF7CAFCDDE90F0203920E9BE1
:1039B00011990022DDF80CA00093049211B9791C32
:1039C00000EB010AB7EB0A0004D4C0F1FF3007F1A5
:1039D000010A0490AAEB0700019044E0012F00DAED
:1039E00001270021112F01DD112000E03846CDE92B
:1039F000000106A90EA8FFF7A1FCDDE90F010E9A50
:103A00000391002104910092BA4621070CD4039936
:103A1000514500DA8A46BAF1010F05DD009AAAF194
:103A20000101515C302908D0B84202DA10F1040FCC
:103A300006DA0121CDE9011015E0AAF10101E9E75B
:103A4000002805DC049901440491AAEB000102E07E
:103A5000411C514500DD8A460499401A401C0190E2
:103A60004FF000400290200704D40198504501DB3C
:103A7000CDF8048000208DF84F0002980DF14F071B
:103A8000B0F1004F25D02B200E9002984FF0020885
:103A900000280CDA404202902D200E9007E00A2107
:103AA0000298FCF7F6FC3031029007F8011DB8F1DE
:103AB0000001A8F10108F2DC02980028EFD1791E7C
:103AC0000E980870307800F0200040F0450007F8AC
:103AD000020D12A8C01B00F107081498007800B16D
:103AE000012000EB0A01019801EBE07105984144C7
:103AF000401A401E0590E00306D45B462146179A03
:103B0000059800F05DF805441498007818B15A46FD
:103B1000179990476D1CE00324D55B462146179A00
:103B2000059800F04DF805441CE00498002807DBD8
:103B3000DDE90301884203DD0098405C179901E04C
:103B4000179930205A469047049805F10105401C0A
:103B500004900198401E019004D12E205A461799D6
:103B600090476D1CBAF10001AAF1010ADDDC05E005
:103B700017F8010B5A46179990476D1CB8F10001D0
:103B8000A8F10108F4DC5B462146179A0598ABE6DC
:103B90002D0000002B000000200000002DE9F04166
:103BA000044600251E461746880404D405E039461D
:103BB0002020B0476D1C641EF9D52846BDE8F08171
:103BC0002DE9F041044600251E469046C80301D564
:103BD000302700E02027880404D505E04146384618
:103BE000B0476D1C641EF9D52846BDE8F0810A680F
:103BF000531C0B601070704701490860704700004B
:103C0000E80100204FF47A71484300F001B8000049
:103C100070B54FF0E024002265690949A36909687D
:103C20004843A1699942FCD002D2A3EB010302E010
:103C3000A5EB010633441A440B468242F1D370BD12
:103C4000E801002003490A685206FCD5C2B24A6066
:103C50007047000000100140FCF710FFFFF718F953
:103C6000A820FFF7C9FF4FF4E13000F01BF80A4825
:103C7000416854208847FEF7ADFFFFF717F8074D5E
:103C80004FF400544FF47A7621462846FCF7DAFECA
:103C90003046FFF7B7FFF7E7740000200008024046
:103CA000006870470B4910B5094AC1E9002000209F
:103CB0008860C860086188610C2048610846FDF78B
:103CC000B7FCBDE81040012203490248FDF72ABDB8
:103CD000001001407C0B0020EC01002070B596B074
:103CE000054614AB01AA03A900F0DEF9002824D18F
:103CF0008DF84C001D4C042615E000BF216806EB32
:103D0000C00014AB08586A460BA900F0CDF9002892
:103D100013D103A90BA800F0ECFB80B19DF84C0077
:103D2000401C8DF84C00217DC0B28142E6D8207D38
:103D30009DF84C1088420ED1042016B070BD9DF83D
:103D400000009DF80410884201D90220F5E79DF893
:103D50004C00A075EBE713A9284600F05DFA002897
:103D6000EBD19DF84C0060750020E6E77400002060
:103D70002DE9F0417F4C9AB0A57D207DA8427DD9E8
:103D80000421206801EBC50119AB405810AA11A904
:103D900000F08AF911A978A0FFF78CFA00270DF13D
:103DA000180833E0208B0121B940084217D02221A6
:103DB00073A0FFF77FFA384600F0A8FA011971A046
:103DC0002431FFF777FA22216DA0FFF773FA384606
:103DD00000F09CFA2044243048F827000CE03846D4
:103DE00000F094FA2044416A48F82710E07D08B3B7
:103DF00065A000BFFFF75EFA9DF84000401E8742B5
:103E000002D063A0FFF756FA7F1CFFB29DF8400076
:103E10008742C7D35FA0FFF74DFA00F0CBFD607D6E
:103E20000B2814D2DFE800F0080D31384048525E0C
:103E30006B78880058A0DDE7206850F8350080478F
:103E400004E0206850F8351006988847064600F0D0
:103E500071FD9DF8640001287DD050A0FFF72AFA7B
:103E600094F8EC0000280DD0D4F8F0100A20B1FB33
:103E7000F0F200FB1212B1FBF0F100E002E048A00A
:103E8000FFF718FA1AB0BDE8F081206850F8352025
:103E9000DDE906019047D9E7206806AE50F83530D5
:103EA00096E807009847D1E7206806AE50F83550ED
:103EB00096E80F00A847C9E70A980090206806AE68
:103EC00050F8355096E80F00A847BFE7DDE90A0132
:103ED000CDE90001206806AE50F8355096E80F0095
:103EE000A847B3E70AAB06AE93E807008DE80700E2
:103EF000206850F8355096E80F00A847A6E70AAEAC
:103F000096E80F008DE80F00206806AE50F8355097
:103F100096E80F00A84799E70BAE96E80F0001AEB0
:103F200086E80F000A980090206806AE50F83550D9
:103F300096E80F00A84789E70CAE96E80F0002AE9E
:103F400086E80F00DDE90A01CDE90001206806AE30
:103F500050F8355000E003E096E80F00A84775E7F9
:103F6000E07D314618B116A0FFF7A4F978E717A055
:103F7000FAE70000740000200D0A257328000000F5
:103F8000256300002573000030582558000000000C
:103F90002C00000029000000256C64003B0D0A0085
:103FA00046756E6374696F6E2052756E2054696D2C
:103FB000653A25642E2531646D730D0A00000000FA
:103FC0003D305825583B0D0A000000003D256C751A
:103FD0003B0D0A00F0B5044600200746064605469C
:103FE00023782C2B03D0292B04D01BB103E015B967
:103FF000012700E015B31EB1222B2BD0F7B92FE01B
:10400000A3F1300CBCF1090F19D92D2B17D02B2B94
:1040100015D0A3F1610CBCF1050F10D9A3F1410C2F
:10402000BCF1050F0BD9582B09D0782B07D0222BC8
:104030000CD0202B1DD02C2B1BD0FF260CE05FB901
:10404000612B00D3203B01F8013B12E027B9012688
:1040500035460EE0002567B100230B701670F0BDE9
:104060003DB15C2B02D1401CC0B2641C237801F826
:10407000013B401CC0B2641CB2E730B5002515708E
:104080000AE001F8014B1478401C641CE4B214707F
:104090009C4201D3012030BD0478202C01D0002C9B
:1040A000EFD10D70002030BD2DE9FF4F002582B00B
:1040B000984604462F462E464FF0010BAA462A4644
:1040C000A94615E0202910D002F07F03052B0CD261
:1040D00002B9802202F07F03042B01D12A290AD1E0
:1040E000521C0DF80310D2B201E0852A04D0401C06
:1040F00001780029E6D162B102F07F0244A10DF8F7
:104100000290684600F0F5F938B1012188F80010F6
:1041100000224FF00008234614E088F80090F7E7EB
:1041200008F1010000F0FF0813F8010F202801D06A
:104130002A2807D1184600F069F9282802D02A2831
:1041400000D047461878282801D00028E8D10FB1C0
:104150003C44641C00273946207888B1282804D0C4
:10416000292806D022280FD010E079B96D1CEDB2B5
:104170000CE059B925B16D1E15F0FF0501D00CE01A
:104180000127012E32D039E049B100214DB12C2850
:104190000FD020281FD028281DD07AB117E0012188
:1041A000F4E7202820D0039B18700398401C03904C
:1041B0001AE0521C4FF0010BD2B20CE0BAF1050F1D
:1041C00005D20DF80A000AF1010000F0FF0A0BF118
:1041D000010000F0FF0B012D06D1BBF1020F03D14E
:1041E000761C4FF0030BF6B2641CB5E70DF80A908D
:1041F00007A1684600F07DF900B900260498067012
:10420000039880F8009006B03846BDE8F08F0000B3
:10421000766F6964000000002DE9F04300248946B0
:10422000314DB5B0214622466B18491CC9B29A7669
:104230000A29F9D303E000BF10F8011F91B10178FA
:104240002829F9D1461C012733AA69463046FFF7D1
:10425000C1FE06449DF8CC0040B1012824D0FF28BF
:1042600039D10BE0012035B0BDE8F0839DF80000A6
:1042700080B334A9684600F0D1F808B10220F2E713
:10428000204600F043F8284434994162288B07FA0D
:1042900004F188432883042029198876641CE4B239
:1042A0000A2C18D90320DEE7684600F037F900F140
:1042B0000108204600F02AF841196846243100F030
:1042C00024F9288B07FA04F108432919288381F877
:1042D0001A80E3E7FFE73078292801D00028B3D11E
:1042E00089F800400020BEE7740000200549002046
:1042F0000A88130405D5044BD0B200221A5418467C
:104300000A807047EE010020B40A0020024610B572
:1043100000200146054B05E05C18491CA47EC9B28B
:104320002044C0B29142F7D310BD000074000020B9
:1043300000EBC00101EB00104FF0FF3101EB8000FA
:1043400010B581B24FF47A7000F00CFB01490120E6
:10435000C87510BD740000200246012000E05043E3
:10436000491EC9B2FBD2704770B5FFF7BFFF050009
:1043700022D0124EB1688847040013D0284600F0BE
:10438000D7F8012801D0040016D0012C0ED0022C41
:104390000ED0032C0ED0042C0ED109A0BDE8704025
:1043A000FEF788BFF068BDE8704000470BA0F5E756
:1043B0000EA0F3E711A0F1E770BD0000740000202B
:1043C000E69CAAE689BEE588B0E58CB9E9858DE76B
:1043D0009A84E587BDE695B0210D0A00E587BDE624
:1043E00095B0E99499E8AFAF210D0A00E58F82E618
:1043F00095B0E99499E8AFAF210D0A00E58F82E608
:1044000095B0E5A4AAE5A49A210D0A0010F8011FB1
:10441000202901D10028F9D1C8B270472DE9F04315
:104420000D4600244FF00A09264601462C600A7802
:10443000A2F13003092B14D903782D2B01D02B2B9B
:1044400000D174B1A2F14103052B0AD9582A05D035
:1044500012F0FF0F17D00120BDE8F083012C02D02D
:10446000F9E7412A01D34FF0100902782D2A04D030
:104470002B2A04D0641CE4B203E0022600E00126EB
:10448000401C491CD3E70746B9F1100F01D084B195
:1044900012E0032C01D20220DEE73878302802D166
:1044A0007878582801D00320D6E7A41EE4B2BF1CB8
:1044B00001E00420D0E70CB1641EE4B23878A0F12A
:1044C0003001092901D8884601E0A0F137082146CA
:1044D0004846FFF741FF2A6808FB0020286017F8CC
:1044E000011F0029E7D1022E01D14042286000209F
:1044F000B2E702780B789A4201D00120704712B1DE
:10450000401C491CF5E70020704702780A700278C9
:10451000002A02D0401C491CF7E7704700210278AE
:104520001AB1491CC9B2401CF9E70846704700009F
:10453000F0B58DB004461E236A4602A9FFF79DFD23
:104540000190002872D19DF80000271800267E4CAB
:104550008DF800609DF8000054F8201002A8FFF7C5
:10456000C8FF38B19DF80000401CC0B28DF80000B3
:104570000728EFD39DF800000425744C072855D276
:10458000DFE800F00404395A81A0BF0070A0FEF7F4
:1045900091FE70A0FEF78EFE7E48FEF78BFE7E48F1
:1045A000FEF788FE7D48FEF785FE7D48FEF782FE19
:1045B0007C48FEF77FFE7CA0FEF77CFE82A0FEF723
:1045C00079FE8CA0FEF776FE92A0FEF773FE99A00E
:1045D000FEF770FEA0A0FEF76DFEA848FEF76AFE8B
:1045E000A748FEF767FEA748FEF764FEA648FEF759
:1045F00061FEA6481BE056A0FEF75CFEA448FEF74D
:1046000059FE8DF800600BE0216805EBC0000958E9
:10461000A0A0FEF74FFE9DF80000401C8DF80000A2
:10462000217D9DF800008142EED889E08AE0FEF706
:1046300041FE00200DB0F0BD45A0FEF73BFE9748BF
:10464000FEF738FE8DF8006017E000BF216805EB2B
:10465000C0000BAB08580AAA02A9FFF725FD9DF878
:104660000010206850F8312002A98DA0FEF722FE2C
:104670009DF80000401C8DF80000217D9DF8000091
:104680008142E3D85CE032A0FEF714FE6A4602A93C
:104690003846FFF79FFC9DF80000002843D101A990
:1046A00002A8FFF7BBFE8DF8000010B104283AD134
:1046B00002E080A001991CE081A0FEF7FBFD012033
:1046C000E0753DE022A0FEF7F5FD6A4602A93846F6
:1046D000FFF780FC9DF8000028BB01A902A8FFF7A6
:1046E0009DFE8DF8000010B104281CD104E07AA0D2
:1046F0000199FEF7DFFD23E07AA0FEF7DBFDE6750A
:104700001EE013A0FEF7D6FD6A4602A93846FFF761
:1047100061FC9DF8000030B901A902A8FFF77EFEF8
:104720008DF8000008B1022084E7019810F0FF0026
:1047300084F8EC0001D071A000E077A0FEF7BAFD8C
:1047400003A074E7012075E700000020740000203A
:104750000D0A00002D2D2D2D2D2D2D2D2D2D2D2D26
:104760002D2D2D2D2D2D2D2D2D2D2D2D55534D41F7
:1047700052542056332E352D2D2D2D2D2D2D2D2DF2
:104780002D2D2D2D2D2D2D2D2D2D2D2D2D2D2D2066
:104790000D0A000008C2000800C300085CC300083E
:1047A000B8C30008A8C20008E68A80E69CAFE69479
:1047B000AFE68C813A7777772E6F70656E65647699
:1047C0002E636F6D0D0A000055534D415254E69C07
:1047D0008937E4B8AAE7B3BBE7BB9FE591BDE4BB6B
:1047E000A428E5BF85E9A1BBE5B08FE58699293A04
:1047F0000D0A00003F3A202020202020E88EB7E557
:104800008F96E5B8AEE58AA9E4BFA1E681AF0D0AAF
:104810000000000068656C703A202020E88EB7E543
:104820008F96E5B8AEE58AA9E4BFA1E681AF0D0A8F
:10483000000000006C6973743A202020E58FAFE718
:1048400094A8E79A84E587BDE695B0E58897E8A146
:10485000A85C720A0A00000069643A202020202027
:10486000E58FAFE794A8E587BDE695B0E79A844960
:1048700044E58897E8A1A80D0A0A0000F0C00008E6
:10488000A4C0000860C000085CC20008C4C10008E1
:1048900080C1000825730D0A000000003CC100081B
:1048A00025732069642069733A0D0A305825303821
:1048B000580D0A004845583A305825580D0A00004E
:1048C0003136E8BF9BE588B6E58F82E695B0E6987D
:1048D000BEE7A4BA210D0A004445433A256C750D84
:1048E0000A0000003130E8BF9BE588B6E58F82E61C
:1048F00095B0E698BEE7A4BA210D0A0052756E2065
:1049000054696D652043616C63756C6174696F6E89
:10491000204F4E0D0A00000052756E2054696D65DF
:104920002043616C63756C6174696F6E204F4646FD
:104930000D0A0000094800680169C943CA0708490F
:10494000D1F8F02004D14FF6FF731A44C1F8F020DB
:10495000406A1044C1F8F0007047000004020020D3
:104960007400002038B5104A0023146844F0040491
:10497000146012680D4C02F0040200920C4AC2E965
:1049800002301361C2E900411046FCF7A9FC084857
:10499000FCF7D4FC032211461E20FCF7CFF8BDE83B
:1049A00038401E20FCF7BCB84038024000080040E8
:1049B0000402002007486FF00101026811610268DB
:1049C000090CD162C1600068002141620248C0F850
:1049D000F01070470402002074000020016070474E
:1049E0004000FE079200FE079204FE0702008A04C0
:1049F000BA028A01AA041907C2B920000000000007
:104A000000000000000000000000000000000000A6
:104A10002000200020002000240124022202220481
:104A20002104200020003800D0A120000000000058
:104A30000000000000000000000000000000000076
:104A40002000A70722012A012A012F01AA07260117
:104A5000220116011301C807B0E020000000000089
:104A60000000000000000000000000000000000046
:104A700008012701440104013F0144010E0116070A
:104A8000E501040104010401BFC62000000000008C
:104A90000000000000000000000000000000000016
:104AA00084008400F4078F008400F4032C022702A2
:104AB0004401840044013606BCBC20000000000014
:104AC00000000000000000000000000000000000E6
:104AD00000000000000000000000000000000000D6
:104AE00000000000000000000000000000000000C6
:104AF00000000000000000000000000000000000B6
:104B000000000000000000000000000000000000A5
:104B10000000000000000000000000000000000095
:104B20000000000000000000000000000000000085
:104B30000000000000000000000000000000000075
:104B40000000000000000000000000000000000065
:104B50000000000000000000000000000000000055
:104B60000000000000000000000000000000000045
:104B70000000000000000000000000000000000035
:104B80000000000000000000000000000000000025
:104B90000000000000000000000000000000000015
:104BA0000000000000000000000000000000000005
:104BB00000000000000000000000000000000000F5
:104BC00080000001FC7F44044404FC3F442444244E
:104BD000FC3F14021422F41A12061222D122303C95
:104BE000C2B920000000000000000000000000002A
:104BF00000000000000000000000000000000000B5
:104C00008000800080008000800088088810882054
:104C1000842084408240814080008000A0004000C9
:104C2000D0A12000000000000000000000000000F3
:104C30000000000000000000000000000000000074
:104C4000000100011F7D44114411441144115F7D96
:104C50004411241104119C108710427C2000100084
:104C6000B0E0200000000000000000000000000094
:104C70000000000000000000000000000000000034
:104C80001008B8080F0908090808BF0808091C0916
:104C90002C080A78CA0F0908080808080808080834
:104CA000BFC620000000000000000000000000005F
:104CB00000000000000000000000000000000000F4
:104CC000080408040804C87F3F0408040804A83F37
:104CD00018210C110B12080A0804080A8A116460D2
:104CE000BCBC20000000000000000000000000002C
:104CF00000000000000000000000000000000000B4
:104D000000000000000000000000000000000000A3
:104D10000000000000000000000000000000000093
:104D20000000000000000000000000000000000083
:104D30000000000000000000000000000000000073
:104D40000000000000000000000000000000000063
:104D50000000000000000000000000000000000053
:104D60000000000000000000000000000000000043
:104D70000000000000000000000000000000000033
:104D80000000000000000000000000000000000023
:104D90000000000000000000000000000000000013
:104DA0000000000000000000000000000000000003
:104DB00000000000000000000000000000000000F3
:104DC00000000000000000000000000000000000E3
:104DD00000000000000000000000000000000000D3
:104DE00000000000000000000000000000000000C3
:104DF00000000000000000000000000000000000B3
:104E000000000000000000000000000000000000A2
:104E10000000000000000000000000000000000092
:104E20000000000000000000000000000000000082
:104E30000000000000000000000000000000000072
:104E4000000000000400000C00F8EE030811000848
:104E50001100F8FF01081101081101F8F701080815
:104E600001C81001489001C873004810024814029C
:104E7000441302C4F003020000000000C2B9200085
:104E80000000000000000000000000000000000022
:104E90000000000000000000000000000000000012
:104EA0000000000000000000000000000000000002
:104EB00000000000000000000000000004000004EA
:104EC000000004000004000004004004006024000E
:104ED00020C4002084011004030804030804020411
:104EE0000402000400000400000400800700000227
:104EF00000000000D0A12000000000000000000021
:104F000000000000000000000000000000000000A1
:104F10000000000000000000000000000000000091
:104F20000000000000000000000000000000000081
:104F3000000000000400EC040010BC03104400104A
:104F40004400104400104500FC450010E503904467
:104F500000104400104400D042003042000E4100D6
:104F600082F807400000300000000000B0E02000A0
:104F70000000000000000000000000000000000031
:104F80000000000000000000000000000000000021
:104F90000000000000000000000000000000000011
:104FA0000000000000000000000000008000C08140
:104FB000003C8000208800209000209000FC8100B0
:104FC000208000608800B0900030810728F900241C
:104FD0008700228000208000208000208000208028
:104FE00000000000BFC6200000000000000000001C
:104FF00000000000000000000000000000000000B1
:1050000000000000000000000000000000000000A0
:105010000000000000000000000000000000000090
:10502000000000101000302000202000202000FC94
:10503000FF03202000202000202000E0F801380499
:1050400001268400208800204800207000203000C5
:105050002048003C8603900102000000BCBC2000F8
:105060000000000000000000000000000000000040
:105070000000000000000000000000000000000030
:105080000000000000000000000000000000000020
:105090000000000000000000000000000000000010
:1050A00000000000000000FCFF0300000000000002
:1050B000000000000000F8FF0100000000000000F8
:1050C0000000000000000000FEFF070000000000DC
:1050D00000000000C8FD20000000000000000000EB
:1050E00000000000000000000000000000000000C0
:1050F00000000000000000000000000000000000B0
:10510000000000000000000000000000000000009F
:10511000000000000000000000000000000000107F
:105120002000FEFF01102000F03F00102000F03FA3
:1051300000102000FFFF03102100FCFF000301030B
:10514000FEFF01000000000000000000BBF920008D
:10515000000000000000000000000000000000004F
:10516000000000000000000000000000000000003F
:10517000000000000000000000000000000000002F
:10518000000000000000000000000000000000001F
:1051900000000000000000400000F01F0018180090
:1051A000040C00FFFF00048200048200FCFF0004E6
:1051B0008000040000040002F8FF0100000000006D
:1051C00000000000C9AB200000000000000000004B
:1051D00000000000000000000000000000000000CF
:1051E00000000000000000000000000000000000BF
:1051F00000000000000000000000000000000000AF
:10520000000000000000000000000000000000009E
:10521000000000000000000000000000000000008E
:10522000000000000000000000000000000000007E
:10523000000000000000000000000000000000006E
:10524000000000000000000000000000000000005E
:10525000000000000000000000000000000000004E
:10526000000000000000000000000000000000003E
:10527000000000000000000000000000000000002E
:10528000000000000000000000000000000000001E
:10529000000000000000000000000000000000000E
:1052A00000000000000000000000000000000000FE
:1052B00000000000000000000000000000000000EE
:1052C00000000000000000000000000000000000DE
:1052D00000000000000000000000000000000000CE
:1052E00000000000000000000000000000000000BE
:1052F000000000001000003010F0FF3F10420010CE
:105300004200104200F0FF1F1042081042081042F5
:1053100008F0FF0F10200890C00090410890410E47
:10532000904F0398C1008841108849108447308409
:10533000C13F020000000000C2B9200000000000D0
:10534000000000000000000000000000000000005D
:10535000000000000000000000000000000000004D
:10536000000000000000000000000000000000003D
:10537000000000000000000000000000000000002D
:1053800000000000000000180000180000100000DD
:105390001000001000001000809000801101C0106B
:1053A0000240100460101C3010181010300810302B
:1053B0000410200010000010000010000019000070
:1053C0001E00000C00000000D0A120000000000022
:1053D00000000000000000000000000000000000CD
:1053E00000000000000000000000000000000000BD
:1053F00000000000000000000000000000000000AD
:10540000000000000000000000000000000000009C
:10541000000000001000003000FED13F20100220EC
:105420001002201002201002201402FC1502201489
:105430000220D63F201202201202201002A00902F0
:105440006008021C080206040200020200F13FC0CC
:105450000000200000000000B0E02000000000007C
:10546000000000000000000000000000000000003C
:10547000000000000000000000000000000000002C
:10548000000000000000000000000000000000001C
:10549000000000000000000000000000000000000C
:1054A00000000000000400070CF80004C00004C065
:1054B0006004C0C004C00004FE0704C00004C02093
:1054C00004E06004E04304F04624D04474C8800F34
:1054D000C87804C40404C20004C00004C00004C0AE
:1054E0000004C00004400004BFC62000000000000B
:1054F00000000000000000000000000000000000AC
:10550000000000000000000000000000000000009B
:10551000000000000000000000000000000000008B
:10552000000000000000000000000000000000007B
:1055300000000020800060800160800060800060CA
:105540008000FEFF3F60800060800060800060821D
:1055500000E0FD1F7010086E100C6420046020062F
:1055600060400260400360800160400364300E7858
:105570000C7C200310000000BCBC200000000000D8
:10558000000000000000000000000000000000001B
:10559000000000000000000000000000000000000B
:1055A00000000000000000000000000000000000FB
:1055B00000000000000000000000000000000000EB
:1055C0000000000000000000000000000000C0F823
:1055D000FFC018C0CC18C0CCF8FFCC18C0CC180C39
:1055E000CC180CCCD8FFCCD8CCCCD8CCCCD8CCCC0C
:1055F000CCCCC0CCCCC004FCC0060C7E00000000AB
:105600000000000000000000CBA22000000000000D
:10561000000000000000000000000000000000008A
:10562000000000000000000000000000000000007A
:10563000000000000000000000000000000000006A
:10564000000000000000000000000000000000005A
:10565000000000000000000000000000000000F852
:10566000FF7F180060180060F8FF7F180666180CAE
:1056700006180803D8FF7F180C06180C06F8FFFF61
:105680000C0C060C0C0604060606030603010600B5
:105690000000000000000000C6C120000000000063
:1056A00000000000000000000000000000000000FA
:1056B00000000000000000000000000000000000EA
:1056C00000000000000000000000000000000000DA
:1056D00000000000000000000000000000000000CA
:1056E0000000000000000000000000000200C08474
:1056F000FFCC9CC1CC88C1CC80D9CC83D9CC8ED9ED
:10570000CC98D9CC80D9CC80D9CC88D9CC98CDCCE8
:105710000C0CCC0C36C00C63C0C6C1C074807D00BC
:105720000000000000000000B2E2200000000000C5
:105730000000000000000000000000000000000069
:105740000000000000000000000000000000000059
:105750000000000000000000000000000000000049
:105760000000000000000000000000000000000039
:1057700000000000000000000000000002001B0C00
:10578000007318004338000380FFFF0000031F0070
:105790000318000398FF0318180218180698180633
:1057A000D8188678188C38F88D9C0F980800F0006F
:1057B0000000000000000000CAD42000000000002B
:1057C00000000000000000000000000000000000D9
:1057D00000000000000000000000000000000000C9
:1057E00000000000000000000000000000000000B9
:1057F00000000000000000000000000000000000A9
:10580000000000000000000000000000008301FE16
:10581000FFFF008301F0FF3F300030F0FF3F30001A
:1058200030F0FF3F300C30000600FEFFFFC0300CB0
:10583000F8FF7F67309860301860301F003000003C
:105840000000000000000000C4BB200000000000B9
:105850000000000000000000000000000000000048
:105860000000000000000000000000000000000038
:105870000000000000000000000000000000000028
:105880000000000000000000000000000000000018
:105890000000000000000000000000000063008025
:1058A000C100C0800160000330000618001C0E001B
:1058B000700200C0F8FF0F00030E00030E80010607
:1058C000800106C0000660000738FC030E000000DF
:1058D0000000000000000000B7D62000000000001B
:1058E00000000000000000000000000000000000B8
:1058F00000000000000000000000000000000000A8
:105900000000000000000000000000000000000097
:105910000000000000000000000000000000000087
:1059200000000000000000000018600C306018301B
:105930006010FEE1FF00600082EDC1C46C636C6C1E
:1059400036FE65FF306618306618306018FEB1FF0D
:105950003030183818181C1C180E0E1802021800C7
:105960000000000000000000B1E620000000000080
:105970000000000000000000000000000000000027
:105980000000000000000000000000000000000017
:105990000000000000000000000000000000000007
:1059A00000000000000000000000000000000000F7
:1059B00000000000000000000000000000380000AF
:1059C0007000FFFFFF003800064E608C6338D03F48
:1059D00008001C00202604F8C31CCFFFF102304150
:1059E000003000FFFFFF00300000300000300000FA
:1059F0000000000000000000C2CA200000000000FB
:105A00000000000000000000000000000000000096
:105A10000000000000000000000000000000000086
:105A20000000000000000000000000000000000076
:105A30000000000000000000000000000000000066
:105A400000000000000000000030800030800130C5
:105A5000000330FEFFFE06C03086C43040183030F0
:105A600030301860F00FC03EF87F30000330000384
:105A700030000330000330000330FFFF1E00000041
:105A80000000000000000000BFD82000000000005F
:105A90000000000000000000000000000000000006
:105AA00000000000000000000000000000000000F6
:105AB00000000000000000000000000000000000E6
:105AC00000000000000000000000000000000000D6
:105AD000000000000000000000000000800160984D
